{
	"contracts/jobPortal.sol": {
		"jobPortal": {
			"abi": [
				{
					"inputs": [
						{
							"internalType": "uint256",
							"name": "",
							"type": "uint256"
						}
					],
					"name": "availableJobs",
					"outputs": [
						{
							"internalType": "string",
							"name": "positionID",
							"type": "string"
						},
						{
							"internalType": "string",
							"name": "positionTitle",
							"type": "string"
						},
						{
							"internalType": "string",
							"name": "recuiter",
							"type": "string"
						},
						{
							"internalType": "string",
							"name": "positionDescription",
							"type": "string"
						},
						{
							"internalType": "string",
							"name": "positionRequirements",
							"type": "string"
						},
						{
							"internalType": "enum jobPortal.jobStatus",
							"name": "_jobStatus",
							"type": "uint8"
						},
						{
							"internalType": "enum jobPortal.workSite",
							"name": "_workSite",
							"type": "uint8"
						},
						{
							"internalType": "enum jobPortal.jobType",
							"name": "_jobType",
							"type": "uint8"
						}
					],
					"stateMutability": "view",
					"type": "function"
				},
				{
					"inputs": [
						{
							"internalType": "uint256",
							"name": "",
							"type": "uint256"
						}
					],
					"name": "jobCandidates",
					"outputs": [
						{
							"internalType": "string",
							"name": "positionID",
							"type": "string"
						},
						{
							"internalType": "string",
							"name": "candidateAddress",
							"type": "string"
						},
						{
							"internalType": "string",
							"name": "appliedDate",
							"type": "string"
						},
						{
							"internalType": "string",
							"name": "jobSeekerID",
							"type": "string"
						}
					],
					"stateMutability": "view",
					"type": "function"
				},
				{
					"inputs": [
						{
							"internalType": "uint256",
							"name": "",
							"type": "uint256"
						}
					],
					"name": "jobRecruiters",
					"outputs": [
						{
							"internalType": "string",
							"name": "companyName",
							"type": "string"
						},
						{
							"internalType": "string",
							"name": "companyAddress",
							"type": "string"
						},
						{
							"internalType": "string",
							"name": "recruiterName",
							"type": "string"
						},
						{
							"internalType": "string",
							"name": "website",
							"type": "string"
						},
						{
							"internalType": "string",
							"name": "recruiterID",
							"type": "string"
						}
					],
					"stateMutability": "view",
					"type": "function"
				},
				{
					"inputs": [
						{
							"internalType": "uint256",
							"name": "",
							"type": "uint256"
						}
					],
					"name": "jobSeekers",
					"outputs": [
						{
							"internalType": "string",
							"name": "personalAddress",
							"type": "string"
						},
						{
							"internalType": "string",
							"name": "name",
							"type": "string"
						},
						{
							"internalType": "uint256",
							"name": "phoneNumber",
							"type": "uint256"
						},
						{
							"internalType": "string",
							"name": "email",
							"type": "string"
						},
						{
							"internalType": "string",
							"name": "jobSeekerID",
							"type": "string"
						}
					],
					"stateMutability": "view",
					"type": "function"
				},
				{
					"inputs": [
						{
							"components": [
								{
									"internalType": "string",
									"name": "personalAddress",
									"type": "string"
								},
								{
									"internalType": "string",
									"name": "name",
									"type": "string"
								},
								{
									"internalType": "uint256",
									"name": "phoneNumber",
									"type": "uint256"
								},
								{
									"internalType": "string",
									"name": "email",
									"type": "string"
								},
								{
									"internalType": "string",
									"name": "jobSeekerID",
									"type": "string"
								}
							],
							"internalType": "struct jobPortal.jobSeeker",
							"name": "_jobSeeker",
							"type": "tuple"
						},
						{
							"internalType": "string",
							"name": "name",
							"type": "string"
						},
						{
							"internalType": "uint256",
							"name": "index",
							"type": "uint256"
						}
					],
					"name": "registerJobSeeker",
					"outputs": [],
					"stateMutability": "nonpayable",
					"type": "function"
				}
			],
			"devdoc": {
				"kind": "dev",
				"methods": {},
				"version": 1
			},
			"evm": {
				"assembly": "    /* \"contracts/jobPortal.sol\":74:2194  contract jobPortal {... */\n  mstore(0x40, 0x80)\n  callvalue\n  dup1\n  iszero\n  tag_1\n  jumpi\n  0x00\n  dup1\n  revert\ntag_1:\n  pop\n  dataSize(sub_0)\n  dup1\n  dataOffset(sub_0)\n  0x00\n  codecopy\n  0x00\n  return\nstop\n\nsub_0: assembly {\n        /* \"contracts/jobPortal.sol\":74:2194  contract jobPortal {... */\n      mstore(0x40, 0x80)\n      callvalue\n      dup1\n      iszero\n      tag_1\n      jumpi\n      0x00\n      dup1\n      revert\n    tag_1:\n      pop\n      jumpi(tag_2, lt(calldatasize, 0x04))\n      shr(0xe0, calldataload(0x00))\n      dup1\n      0x42654a39\n      eq\n      tag_3\n      jumpi\n      dup1\n      0x615b816b\n      eq\n      tag_4\n      jumpi\n      dup1\n      0x6cc91d59\n      eq\n      tag_5\n      jumpi\n      dup1\n      0x834ee2e4\n      eq\n      tag_6\n      jumpi\n      dup1\n      0xb7eb51cc\n      eq\n      tag_7\n      jumpi\n    tag_2:\n      0x00\n      dup1\n      revert\n        /* \"contracts/jobPortal.sol\":1698:1863  function registerJobSeeker (jobSeeker memory _jobSeeker, string memory name, uint index) public {... */\n    tag_3:\n      tag_8\n      0x04\n      dup1\n      calldatasize\n      sub\n      dup2\n      add\n      swap1\n      tag_9\n      swap2\n      swap1\n      tag_10\n      jump\t// in\n    tag_9:\n      tag_11\n      jump\t// in\n    tag_8:\n      stop\n        /* \"contracts/jobPortal.sol\":1519:1567  mapping (uint256 => jobSeeker) public jobSeekers */\n    tag_4:\n      tag_12\n      0x04\n      dup1\n      calldatasize\n      sub\n      dup2\n      add\n      swap1\n      tag_13\n      swap2\n      swap1\n      tag_14\n      jump\t// in\n    tag_13:\n      tag_15\n      jump\t// in\n    tag_12:\n      mload(0x40)\n      tag_16\n      swap6\n      swap5\n      swap4\n      swap3\n      swap2\n      swap1\n      tag_17\n      jump\t// in\n    tag_16:\n      mload(0x40)\n      dup1\n      swap2\n      sub\n      swap1\n      return\n        /* \"contracts/jobPortal.sol\":1458:1512  mapping (uint256 => jobRecruiter) public jobRecruiters */\n    tag_5:\n      tag_18\n      0x04\n      dup1\n      calldatasize\n      sub\n      dup2\n      add\n      swap1\n      tag_19\n      swap2\n      swap1\n      tag_14\n      jump\t// in\n    tag_19:\n      tag_20\n      jump\t// in\n    tag_18:\n      mload(0x40)\n      tag_21\n      swap6\n      swap5\n      swap4\n      swap3\n      swap2\n      swap1\n      tag_22\n      jump\t// in\n    tag_21:\n      mload(0x40)\n      dup1\n      swap2\n      sub\n      swap1\n      return\n        /* \"contracts/jobPortal.sol\":1635:1689  mapping (uint256 => jobCandidate) public jobCandidates */\n    tag_6:\n      tag_23\n      0x04\n      dup1\n      calldatasize\n      sub\n      dup2\n      add\n      swap1\n      tag_24\n      swap2\n      swap1\n      tag_14\n      jump\t// in\n    tag_24:\n      tag_25\n      jump\t// in\n    tag_23:\n      mload(0x40)\n      tag_26\n      swap5\n      swap4\n      swap3\n      swap2\n      swap1\n      tag_27\n      jump\t// in\n    tag_26:\n      mload(0x40)\n      dup1\n      swap2\n      sub\n      swap1\n      return\n        /* \"contracts/jobPortal.sol\":1574:1628  mapping (uint256 => availableJob) public availableJobs */\n    tag_7:\n      tag_28\n      0x04\n      dup1\n      calldatasize\n      sub\n      dup2\n      add\n      swap1\n      tag_29\n      swap2\n      swap1\n      tag_14\n      jump\t// in\n    tag_29:\n      tag_30\n      jump\t// in\n    tag_28:\n      mload(0x40)\n      tag_31\n      swap9\n      swap8\n      swap7\n      swap6\n      swap5\n      swap4\n      swap3\n      swap2\n      swap1\n      tag_32\n      jump\t// in\n    tag_31:\n      mload(0x40)\n      dup1\n      swap2\n      sub\n      swap1\n      return\n        /* \"contracts/jobPortal.sol\":1698:1863  function registerJobSeeker (jobSeeker memory _jobSeeker, string memory name, uint index) public {... */\n    tag_11:\n        /* \"contracts/jobPortal.sol\":1835:1845  _jobSeeker */\n      dup3\n        /* \"contracts/jobPortal.sol\":1815:1825  jobSeekers */\n      0x01\n        /* \"contracts/jobPortal.sol\":1815:1832  jobSeekers[index] */\n      0x00\n        /* \"contracts/jobPortal.sol\":1826:1831  index */\n      dup4\n        /* \"contracts/jobPortal.sol\":1815:1832  jobSeekers[index] */\n      dup2\n      mstore\n      0x20\n      add\n      swap1\n      dup2\n      mstore\n      0x20\n      add\n      0x00\n      keccak256\n        /* \"contracts/jobPortal.sol\":1815:1845  jobSeekers[index] = _jobSeeker */\n      0x00\n      dup3\n      add\n      mload\n      dup2\n      0x00\n      add\n      swap1\n      dup1\n      mload\n      swap1\n      0x20\n      add\n      swap1\n      tag_34\n      swap3\n      swap2\n      swap1\n      tag_35\n      jump\t// in\n    tag_34:\n      pop\n      0x20\n      dup3\n      add\n      mload\n      dup2\n      0x01\n      add\n      swap1\n      dup1\n      mload\n      swap1\n      0x20\n      add\n      swap1\n      tag_36\n      swap3\n      swap2\n      swap1\n      tag_35\n      jump\t// in\n    tag_36:\n      pop\n      0x40\n      dup3\n      add\n      mload\n      dup2\n      0x02\n      add\n      sstore\n      0x60\n      dup3\n      add\n      mload\n      dup2\n      0x03\n      add\n      swap1\n      dup1\n      mload\n      swap1\n      0x20\n      add\n      swap1\n      tag_37\n      swap3\n      swap2\n      swap1\n      tag_35\n      jump\t// in\n    tag_37:\n      pop\n      0x80\n      dup3\n      add\n      mload\n      dup2\n      0x04\n      add\n      swap1\n      dup1\n      mload\n      swap1\n      0x20\n      add\n      swap1\n      tag_38\n      swap3\n      swap2\n      swap1\n      tag_35\n      jump\t// in\n    tag_38:\n      pop\n      swap1\n      pop\n      pop\n        /* \"contracts/jobPortal.sol\":1698:1863  function registerJobSeeker (jobSeeker memory _jobSeeker, string memory name, uint index) public {... */\n      pop\n      pop\n      pop\n      jump\t// out\n        /* \"contracts/jobPortal.sol\":1519:1567  mapping (uint256 => jobSeeker) public jobSeekers */\n    tag_15:\n      mstore(0x20, 0x01)\n      dup1\n      0x00\n      mstore\n      keccak256(0x00, 0x40)\n      0x00\n      swap2\n      pop\n      swap1\n      pop\n      dup1\n      0x00\n      add\n      dup1\n      sload\n      tag_39\n      swap1\n      tag_40\n      jump\t// in\n    tag_39:\n      dup1\n      0x1f\n      add\n      0x20\n      dup1\n      swap2\n      div\n      mul\n      0x20\n      add\n      mload(0x40)\n      swap1\n      dup2\n      add\n      0x40\n      mstore\n      dup1\n      swap3\n      swap2\n      swap1\n      dup2\n      dup2\n      mstore\n      0x20\n      add\n      dup3\n      dup1\n      sload\n      tag_41\n      swap1\n      tag_40\n      jump\t// in\n    tag_41:\n      dup1\n      iszero\n      tag_42\n      jumpi\n      dup1\n      0x1f\n      lt\n      tag_43\n      jumpi\n      0x0100\n      dup1\n      dup4\n      sload\n      div\n      mul\n      dup4\n      mstore\n      swap2\n      0x20\n      add\n      swap2\n      jump(tag_42)\n    tag_43:\n      dup3\n      add\n      swap2\n      swap1\n      0x00\n      mstore\n      keccak256(0x00, 0x20)\n      swap1\n    tag_44:\n      dup2\n      sload\n      dup2\n      mstore\n      swap1\n      0x01\n      add\n      swap1\n      0x20\n      add\n      dup1\n      dup4\n      gt\n      tag_44\n      jumpi\n      dup3\n      swap1\n      sub\n      0x1f\n      and\n      dup3\n      add\n      swap2\n    tag_42:\n      pop\n      pop\n      pop\n      pop\n      pop\n      swap1\n      dup1\n      0x01\n      add\n      dup1\n      sload\n      tag_45\n      swap1\n      tag_40\n      jump\t// in\n    tag_45:\n      dup1\n      0x1f\n      add\n      0x20\n      dup1\n      swap2\n      div\n      mul\n      0x20\n      add\n      mload(0x40)\n      swap1\n      dup2\n      add\n      0x40\n      mstore\n      dup1\n      swap3\n      swap2\n      swap1\n      dup2\n      dup2\n      mstore\n      0x20\n      add\n      dup3\n      dup1\n      sload\n      tag_46\n      swap1\n      tag_40\n      jump\t// in\n    tag_46:\n      dup1\n      iszero\n      tag_47\n      jumpi\n      dup1\n      0x1f\n      lt\n      tag_48\n      jumpi\n      0x0100\n      dup1\n      dup4\n      sload\n      div\n      mul\n      dup4\n      mstore\n      swap2\n      0x20\n      add\n      swap2\n      jump(tag_47)\n    tag_48:\n      dup3\n      add\n      swap2\n      swap1\n      0x00\n      mstore\n      keccak256(0x00, 0x20)\n      swap1\n    tag_49:\n      dup2\n      sload\n      dup2\n      mstore\n      swap1\n      0x01\n      add\n      swap1\n      0x20\n      add\n      dup1\n      dup4\n      gt\n      tag_49\n      jumpi\n      dup3\n      swap1\n      sub\n      0x1f\n      and\n      dup3\n      add\n      swap2\n    tag_47:\n      pop\n      pop\n      pop\n      pop\n      pop\n      swap1\n      dup1\n      0x02\n      add\n      sload\n      swap1\n      dup1\n      0x03\n      add\n      dup1\n      sload\n      tag_50\n      swap1\n      tag_40\n      jump\t// in\n    tag_50:\n      dup1\n      0x1f\n      add\n      0x20\n      dup1\n      swap2\n      div\n      mul\n      0x20\n      add\n      mload(0x40)\n      swap1\n      dup2\n      add\n      0x40\n      mstore\n      dup1\n      swap3\n      swap2\n      swap1\n      dup2\n      dup2\n      mstore\n      0x20\n      add\n      dup3\n      dup1\n      sload\n      tag_51\n      swap1\n      tag_40\n      jump\t// in\n    tag_51:\n      dup1\n      iszero\n      tag_52\n      jumpi\n      dup1\n      0x1f\n      lt\n      tag_53\n      jumpi\n      0x0100\n      dup1\n      dup4\n      sload\n      div\n      mul\n      dup4\n      mstore\n      swap2\n      0x20\n      add\n      swap2\n      jump(tag_52)\n    tag_53:\n      dup3\n      add\n      swap2\n      swap1\n      0x00\n      mstore\n      keccak256(0x00, 0x20)\n      swap1\n    tag_54:\n      dup2\n      sload\n      dup2\n      mstore\n      swap1\n      0x01\n      add\n      swap1\n      0x20\n      add\n      dup1\n      dup4\n      gt\n      tag_54\n      jumpi\n      dup3\n      swap1\n      sub\n      0x1f\n      and\n      dup3\n      add\n      swap2\n    tag_52:\n      pop\n      pop\n      pop\n      pop\n      pop\n      swap1\n      dup1\n      0x04\n      add\n      dup1\n      sload\n      tag_55\n      swap1\n      tag_40\n      jump\t// in\n    tag_55:\n      dup1\n      0x1f\n      add\n      0x20\n      dup1\n      swap2\n      div\n      mul\n      0x20\n      add\n      mload(0x40)\n      swap1\n      dup2\n      add\n      0x40\n      mstore\n      dup1\n      swap3\n      swap2\n      swap1\n      dup2\n      dup2\n      mstore\n      0x20\n      add\n      dup3\n      dup1\n      sload\n      tag_56\n      swap1\n      tag_40\n      jump\t// in\n    tag_56:\n      dup1\n      iszero\n      tag_57\n      jumpi\n      dup1\n      0x1f\n      lt\n      tag_58\n      jumpi\n      0x0100\n      dup1\n      dup4\n      sload\n      div\n      mul\n      dup4\n      mstore\n      swap2\n      0x20\n      add\n      swap2\n      jump(tag_57)\n    tag_58:\n      dup3\n      add\n      swap2\n      swap1\n      0x00\n      mstore\n      keccak256(0x00, 0x20)\n      swap1\n    tag_59:\n      dup2\n      sload\n      dup2\n      mstore\n      swap1\n      0x01\n      add\n      swap1\n      0x20\n      add\n      dup1\n      dup4\n      gt\n      tag_59\n      jumpi\n      dup3\n      swap1\n      sub\n      0x1f\n      and\n      dup3\n      add\n      swap2\n    tag_57:\n      pop\n      pop\n      pop\n      pop\n      pop\n      swap1\n      pop\n      dup6\n      jump\t// out\n        /* \"contracts/jobPortal.sol\":1458:1512  mapping (uint256 => jobRecruiter) public jobRecruiters */\n    tag_20:\n      mstore(0x20, 0x00)\n      dup1\n      0x00\n      mstore\n      keccak256(0x00, 0x40)\n      0x00\n      swap2\n      pop\n      swap1\n      pop\n      dup1\n      0x00\n      add\n      dup1\n      sload\n      tag_60\n      swap1\n      tag_40\n      jump\t// in\n    tag_60:\n      dup1\n      0x1f\n      add\n      0x20\n      dup1\n      swap2\n      div\n      mul\n      0x20\n      add\n      mload(0x40)\n      swap1\n      dup2\n      add\n      0x40\n      mstore\n      dup1\n      swap3\n      swap2\n      swap1\n      dup2\n      dup2\n      mstore\n      0x20\n      add\n      dup3\n      dup1\n      sload\n      tag_61\n      swap1\n      tag_40\n      jump\t// in\n    tag_61:\n      dup1\n      iszero\n      tag_62\n      jumpi\n      dup1\n      0x1f\n      lt\n      tag_63\n      jumpi\n      0x0100\n      dup1\n      dup4\n      sload\n      div\n      mul\n      dup4\n      mstore\n      swap2\n      0x20\n      add\n      swap2\n      jump(tag_62)\n    tag_63:\n      dup3\n      add\n      swap2\n      swap1\n      0x00\n      mstore\n      keccak256(0x00, 0x20)\n      swap1\n    tag_64:\n      dup2\n      sload\n      dup2\n      mstore\n      swap1\n      0x01\n      add\n      swap1\n      0x20\n      add\n      dup1\n      dup4\n      gt\n      tag_64\n      jumpi\n      dup3\n      swap1\n      sub\n      0x1f\n      and\n      dup3\n      add\n      swap2\n    tag_62:\n      pop\n      pop\n      pop\n      pop\n      pop\n      swap1\n      dup1\n      0x01\n      add\n      dup1\n      sload\n      tag_65\n      swap1\n      tag_40\n      jump\t// in\n    tag_65:\n      dup1\n      0x1f\n      add\n      0x20\n      dup1\n      swap2\n      div\n      mul\n      0x20\n      add\n      mload(0x40)\n      swap1\n      dup2\n      add\n      0x40\n      mstore\n      dup1\n      swap3\n      swap2\n      swap1\n      dup2\n      dup2\n      mstore\n      0x20\n      add\n      dup3\n      dup1\n      sload\n      tag_66\n      swap1\n      tag_40\n      jump\t// in\n    tag_66:\n      dup1\n      iszero\n      tag_67\n      jumpi\n      dup1\n      0x1f\n      lt\n      tag_68\n      jumpi\n      0x0100\n      dup1\n      dup4\n      sload\n      div\n      mul\n      dup4\n      mstore\n      swap2\n      0x20\n      add\n      swap2\n      jump(tag_67)\n    tag_68:\n      dup3\n      add\n      swap2\n      swap1\n      0x00\n      mstore\n      keccak256(0x00, 0x20)\n      swap1\n    tag_69:\n      dup2\n      sload\n      dup2\n      mstore\n      swap1\n      0x01\n      add\n      swap1\n      0x20\n      add\n      dup1\n      dup4\n      gt\n      tag_69\n      jumpi\n      dup3\n      swap1\n      sub\n      0x1f\n      and\n      dup3\n      add\n      swap2\n    tag_67:\n      pop\n      pop\n      pop\n      pop\n      pop\n      swap1\n      dup1\n      0x02\n      add\n      dup1\n      sload\n      tag_70\n      swap1\n      tag_40\n      jump\t// in\n    tag_70:\n      dup1\n      0x1f\n      add\n      0x20\n      dup1\n      swap2\n      div\n      mul\n      0x20\n      add\n      mload(0x40)\n      swap1\n      dup2\n      add\n      0x40\n      mstore\n      dup1\n      swap3\n      swap2\n      swap1\n      dup2\n      dup2\n      mstore\n      0x20\n      add\n      dup3\n      dup1\n      sload\n      tag_71\n      swap1\n      tag_40\n      jump\t// in\n    tag_71:\n      dup1\n      iszero\n      tag_72\n      jumpi\n      dup1\n      0x1f\n      lt\n      tag_73\n      jumpi\n      0x0100\n      dup1\n      dup4\n      sload\n      div\n      mul\n      dup4\n      mstore\n      swap2\n      0x20\n      add\n      swap2\n      jump(tag_72)\n    tag_73:\n      dup3\n      add\n      swap2\n      swap1\n      0x00\n      mstore\n      keccak256(0x00, 0x20)\n      swap1\n    tag_74:\n      dup2\n      sload\n      dup2\n      mstore\n      swap1\n      0x01\n      add\n      swap1\n      0x20\n      add\n      dup1\n      dup4\n      gt\n      tag_74\n      jumpi\n      dup3\n      swap1\n      sub\n      0x1f\n      and\n      dup3\n      add\n      swap2\n    tag_72:\n      pop\n      pop\n      pop\n      pop\n      pop\n      swap1\n      dup1\n      0x03\n      add\n      dup1\n      sload\n      tag_75\n      swap1\n      tag_40\n      jump\t// in\n    tag_75:\n      dup1\n      0x1f\n      add\n      0x20\n      dup1\n      swap2\n      div\n      mul\n      0x20\n      add\n      mload(0x40)\n      swap1\n      dup2\n      add\n      0x40\n      mstore\n      dup1\n      swap3\n      swap2\n      swap1\n      dup2\n      dup2\n      mstore\n      0x20\n      add\n      dup3\n      dup1\n      sload\n      tag_76\n      swap1\n      tag_40\n      jump\t// in\n    tag_76:\n      dup1\n      iszero\n      tag_77\n      jumpi\n      dup1\n      0x1f\n      lt\n      tag_78\n      jumpi\n      0x0100\n      dup1\n      dup4\n      sload\n      div\n      mul\n      dup4\n      mstore\n      swap2\n      0x20\n      add\n      swap2\n      jump(tag_77)\n    tag_78:\n      dup3\n      add\n      swap2\n      swap1\n      0x00\n      mstore\n      keccak256(0x00, 0x20)\n      swap1\n    tag_79:\n      dup2\n      sload\n      dup2\n      mstore\n      swap1\n      0x01\n      add\n      swap1\n      0x20\n      add\n      dup1\n      dup4\n      gt\n      tag_79\n      jumpi\n      dup3\n      swap1\n      sub\n      0x1f\n      and\n      dup3\n      add\n      swap2\n    tag_77:\n      pop\n      pop\n      pop\n      pop\n      pop\n      swap1\n      dup1\n      0x04\n      add\n      dup1\n      sload\n      tag_80\n      swap1\n      tag_40\n      jump\t// in\n    tag_80:\n      dup1\n      0x1f\n      add\n      0x20\n      dup1\n      swap2\n      div\n      mul\n      0x20\n      add\n      mload(0x40)\n      swap1\n      dup2\n      add\n      0x40\n      mstore\n      dup1\n      swap3\n      swap2\n      swap1\n      dup2\n      dup2\n      mstore\n      0x20\n      add\n      dup3\n      dup1\n      sload\n      tag_81\n      swap1\n      tag_40\n      jump\t// in\n    tag_81:\n      dup1\n      iszero\n      tag_82\n      jumpi\n      dup1\n      0x1f\n      lt\n      tag_83\n      jumpi\n      0x0100\n      dup1\n      dup4\n      sload\n      div\n      mul\n      dup4\n      mstore\n      swap2\n      0x20\n      add\n      swap2\n      jump(tag_82)\n    tag_83:\n      dup3\n      add\n      swap2\n      swap1\n      0x00\n      mstore\n      keccak256(0x00, 0x20)\n      swap1\n    tag_84:\n      dup2\n      sload\n      dup2\n      mstore\n      swap1\n      0x01\n      add\n      swap1\n      0x20\n      add\n      dup1\n      dup4\n      gt\n      tag_84\n      jumpi\n      dup3\n      swap1\n      sub\n      0x1f\n      and\n      dup3\n      add\n      swap2\n    tag_82:\n      pop\n      pop\n      pop\n      pop\n      pop\n      swap1\n      pop\n      dup6\n      jump\t// out\n        /* \"contracts/jobPortal.sol\":1635:1689  mapping (uint256 => jobCandidate) public jobCandidates */\n    tag_25:\n      mstore(0x20, 0x03)\n      dup1\n      0x00\n      mstore\n      keccak256(0x00, 0x40)\n      0x00\n      swap2\n      pop\n      swap1\n      pop\n      dup1\n      0x00\n      add\n      dup1\n      sload\n      tag_85\n      swap1\n      tag_40\n      jump\t// in\n    tag_85:\n      dup1\n      0x1f\n      add\n      0x20\n      dup1\n      swap2\n      div\n      mul\n      0x20\n      add\n      mload(0x40)\n      swap1\n      dup2\n      add\n      0x40\n      mstore\n      dup1\n      swap3\n      swap2\n      swap1\n      dup2\n      dup2\n      mstore\n      0x20\n      add\n      dup3\n      dup1\n      sload\n      tag_86\n      swap1\n      tag_40\n      jump\t// in\n    tag_86:\n      dup1\n      iszero\n      tag_87\n      jumpi\n      dup1\n      0x1f\n      lt\n      tag_88\n      jumpi\n      0x0100\n      dup1\n      dup4\n      sload\n      div\n      mul\n      dup4\n      mstore\n      swap2\n      0x20\n      add\n      swap2\n      jump(tag_87)\n    tag_88:\n      dup3\n      add\n      swap2\n      swap1\n      0x00\n      mstore\n      keccak256(0x00, 0x20)\n      swap1\n    tag_89:\n      dup2\n      sload\n      dup2\n      mstore\n      swap1\n      0x01\n      add\n      swap1\n      0x20\n      add\n      dup1\n      dup4\n      gt\n      tag_89\n      jumpi\n      dup3\n      swap1\n      sub\n      0x1f\n      and\n      dup3\n      add\n      swap2\n    tag_87:\n      pop\n      pop\n      pop\n      pop\n      pop\n      swap1\n      dup1\n      0x01\n      add\n      dup1\n      sload\n      tag_90\n      swap1\n      tag_40\n      jump\t// in\n    tag_90:\n      dup1\n      0x1f\n      add\n      0x20\n      dup1\n      swap2\n      div\n      mul\n      0x20\n      add\n      mload(0x40)\n      swap1\n      dup2\n      add\n      0x40\n      mstore\n      dup1\n      swap3\n      swap2\n      swap1\n      dup2\n      dup2\n      mstore\n      0x20\n      add\n      dup3\n      dup1\n      sload\n      tag_91\n      swap1\n      tag_40\n      jump\t// in\n    tag_91:\n      dup1\n      iszero\n      tag_92\n      jumpi\n      dup1\n      0x1f\n      lt\n      tag_93\n      jumpi\n      0x0100\n      dup1\n      dup4\n      sload\n      div\n      mul\n      dup4\n      mstore\n      swap2\n      0x20\n      add\n      swap2\n      jump(tag_92)\n    tag_93:\n      dup3\n      add\n      swap2\n      swap1\n      0x00\n      mstore\n      keccak256(0x00, 0x20)\n      swap1\n    tag_94:\n      dup2\n      sload\n      dup2\n      mstore\n      swap1\n      0x01\n      add\n      swap1\n      0x20\n      add\n      dup1\n      dup4\n      gt\n      tag_94\n      jumpi\n      dup3\n      swap1\n      sub\n      0x1f\n      and\n      dup3\n      add\n      swap2\n    tag_92:\n      pop\n      pop\n      pop\n      pop\n      pop\n      swap1\n      dup1\n      0x02\n      add\n      dup1\n      sload\n      tag_95\n      swap1\n      tag_40\n      jump\t// in\n    tag_95:\n      dup1\n      0x1f\n      add\n      0x20\n      dup1\n      swap2\n      div\n      mul\n      0x20\n      add\n      mload(0x40)\n      swap1\n      dup2\n      add\n      0x40\n      mstore\n      dup1\n      swap3\n      swap2\n      swap1\n      dup2\n      dup2\n      mstore\n      0x20\n      add\n      dup3\n      dup1\n      sload\n      tag_96\n      swap1\n      tag_40\n      jump\t// in\n    tag_96:\n      dup1\n      iszero\n      tag_97\n      jumpi\n      dup1\n      0x1f\n      lt\n      tag_98\n      jumpi\n      0x0100\n      dup1\n      dup4\n      sload\n      div\n      mul\n      dup4\n      mstore\n      swap2\n      0x20\n      add\n      swap2\n      jump(tag_97)\n    tag_98:\n      dup3\n      add\n      swap2\n      swap1\n      0x00\n      mstore\n      keccak256(0x00, 0x20)\n      swap1\n    tag_99:\n      dup2\n      sload\n      dup2\n      mstore\n      swap1\n      0x01\n      add\n      swap1\n      0x20\n      add\n      dup1\n      dup4\n      gt\n      tag_99\n      jumpi\n      dup3\n      swap1\n      sub\n      0x1f\n      and\n      dup3\n      add\n      swap2\n    tag_97:\n      pop\n      pop\n      pop\n      pop\n      pop\n      swap1\n      dup1\n      0x03\n      add\n      dup1\n      sload\n      tag_100\n      swap1\n      tag_40\n      jump\t// in\n    tag_100:\n      dup1\n      0x1f\n      add\n      0x20\n      dup1\n      swap2\n      div\n      mul\n      0x20\n      add\n      mload(0x40)\n      swap1\n      dup2\n      add\n      0x40\n      mstore\n      dup1\n      swap3\n      swap2\n      swap1\n      dup2\n      dup2\n      mstore\n      0x20\n      add\n      dup3\n      dup1\n      sload\n      tag_101\n      swap1\n      tag_40\n      jump\t// in\n    tag_101:\n      dup1\n      iszero\n      tag_102\n      jumpi\n      dup1\n      0x1f\n      lt\n      tag_103\n      jumpi\n      0x0100\n      dup1\n      dup4\n      sload\n      div\n      mul\n      dup4\n      mstore\n      swap2\n      0x20\n      add\n      swap2\n      jump(tag_102)\n    tag_103:\n      dup3\n      add\n      swap2\n      swap1\n      0x00\n      mstore\n      keccak256(0x00, 0x20)\n      swap1\n    tag_104:\n      dup2\n      sload\n      dup2\n      mstore\n      swap1\n      0x01\n      add\n      swap1\n      0x20\n      add\n      dup1\n      dup4\n      gt\n      tag_104\n      jumpi\n      dup3\n      swap1\n      sub\n      0x1f\n      and\n      dup3\n      add\n      swap2\n    tag_102:\n      pop\n      pop\n      pop\n      pop\n      pop\n      swap1\n      pop\n      dup5\n      jump\t// out\n        /* \"contracts/jobPortal.sol\":1574:1628  mapping (uint256 => availableJob) public availableJobs */\n    tag_30:\n      mstore(0x20, 0x02)\n      dup1\n      0x00\n      mstore\n      keccak256(0x00, 0x40)\n      0x00\n      swap2\n      pop\n      swap1\n      pop\n      dup1\n      0x00\n      add\n      dup1\n      sload\n      tag_105\n      swap1\n      tag_40\n      jump\t// in\n    tag_105:\n      dup1\n      0x1f\n      add\n      0x20\n      dup1\n      swap2\n      div\n      mul\n      0x20\n      add\n      mload(0x40)\n      swap1\n      dup2\n      add\n      0x40\n      mstore\n      dup1\n      swap3\n      swap2\n      swap1\n      dup2\n      dup2\n      mstore\n      0x20\n      add\n      dup3\n      dup1\n      sload\n      tag_106\n      swap1\n      tag_40\n      jump\t// in\n    tag_106:\n      dup1\n      iszero\n      tag_107\n      jumpi\n      dup1\n      0x1f\n      lt\n      tag_108\n      jumpi\n      0x0100\n      dup1\n      dup4\n      sload\n      div\n      mul\n      dup4\n      mstore\n      swap2\n      0x20\n      add\n      swap2\n      jump(tag_107)\n    tag_108:\n      dup3\n      add\n      swap2\n      swap1\n      0x00\n      mstore\n      keccak256(0x00, 0x20)\n      swap1\n    tag_109:\n      dup2\n      sload\n      dup2\n      mstore\n      swap1\n      0x01\n      add\n      swap1\n      0x20\n      add\n      dup1\n      dup4\n      gt\n      tag_109\n      jumpi\n      dup3\n      swap1\n      sub\n      0x1f\n      and\n      dup3\n      add\n      swap2\n    tag_107:\n      pop\n      pop\n      pop\n      pop\n      pop\n      swap1\n      dup1\n      0x01\n      add\n      dup1\n      sload\n      tag_110\n      swap1\n      tag_40\n      jump\t// in\n    tag_110:\n      dup1\n      0x1f\n      add\n      0x20\n      dup1\n      swap2\n      div\n      mul\n      0x20\n      add\n      mload(0x40)\n      swap1\n      dup2\n      add\n      0x40\n      mstore\n      dup1\n      swap3\n      swap2\n      swap1\n      dup2\n      dup2\n      mstore\n      0x20\n      add\n      dup3\n      dup1\n      sload\n      tag_111\n      swap1\n      tag_40\n      jump\t// in\n    tag_111:\n      dup1\n      iszero\n      tag_112\n      jumpi\n      dup1\n      0x1f\n      lt\n      tag_113\n      jumpi\n      0x0100\n      dup1\n      dup4\n      sload\n      div\n      mul\n      dup4\n      mstore\n      swap2\n      0x20\n      add\n      swap2\n      jump(tag_112)\n    tag_113:\n      dup3\n      add\n      swap2\n      swap1\n      0x00\n      mstore\n      keccak256(0x00, 0x20)\n      swap1\n    tag_114:\n      dup2\n      sload\n      dup2\n      mstore\n      swap1\n      0x01\n      add\n      swap1\n      0x20\n      add\n      dup1\n      dup4\n      gt\n      tag_114\n      jumpi\n      dup3\n      swap1\n      sub\n      0x1f\n      and\n      dup3\n      add\n      swap2\n    tag_112:\n      pop\n      pop\n      pop\n      pop\n      pop\n      swap1\n      dup1\n      0x02\n      add\n      dup1\n      sload\n      tag_115\n      swap1\n      tag_40\n      jump\t// in\n    tag_115:\n      dup1\n      0x1f\n      add\n      0x20\n      dup1\n      swap2\n      div\n      mul\n      0x20\n      add\n      mload(0x40)\n      swap1\n      dup2\n      add\n      0x40\n      mstore\n      dup1\n      swap3\n      swap2\n      swap1\n      dup2\n      dup2\n      mstore\n      0x20\n      add\n      dup3\n      dup1\n      sload\n      tag_116\n      swap1\n      tag_40\n      jump\t// in\n    tag_116:\n      dup1\n      iszero\n      tag_117\n      jumpi\n      dup1\n      0x1f\n      lt\n      tag_118\n      jumpi\n      0x0100\n      dup1\n      dup4\n      sload\n      div\n      mul\n      dup4\n      mstore\n      swap2\n      0x20\n      add\n      swap2\n      jump(tag_117)\n    tag_118:\n      dup3\n      add\n      swap2\n      swap1\n      0x00\n      mstore\n      keccak256(0x00, 0x20)\n      swap1\n    tag_119:\n      dup2\n      sload\n      dup2\n      mstore\n      swap1\n      0x01\n      add\n      swap1\n      0x20\n      add\n      dup1\n      dup4\n      gt\n      tag_119\n      jumpi\n      dup3\n      swap1\n      sub\n      0x1f\n      and\n      dup3\n      add\n      swap2\n    tag_117:\n      pop\n      pop\n      pop\n      pop\n      pop\n      swap1\n      dup1\n      0x03\n      add\n      dup1\n      sload\n      tag_120\n      swap1\n      tag_40\n      jump\t// in\n    tag_120:\n      dup1\n      0x1f\n      add\n      0x20\n      dup1\n      swap2\n      div\n      mul\n      0x20\n      add\n      mload(0x40)\n      swap1\n      dup2\n      add\n      0x40\n      mstore\n      dup1\n      swap3\n      swap2\n      swap1\n      dup2\n      dup2\n      mstore\n      0x20\n      add\n      dup3\n      dup1\n      sload\n      tag_121\n      swap1\n      tag_40\n      jump\t// in\n    tag_121:\n      dup1\n      iszero\n      tag_122\n      jumpi\n      dup1\n      0x1f\n      lt\n      tag_123\n      jumpi\n      0x0100\n      dup1\n      dup4\n      sload\n      div\n      mul\n      dup4\n      mstore\n      swap2\n      0x20\n      add\n      swap2\n      jump(tag_122)\n    tag_123:\n      dup3\n      add\n      swap2\n      swap1\n      0x00\n      mstore\n      keccak256(0x00, 0x20)\n      swap1\n    tag_124:\n      dup2\n      sload\n      dup2\n      mstore\n      swap1\n      0x01\n      add\n      swap1\n      0x20\n      add\n      dup1\n      dup4\n      gt\n      tag_124\n      jumpi\n      dup3\n      swap1\n      sub\n      0x1f\n      and\n      dup3\n      add\n      swap2\n    tag_122:\n      pop\n      pop\n      pop\n      pop\n      pop\n      swap1\n      dup1\n      0x04\n      add\n      dup1\n      sload\n      tag_125\n      swap1\n      tag_40\n      jump\t// in\n    tag_125:\n      dup1\n      0x1f\n      add\n      0x20\n      dup1\n      swap2\n      div\n      mul\n      0x20\n      add\n      mload(0x40)\n      swap1\n      dup2\n      add\n      0x40\n      mstore\n      dup1\n      swap3\n      swap2\n      swap1\n      dup2\n      dup2\n      mstore\n      0x20\n      add\n      dup3\n      dup1\n      sload\n      tag_126\n      swap1\n      tag_40\n      jump\t// in\n    tag_126:\n      dup1\n      iszero\n      tag_127\n      jumpi\n      dup1\n      0x1f\n      lt\n      tag_128\n      jumpi\n      0x0100\n      dup1\n      dup4\n      sload\n      div\n      mul\n      dup4\n      mstore\n      swap2\n      0x20\n      add\n      swap2\n      jump(tag_127)\n    tag_128:\n      dup3\n      add\n      swap2\n      swap1\n      0x00\n      mstore\n      keccak256(0x00, 0x20)\n      swap1\n    tag_129:\n      dup2\n      sload\n      dup2\n      mstore\n      swap1\n      0x01\n      add\n      swap1\n      0x20\n      add\n      dup1\n      dup4\n      gt\n      tag_129\n      jumpi\n      dup3\n      swap1\n      sub\n      0x1f\n      and\n      dup3\n      add\n      swap2\n    tag_127:\n      pop\n      pop\n      pop\n      pop\n      pop\n      swap1\n      dup1\n      0x05\n      add\n      0x00\n      swap1\n      sload\n      swap1\n      0x0100\n      exp\n      swap1\n      div\n      0xff\n      and\n      swap1\n      dup1\n      0x05\n      add\n      0x01\n      swap1\n      sload\n      swap1\n      0x0100\n      exp\n      swap1\n      div\n      0xff\n      and\n      swap1\n      dup1\n      0x05\n      add\n      0x02\n      swap1\n      sload\n      swap1\n      0x0100\n      exp\n      swap1\n      div\n      0xff\n      and\n      swap1\n      pop\n      dup9\n      jump\t// out\n    tag_35:\n      dup3\n      dup1\n      sload\n      tag_130\n      swap1\n      tag_40\n      jump\t// in\n    tag_130:\n      swap1\n      0x00\n      mstore\n      keccak256(0x00, 0x20)\n      swap1\n      0x1f\n      add\n      0x20\n      swap1\n      div\n      dup2\n      add\n      swap3\n      dup3\n      tag_132\n      jumpi\n      0x00\n      dup6\n      sstore\n      jump(tag_131)\n    tag_132:\n      dup3\n      0x1f\n      lt\n      tag_133\n      jumpi\n      dup1\n      mload\n      not(0xff)\n      and\n      dup4\n      dup1\n      add\n      or\n      dup6\n      sstore\n      jump(tag_131)\n    tag_133:\n      dup3\n      dup1\n      add\n      0x01\n      add\n      dup6\n      sstore\n      dup3\n      iszero\n      tag_131\n      jumpi\n      swap2\n      dup3\n      add\n    tag_134:\n      dup3\n      dup2\n      gt\n      iszero\n      tag_135\n      jumpi\n      dup3\n      mload\n      dup3\n      sstore\n      swap2\n      0x20\n      add\n      swap2\n      swap1\n      0x01\n      add\n      swap1\n      jump(tag_134)\n    tag_135:\n    tag_131:\n      pop\n      swap1\n      pop\n      tag_136\n      swap2\n      swap1\n      tag_137\n      jump\t// in\n    tag_136:\n      pop\n      swap1\n      jump\t// out\n    tag_137:\n    tag_138:\n      dup1\n      dup3\n      gt\n      iszero\n      tag_139\n      jumpi\n      0x00\n      dup2\n      0x00\n      swap1\n      sstore\n      pop\n      0x01\n      add\n      jump(tag_138)\n    tag_139:\n      pop\n      swap1\n      jump\t// out\n        /* \"#utility.yul\":7:82   */\n    tag_140:\n        /* \"#utility.yul\":40:46   */\n      0x00\n        /* \"#utility.yul\":73:75   */\n      0x40\n        /* \"#utility.yul\":67:76   */\n      mload\n        /* \"#utility.yul\":57:76   */\n      swap1\n      pop\n        /* \"#utility.yul\":7:82   */\n      swap1\n      jump\t// out\n        /* \"#utility.yul\":88:205   */\n    tag_141:\n        /* \"#utility.yul\":197:198   */\n      0x00\n        /* \"#utility.yul\":194:195   */\n      dup1\n        /* \"#utility.yul\":187:199   */\n      revert\n        /* \"#utility.yul\":211:328   */\n    tag_142:\n        /* \"#utility.yul\":320:321   */\n      0x00\n        /* \"#utility.yul\":317:318   */\n      dup1\n        /* \"#utility.yul\":310:322   */\n      revert\n        /* \"#utility.yul\":334:451   */\n    tag_143:\n        /* \"#utility.yul\":443:444   */\n      0x00\n        /* \"#utility.yul\":440:441   */\n      dup1\n        /* \"#utility.yul\":433:445   */\n      revert\n        /* \"#utility.yul\":457:559   */\n    tag_144:\n        /* \"#utility.yul\":498:504   */\n      0x00\n        /* \"#utility.yul\":549:551   */\n      0x1f\n        /* \"#utility.yul\":545:552   */\n      not\n        /* \"#utility.yul\":540:542   */\n      0x1f\n        /* \"#utility.yul\":533:538   */\n      dup4\n        /* \"#utility.yul\":529:543   */\n      add\n        /* \"#utility.yul\":525:553   */\n      and\n        /* \"#utility.yul\":515:553   */\n      swap1\n      pop\n        /* \"#utility.yul\":457:559   */\n      swap2\n      swap1\n      pop\n      jump\t// out\n        /* \"#utility.yul\":565:745   */\n    tag_145:\n        /* \"#utility.yul\":613:690   */\n      0x4e487b7100000000000000000000000000000000000000000000000000000000\n        /* \"#utility.yul\":610:611   */\n      0x00\n        /* \"#utility.yul\":603:691   */\n      mstore\n        /* \"#utility.yul\":710:714   */\n      0x41\n        /* \"#utility.yul\":707:708   */\n      0x04\n        /* \"#utility.yul\":700:715   */\n      mstore\n        /* \"#utility.yul\":734:738   */\n      0x24\n        /* \"#utility.yul\":731:732   */\n      0x00\n        /* \"#utility.yul\":724:739   */\n      revert\n        /* \"#utility.yul\":751:1032   */\n    tag_146:\n        /* \"#utility.yul\":834:861   */\n      tag_186\n        /* \"#utility.yul\":856:860   */\n      dup3\n        /* \"#utility.yul\":834:861   */\n      tag_144\n      jump\t// in\n    tag_186:\n        /* \"#utility.yul\":826:832   */\n      dup2\n        /* \"#utility.yul\":822:862   */\n      add\n        /* \"#utility.yul\":964:970   */\n      dup2\n        /* \"#utility.yul\":952:962   */\n      dup2\n        /* \"#utility.yul\":949:971   */\n      lt\n        /* \"#utility.yul\":928:946   */\n      0xffffffffffffffff\n        /* \"#utility.yul\":916:926   */\n      dup3\n        /* \"#utility.yul\":913:947   */\n      gt\n        /* \"#utility.yul\":910:972   */\n      or\n        /* \"#utility.yul\":907:995   */\n      iszero\n      tag_187\n      jumpi\n        /* \"#utility.yul\":975:993   */\n      tag_188\n      tag_145\n      jump\t// in\n    tag_188:\n        /* \"#utility.yul\":907:995   */\n    tag_187:\n        /* \"#utility.yul\":1015:1025   */\n      dup1\n        /* \"#utility.yul\":1011:1013   */\n      0x40\n        /* \"#utility.yul\":1004:1026   */\n      mstore\n        /* \"#utility.yul\":794:1032   */\n      pop\n        /* \"#utility.yul\":751:1032   */\n      pop\n      pop\n      jump\t// out\n        /* \"#utility.yul\":1038:1167   */\n    tag_147:\n        /* \"#utility.yul\":1072:1078   */\n      0x00\n        /* \"#utility.yul\":1099:1119   */\n      tag_190\n      tag_140\n      jump\t// in\n    tag_190:\n        /* \"#utility.yul\":1089:1119   */\n      swap1\n      pop\n        /* \"#utility.yul\":1128:1161   */\n      tag_191\n        /* \"#utility.yul\":1156:1160   */\n      dup3\n        /* \"#utility.yul\":1148:1154   */\n      dup3\n        /* \"#utility.yul\":1128:1161   */\n      tag_146\n      jump\t// in\n    tag_191:\n        /* \"#utility.yul\":1038:1167   */\n      swap2\n      swap1\n      pop\n      jump\t// out\n        /* \"#utility.yul\":1173:1290   */\n    tag_148:\n        /* \"#utility.yul\":1282:1283   */\n      0x00\n        /* \"#utility.yul\":1279:1280   */\n      dup1\n        /* \"#utility.yul\":1272:1284   */\n      revert\n        /* \"#utility.yul\":1296:1413   */\n    tag_149:\n        /* \"#utility.yul\":1405:1406   */\n      0x00\n        /* \"#utility.yul\":1402:1403   */\n      dup1\n        /* \"#utility.yul\":1395:1407   */\n      revert\n        /* \"#utility.yul\":1419:1536   */\n    tag_150:\n        /* \"#utility.yul\":1528:1529   */\n      0x00\n        /* \"#utility.yul\":1525:1526   */\n      dup1\n        /* \"#utility.yul\":1518:1530   */\n      revert\n        /* \"#utility.yul\":1542:1850   */\n    tag_151:\n        /* \"#utility.yul\":1604:1608   */\n      0x00\n        /* \"#utility.yul\":1694:1712   */\n      0xffffffffffffffff\n        /* \"#utility.yul\":1686:1692   */\n      dup3\n        /* \"#utility.yul\":1683:1713   */\n      gt\n        /* \"#utility.yul\":1680:1736   */\n      iszero\n      tag_196\n      jumpi\n        /* \"#utility.yul\":1716:1734   */\n      tag_197\n      tag_145\n      jump\t// in\n    tag_197:\n        /* \"#utility.yul\":1680:1736   */\n    tag_196:\n        /* \"#utility.yul\":1754:1783   */\n      tag_198\n        /* \"#utility.yul\":1776:1782   */\n      dup3\n        /* \"#utility.yul\":1754:1783   */\n      tag_144\n      jump\t// in\n    tag_198:\n        /* \"#utility.yul\":1746:1783   */\n      swap1\n      pop\n        /* \"#utility.yul\":1838:1842   */\n      0x20\n        /* \"#utility.yul\":1832:1836   */\n      dup2\n        /* \"#utility.yul\":1828:1843   */\n      add\n        /* \"#utility.yul\":1820:1843   */\n      swap1\n      pop\n        /* \"#utility.yul\":1542:1850   */\n      swap2\n      swap1\n      pop\n      jump\t// out\n        /* \"#utility.yul\":1856:2010   */\n    tag_152:\n        /* \"#utility.yul\":1940:1946   */\n      dup3\n        /* \"#utility.yul\":1935:1938   */\n      dup2\n        /* \"#utility.yul\":1930:1933   */\n      dup4\n        /* \"#utility.yul\":1917:1947   */\n      calldatacopy\n        /* \"#utility.yul\":2002:2003   */\n      0x00\n        /* \"#utility.yul\":1993:1999   */\n      dup4\n        /* \"#utility.yul\":1988:1991   */\n      dup4\n        /* \"#utility.yul\":1984:2000   */\n      add\n        /* \"#utility.yul\":1977:2004   */\n      mstore\n        /* \"#utility.yul\":1856:2010   */\n      pop\n      pop\n      pop\n      jump\t// out\n        /* \"#utility.yul\":2016:2428   */\n    tag_153:\n        /* \"#utility.yul\":2094:2099   */\n      0x00\n        /* \"#utility.yul\":2119:2185   */\n      tag_201\n        /* \"#utility.yul\":2135:2184   */\n      tag_202\n        /* \"#utility.yul\":2177:2183   */\n      dup5\n        /* \"#utility.yul\":2135:2184   */\n      tag_151\n      jump\t// in\n    tag_202:\n        /* \"#utility.yul\":2119:2185   */\n      tag_147\n      jump\t// in\n    tag_201:\n        /* \"#utility.yul\":2110:2185   */\n      swap1\n      pop\n        /* \"#utility.yul\":2208:2214   */\n      dup3\n        /* \"#utility.yul\":2201:2206   */\n      dup2\n        /* \"#utility.yul\":2194:2215   */\n      mstore\n        /* \"#utility.yul\":2246:2250   */\n      0x20\n        /* \"#utility.yul\":2239:2244   */\n      dup2\n        /* \"#utility.yul\":2235:2251   */\n      add\n        /* \"#utility.yul\":2284:2287   */\n      dup5\n        /* \"#utility.yul\":2275:2281   */\n      dup5\n        /* \"#utility.yul\":2270:2273   */\n      dup5\n        /* \"#utility.yul\":2266:2282   */\n      add\n        /* \"#utility.yul\":2263:2288   */\n      gt\n        /* \"#utility.yul\":2260:2372   */\n      iszero\n      tag_203\n      jumpi\n        /* \"#utility.yul\":2291:2370   */\n      tag_204\n      tag_150\n      jump\t// in\n    tag_204:\n        /* \"#utility.yul\":2260:2372   */\n    tag_203:\n        /* \"#utility.yul\":2381:2422   */\n      tag_205\n        /* \"#utility.yul\":2415:2421   */\n      dup5\n        /* \"#utility.yul\":2410:2413   */\n      dup3\n        /* \"#utility.yul\":2405:2408   */\n      dup6\n        /* \"#utility.yul\":2381:2422   */\n      tag_152\n      jump\t// in\n    tag_205:\n        /* \"#utility.yul\":2100:2428   */\n      pop\n        /* \"#utility.yul\":2016:2428   */\n      swap4\n      swap3\n      pop\n      pop\n      pop\n      jump\t// out\n        /* \"#utility.yul\":2448:2788   */\n    tag_154:\n        /* \"#utility.yul\":2504:2509   */\n      0x00\n        /* \"#utility.yul\":2553:2556   */\n      dup3\n        /* \"#utility.yul\":2546:2550   */\n      0x1f\n        /* \"#utility.yul\":2538:2544   */\n      dup4\n        /* \"#utility.yul\":2534:2551   */\n      add\n        /* \"#utility.yul\":2530:2557   */\n      slt\n        /* \"#utility.yul\":2520:2642   */\n      tag_207\n      jumpi\n        /* \"#utility.yul\":2561:2640   */\n      tag_208\n      tag_149\n      jump\t// in\n    tag_208:\n        /* \"#utility.yul\":2520:2642   */\n    tag_207:\n        /* \"#utility.yul\":2678:2684   */\n      dup2\n        /* \"#utility.yul\":2665:2685   */\n      calldataload\n        /* \"#utility.yul\":2703:2782   */\n      tag_209\n        /* \"#utility.yul\":2778:2781   */\n      dup5\n        /* \"#utility.yul\":2770:2776   */\n      dup3\n        /* \"#utility.yul\":2763:2767   */\n      0x20\n        /* \"#utility.yul\":2755:2761   */\n      dup7\n        /* \"#utility.yul\":2751:2768   */\n      add\n        /* \"#utility.yul\":2703:2782   */\n      tag_153\n      jump\t// in\n    tag_209:\n        /* \"#utility.yul\":2694:2782   */\n      swap2\n      pop\n        /* \"#utility.yul\":2510:2788   */\n      pop\n        /* \"#utility.yul\":2448:2788   */\n      swap3\n      swap2\n      pop\n      pop\n      jump\t// out\n        /* \"#utility.yul\":2794:2871   */\n    tag_155:\n        /* \"#utility.yul\":2831:2838   */\n      0x00\n        /* \"#utility.yul\":2860:2865   */\n      dup2\n        /* \"#utility.yul\":2849:2865   */\n      swap1\n      pop\n        /* \"#utility.yul\":2794:2871   */\n      swap2\n      swap1\n      pop\n      jump\t// out\n        /* \"#utility.yul\":2877:2999   */\n    tag_156:\n        /* \"#utility.yul\":2950:2974   */\n      tag_212\n        /* \"#utility.yul\":2968:2973   */\n      dup2\n        /* \"#utility.yul\":2950:2974   */\n      tag_155\n      jump\t// in\n    tag_212:\n        /* \"#utility.yul\":2943:2948   */\n      dup2\n        /* \"#utility.yul\":2940:2975   */\n      eq\n        /* \"#utility.yul\":2930:2993   */\n      tag_213\n      jumpi\n        /* \"#utility.yul\":2989:2990   */\n      0x00\n        /* \"#utility.yul\":2986:2987   */\n      dup1\n        /* \"#utility.yul\":2979:2991   */\n      revert\n        /* \"#utility.yul\":2930:2993   */\n    tag_213:\n        /* \"#utility.yul\":2877:2999   */\n      pop\n      jump\t// out\n        /* \"#utility.yul\":3005:3144   */\n    tag_157:\n        /* \"#utility.yul\":3051:3056   */\n      0x00\n        /* \"#utility.yul\":3089:3095   */\n      dup2\n        /* \"#utility.yul\":3076:3096   */\n      calldataload\n        /* \"#utility.yul\":3067:3096   */\n      swap1\n      pop\n        /* \"#utility.yul\":3105:3138   */\n      tag_215\n        /* \"#utility.yul\":3132:3137   */\n      dup2\n        /* \"#utility.yul\":3105:3138   */\n      tag_156\n      jump\t// in\n    tag_215:\n        /* \"#utility.yul\":3005:3144   */\n      swap3\n      swap2\n      pop\n      pop\n      jump\t// out\n        /* \"#utility.yul\":3184:4948   */\n    tag_158:\n        /* \"#utility.yul\":3258:3263   */\n      0x00\n        /* \"#utility.yul\":3302:3306   */\n      0xa0\n        /* \"#utility.yul\":3290:3299   */\n      dup3\n        /* \"#utility.yul\":3285:3288   */\n      dup5\n        /* \"#utility.yul\":3281:3300   */\n      sub\n        /* \"#utility.yul\":3277:3307   */\n      slt\n        /* \"#utility.yul\":3274:3391   */\n      iszero\n      tag_217\n      jumpi\n        /* \"#utility.yul\":3310:3389   */\n      tag_218\n      tag_143\n      jump\t// in\n    tag_218:\n        /* \"#utility.yul\":3274:3391   */\n    tag_217:\n        /* \"#utility.yul\":3409:3430   */\n      tag_219\n        /* \"#utility.yul\":3425:3429   */\n      0xa0\n        /* \"#utility.yul\":3409:3430   */\n      tag_147\n      jump\t// in\n    tag_219:\n        /* \"#utility.yul\":3400:3430   */\n      swap1\n      pop\n        /* \"#utility.yul\":3528:3529   */\n      0x00\n        /* \"#utility.yul\":3517:3526   */\n      dup3\n        /* \"#utility.yul\":3513:3530   */\n      add\n        /* \"#utility.yul\":3500:3531   */\n      calldataload\n        /* \"#utility.yul\":3558:3576   */\n      0xffffffffffffffff\n        /* \"#utility.yul\":3550:3556   */\n      dup2\n        /* \"#utility.yul\":3547:3577   */\n      gt\n        /* \"#utility.yul\":3544:3661   */\n      iszero\n      tag_220\n      jumpi\n        /* \"#utility.yul\":3580:3659   */\n      tag_221\n      tag_148\n      jump\t// in\n    tag_221:\n        /* \"#utility.yul\":3544:3661   */\n    tag_220:\n        /* \"#utility.yul\":3700:3759   */\n      tag_222\n        /* \"#utility.yul\":3755:3758   */\n      dup5\n        /* \"#utility.yul\":3746:3752   */\n      dup3\n        /* \"#utility.yul\":3735:3744   */\n      dup6\n        /* \"#utility.yul\":3731:3753   */\n      add\n        /* \"#utility.yul\":3700:3759   */\n      tag_154\n      jump\t// in\n    tag_222:\n        /* \"#utility.yul\":3693:3697   */\n      0x00\n        /* \"#utility.yul\":3686:3691   */\n      dup4\n        /* \"#utility.yul\":3682:3698   */\n      add\n        /* \"#utility.yul\":3675:3760   */\n      mstore\n        /* \"#utility.yul\":3440:3771   */\n      pop\n        /* \"#utility.yul\":3858:3860   */\n      0x20\n        /* \"#utility.yul\":3847:3856   */\n      dup3\n        /* \"#utility.yul\":3843:3861   */\n      add\n        /* \"#utility.yul\":3830:3862   */\n      calldataload\n        /* \"#utility.yul\":3889:3907   */\n      0xffffffffffffffff\n        /* \"#utility.yul\":3881:3887   */\n      dup2\n        /* \"#utility.yul\":3878:3908   */\n      gt\n        /* \"#utility.yul\":3875:3992   */\n      iszero\n      tag_223\n      jumpi\n        /* \"#utility.yul\":3911:3990   */\n      tag_224\n      tag_148\n      jump\t// in\n    tag_224:\n        /* \"#utility.yul\":3875:3992   */\n    tag_223:\n        /* \"#utility.yul\":4031:4090   */\n      tag_225\n        /* \"#utility.yul\":4086:4089   */\n      dup5\n        /* \"#utility.yul\":4077:4083   */\n      dup3\n        /* \"#utility.yul\":4066:4075   */\n      dup6\n        /* \"#utility.yul\":4062:4084   */\n      add\n        /* \"#utility.yul\":4031:4090   */\n      tag_154\n      jump\t// in\n    tag_225:\n        /* \"#utility.yul\":4024:4028   */\n      0x20\n        /* \"#utility.yul\":4017:4022   */\n      dup4\n        /* \"#utility.yul\":4013:4029   */\n      add\n        /* \"#utility.yul\":4006:4091   */\n      mstore\n        /* \"#utility.yul\":3781:4102   */\n      pop\n        /* \"#utility.yul\":4168:4170   */\n      0x40\n        /* \"#utility.yul\":4209:4258   */\n      tag_226\n        /* \"#utility.yul\":4254:4257   */\n      dup5\n        /* \"#utility.yul\":4245:4251   */\n      dup3\n        /* \"#utility.yul\":4234:4243   */\n      dup6\n        /* \"#utility.yul\":4230:4252   */\n      add\n        /* \"#utility.yul\":4209:4258   */\n      tag_157\n      jump\t// in\n    tag_226:\n        /* \"#utility.yul\":4202:4206   */\n      0x40\n        /* \"#utility.yul\":4195:4200   */\n      dup4\n        /* \"#utility.yul\":4191:4207   */\n      add\n        /* \"#utility.yul\":4184:4259   */\n      mstore\n        /* \"#utility.yul\":4112:4270   */\n      pop\n        /* \"#utility.yul\":4358:4360   */\n      0x60\n        /* \"#utility.yul\":4347:4356   */\n      dup3\n        /* \"#utility.yul\":4343:4361   */\n      add\n        /* \"#utility.yul\":4330:4362   */\n      calldataload\n        /* \"#utility.yul\":4389:4407   */\n      0xffffffffffffffff\n        /* \"#utility.yul\":4381:4387   */\n      dup2\n        /* \"#utility.yul\":4378:4408   */\n      gt\n        /* \"#utility.yul\":4375:4492   */\n      iszero\n      tag_227\n      jumpi\n        /* \"#utility.yul\":4411:4490   */\n      tag_228\n      tag_148\n      jump\t// in\n    tag_228:\n        /* \"#utility.yul\":4375:4492   */\n    tag_227:\n        /* \"#utility.yul\":4531:4590   */\n      tag_229\n        /* \"#utility.yul\":4586:4589   */\n      dup5\n        /* \"#utility.yul\":4577:4583   */\n      dup3\n        /* \"#utility.yul\":4566:4575   */\n      dup6\n        /* \"#utility.yul\":4562:4584   */\n      add\n        /* \"#utility.yul\":4531:4590   */\n      tag_154\n      jump\t// in\n    tag_229:\n        /* \"#utility.yul\":4524:4528   */\n      0x60\n        /* \"#utility.yul\":4517:4522   */\n      dup4\n        /* \"#utility.yul\":4513:4529   */\n      add\n        /* \"#utility.yul\":4506:4591   */\n      mstore\n        /* \"#utility.yul\":4280:4602   */\n      pop\n        /* \"#utility.yul\":4696:4699   */\n      0x80\n        /* \"#utility.yul\":4685:4694   */\n      dup3\n        /* \"#utility.yul\":4681:4700   */\n      add\n        /* \"#utility.yul\":4668:4701   */\n      calldataload\n        /* \"#utility.yul\":4728:4746   */\n      0xffffffffffffffff\n        /* \"#utility.yul\":4720:4726   */\n      dup2\n        /* \"#utility.yul\":4717:4747   */\n      gt\n        /* \"#utility.yul\":4714:4831   */\n      iszero\n      tag_230\n      jumpi\n        /* \"#utility.yul\":4750:4829   */\n      tag_231\n      tag_148\n      jump\t// in\n    tag_231:\n        /* \"#utility.yul\":4714:4831   */\n    tag_230:\n        /* \"#utility.yul\":4870:4929   */\n      tag_232\n        /* \"#utility.yul\":4925:4928   */\n      dup5\n        /* \"#utility.yul\":4916:4922   */\n      dup3\n        /* \"#utility.yul\":4905:4914   */\n      dup6\n        /* \"#utility.yul\":4901:4923   */\n      add\n        /* \"#utility.yul\":4870:4929   */\n      tag_154\n      jump\t// in\n    tag_232:\n        /* \"#utility.yul\":4863:4867   */\n      0x80\n        /* \"#utility.yul\":4856:4861   */\n      dup4\n        /* \"#utility.yul\":4852:4868   */\n      add\n        /* \"#utility.yul\":4845:4930   */\n      mstore\n        /* \"#utility.yul\":4612:4941   */\n      pop\n        /* \"#utility.yul\":3184:4948   */\n      swap3\n      swap2\n      pop\n      pop\n      jump\t// out\n        /* \"#utility.yul\":4954:5963   */\n    tag_10:\n        /* \"#utility.yul\":5066:5072   */\n      0x00\n        /* \"#utility.yul\":5074:5080   */\n      dup1\n        /* \"#utility.yul\":5082:5088   */\n      0x00\n        /* \"#utility.yul\":5131:5133   */\n      0x60\n        /* \"#utility.yul\":5119:5128   */\n      dup5\n        /* \"#utility.yul\":5110:5117   */\n      dup7\n        /* \"#utility.yul\":5106:5129   */\n      sub\n        /* \"#utility.yul\":5102:5134   */\n      slt\n        /* \"#utility.yul\":5099:5218   */\n      iszero\n      tag_234\n      jumpi\n        /* \"#utility.yul\":5137:5216   */\n      tag_235\n      tag_141\n      jump\t// in\n    tag_235:\n        /* \"#utility.yul\":5099:5218   */\n    tag_234:\n        /* \"#utility.yul\":5285:5286   */\n      0x00\n        /* \"#utility.yul\":5274:5283   */\n      dup5\n        /* \"#utility.yul\":5270:5287   */\n      add\n        /* \"#utility.yul\":5257:5288   */\n      calldataload\n        /* \"#utility.yul\":5315:5333   */\n      0xffffffffffffffff\n        /* \"#utility.yul\":5307:5313   */\n      dup2\n        /* \"#utility.yul\":5304:5334   */\n      gt\n        /* \"#utility.yul\":5301:5418   */\n      iszero\n      tag_236\n      jumpi\n        /* \"#utility.yul\":5337:5416   */\n      tag_237\n      tag_142\n      jump\t// in\n    tag_237:\n        /* \"#utility.yul\":5301:5418   */\n    tag_236:\n        /* \"#utility.yul\":5442:5520   */\n      tag_238\n        /* \"#utility.yul\":5512:5519   */\n      dup7\n        /* \"#utility.yul\":5503:5509   */\n      dup3\n        /* \"#utility.yul\":5492:5501   */\n      dup8\n        /* \"#utility.yul\":5488:5510   */\n      add\n        /* \"#utility.yul\":5442:5520   */\n      tag_158\n      jump\t// in\n    tag_238:\n        /* \"#utility.yul\":5432:5520   */\n      swap4\n      pop\n        /* \"#utility.yul\":5228:5530   */\n      pop\n        /* \"#utility.yul\":5597:5599   */\n      0x20\n        /* \"#utility.yul\":5586:5595   */\n      dup5\n        /* \"#utility.yul\":5582:5600   */\n      add\n        /* \"#utility.yul\":5569:5601   */\n      calldataload\n        /* \"#utility.yul\":5628:5646   */\n      0xffffffffffffffff\n        /* \"#utility.yul\":5620:5626   */\n      dup2\n        /* \"#utility.yul\":5617:5647   */\n      gt\n        /* \"#utility.yul\":5614:5731   */\n      iszero\n      tag_239\n      jumpi\n        /* \"#utility.yul\":5650:5729   */\n      tag_240\n      tag_142\n      jump\t// in\n    tag_240:\n        /* \"#utility.yul\":5614:5731   */\n    tag_239:\n        /* \"#utility.yul\":5755:5818   */\n      tag_241\n        /* \"#utility.yul\":5810:5817   */\n      dup7\n        /* \"#utility.yul\":5801:5807   */\n      dup3\n        /* \"#utility.yul\":5790:5799   */\n      dup8\n        /* \"#utility.yul\":5786:5808   */\n      add\n        /* \"#utility.yul\":5755:5818   */\n      tag_154\n      jump\t// in\n    tag_241:\n        /* \"#utility.yul\":5745:5818   */\n      swap3\n      pop\n        /* \"#utility.yul\":5540:5828   */\n      pop\n        /* \"#utility.yul\":5867:5869   */\n      0x40\n        /* \"#utility.yul\":5893:5946   */\n      tag_242\n        /* \"#utility.yul\":5938:5945   */\n      dup7\n        /* \"#utility.yul\":5929:5935   */\n      dup3\n        /* \"#utility.yul\":5918:5927   */\n      dup8\n        /* \"#utility.yul\":5914:5936   */\n      add\n        /* \"#utility.yul\":5893:5946   */\n      tag_157\n      jump\t// in\n    tag_242:\n        /* \"#utility.yul\":5883:5946   */\n      swap2\n      pop\n        /* \"#utility.yul\":5838:5956   */\n      pop\n        /* \"#utility.yul\":4954:5963   */\n      swap3\n      pop\n      swap3\n      pop\n      swap3\n      jump\t// out\n        /* \"#utility.yul\":5969:6298   */\n    tag_14:\n        /* \"#utility.yul\":6028:6034   */\n      0x00\n        /* \"#utility.yul\":6077:6079   */\n      0x20\n        /* \"#utility.yul\":6065:6074   */\n      dup3\n        /* \"#utility.yul\":6056:6063   */\n      dup5\n        /* \"#utility.yul\":6052:6075   */\n      sub\n        /* \"#utility.yul\":6048:6080   */\n      slt\n        /* \"#utility.yul\":6045:6164   */\n      iszero\n      tag_244\n      jumpi\n        /* \"#utility.yul\":6083:6162   */\n      tag_245\n      tag_141\n      jump\t// in\n    tag_245:\n        /* \"#utility.yul\":6045:6164   */\n    tag_244:\n        /* \"#utility.yul\":6203:6204   */\n      0x00\n        /* \"#utility.yul\":6228:6281   */\n      tag_246\n        /* \"#utility.yul\":6273:6280   */\n      dup5\n        /* \"#utility.yul\":6264:6270   */\n      dup3\n        /* \"#utility.yul\":6253:6262   */\n      dup6\n        /* \"#utility.yul\":6249:6271   */\n      add\n        /* \"#utility.yul\":6228:6281   */\n      tag_157\n      jump\t// in\n    tag_246:\n        /* \"#utility.yul\":6218:6281   */\n      swap2\n      pop\n        /* \"#utility.yul\":6174:6291   */\n      pop\n        /* \"#utility.yul\":5969:6298   */\n      swap3\n      swap2\n      pop\n      pop\n      jump\t// out\n        /* \"#utility.yul\":6304:6403   */\n    tag_159:\n        /* \"#utility.yul\":6356:6362   */\n      0x00\n        /* \"#utility.yul\":6390:6395   */\n      dup2\n        /* \"#utility.yul\":6384:6396   */\n      mload\n        /* \"#utility.yul\":6374:6396   */\n      swap1\n      pop\n        /* \"#utility.yul\":6304:6403   */\n      swap2\n      swap1\n      pop\n      jump\t// out\n        /* \"#utility.yul\":6409:6578   */\n    tag_160:\n        /* \"#utility.yul\":6493:6504   */\n      0x00\n        /* \"#utility.yul\":6527:6533   */\n      dup3\n        /* \"#utility.yul\":6522:6525   */\n      dup3\n        /* \"#utility.yul\":6515:6534   */\n      mstore\n        /* \"#utility.yul\":6567:6571   */\n      0x20\n        /* \"#utility.yul\":6562:6565   */\n      dup3\n        /* \"#utility.yul\":6558:6572   */\n      add\n        /* \"#utility.yul\":6543:6572   */\n      swap1\n      pop\n        /* \"#utility.yul\":6409:6578   */\n      swap3\n      swap2\n      pop\n      pop\n      jump\t// out\n        /* \"#utility.yul\":6584:6891   */\n    tag_161:\n        /* \"#utility.yul\":6652:6653   */\n      0x00\n        /* \"#utility.yul\":6662:6775   */\n    tag_250:\n        /* \"#utility.yul\":6676:6682   */\n      dup4\n        /* \"#utility.yul\":6673:6674   */\n      dup2\n        /* \"#utility.yul\":6670:6683   */\n      lt\n        /* \"#utility.yul\":6662:6775   */\n      iszero\n      tag_252\n      jumpi\n        /* \"#utility.yul\":6761:6762   */\n      dup1\n        /* \"#utility.yul\":6756:6759   */\n      dup3\n        /* \"#utility.yul\":6752:6763   */\n      add\n        /* \"#utility.yul\":6746:6764   */\n      mload\n        /* \"#utility.yul\":6742:6743   */\n      dup2\n        /* \"#utility.yul\":6737:6740   */\n      dup5\n        /* \"#utility.yul\":6733:6744   */\n      add\n        /* \"#utility.yul\":6726:6765   */\n      mstore\n        /* \"#utility.yul\":6698:6700   */\n      0x20\n        /* \"#utility.yul\":6695:6696   */\n      dup2\n        /* \"#utility.yul\":6691:6701   */\n      add\n        /* \"#utility.yul\":6686:6701   */\n      swap1\n      pop\n        /* \"#utility.yul\":6662:6775   */\n      jump(tag_250)\n    tag_252:\n        /* \"#utility.yul\":6793:6799   */\n      dup4\n        /* \"#utility.yul\":6790:6791   */\n      dup2\n        /* \"#utility.yul\":6787:6800   */\n      gt\n        /* \"#utility.yul\":6784:6885   */\n      iszero\n      tag_253\n      jumpi\n        /* \"#utility.yul\":6873:6874   */\n      0x00\n        /* \"#utility.yul\":6864:6870   */\n      dup5\n        /* \"#utility.yul\":6859:6862   */\n      dup5\n        /* \"#utility.yul\":6855:6871   */\n      add\n        /* \"#utility.yul\":6848:6875   */\n      mstore\n        /* \"#utility.yul\":6784:6885   */\n    tag_253:\n        /* \"#utility.yul\":6633:6891   */\n      pop\n        /* \"#utility.yul\":6584:6891   */\n      pop\n      pop\n      pop\n      jump\t// out\n        /* \"#utility.yul\":6897:7261   */\n    tag_162:\n        /* \"#utility.yul\":6985:6988   */\n      0x00\n        /* \"#utility.yul\":7013:7052   */\n      tag_255\n        /* \"#utility.yul\":7046:7051   */\n      dup3\n        /* \"#utility.yul\":7013:7052   */\n      tag_159\n      jump\t// in\n    tag_255:\n        /* \"#utility.yul\":7068:7139   */\n      tag_256\n        /* \"#utility.yul\":7132:7138   */\n      dup2\n        /* \"#utility.yul\":7127:7130   */\n      dup6\n        /* \"#utility.yul\":7068:7139   */\n      tag_160\n      jump\t// in\n    tag_256:\n        /* \"#utility.yul\":7061:7139   */\n      swap4\n      pop\n        /* \"#utility.yul\":7148:7200   */\n      tag_257\n        /* \"#utility.yul\":7193:7199   */\n      dup2\n        /* \"#utility.yul\":7188:7191   */\n      dup6\n        /* \"#utility.yul\":7181:7185   */\n      0x20\n        /* \"#utility.yul\":7174:7179   */\n      dup7\n        /* \"#utility.yul\":7170:7186   */\n      add\n        /* \"#utility.yul\":7148:7200   */\n      tag_161\n      jump\t// in\n    tag_257:\n        /* \"#utility.yul\":7225:7254   */\n      tag_258\n        /* \"#utility.yul\":7247:7253   */\n      dup2\n        /* \"#utility.yul\":7225:7254   */\n      tag_144\n      jump\t// in\n    tag_258:\n        /* \"#utility.yul\":7220:7223   */\n      dup5\n        /* \"#utility.yul\":7216:7255   */\n      add\n        /* \"#utility.yul\":7209:7255   */\n      swap2\n      pop\n        /* \"#utility.yul\":6989:7261   */\n      pop\n        /* \"#utility.yul\":6897:7261   */\n      swap3\n      swap2\n      pop\n      pop\n      jump\t// out\n        /* \"#utility.yul\":7267:7385   */\n    tag_163:\n        /* \"#utility.yul\":7354:7378   */\n      tag_260\n        /* \"#utility.yul\":7372:7377   */\n      dup2\n        /* \"#utility.yul\":7354:7378   */\n      tag_155\n      jump\t// in\n    tag_260:\n        /* \"#utility.yul\":7349:7352   */\n      dup3\n        /* \"#utility.yul\":7342:7379   */\n      mstore\n        /* \"#utility.yul\":7267:7385   */\n      pop\n      pop\n      jump\t// out\n        /* \"#utility.yul\":7391:8419   */\n    tag_17:\n        /* \"#utility.yul\":7676:7680   */\n      0x00\n        /* \"#utility.yul\":7714:7717   */\n      0xa0\n        /* \"#utility.yul\":7703:7712   */\n      dup3\n        /* \"#utility.yul\":7699:7718   */\n      add\n        /* \"#utility.yul\":7691:7718   */\n      swap1\n      pop\n        /* \"#utility.yul\":7764:7773   */\n      dup2\n        /* \"#utility.yul\":7758:7762   */\n      dup2\n        /* \"#utility.yul\":7754:7774   */\n      sub\n        /* \"#utility.yul\":7750:7751   */\n      0x00\n        /* \"#utility.yul\":7739:7748   */\n      dup4\n        /* \"#utility.yul\":7735:7752   */\n      add\n        /* \"#utility.yul\":7728:7775   */\n      mstore\n        /* \"#utility.yul\":7792:7870   */\n      tag_262\n        /* \"#utility.yul\":7865:7869   */\n      dup2\n        /* \"#utility.yul\":7856:7862   */\n      dup9\n        /* \"#utility.yul\":7792:7870   */\n      tag_162\n      jump\t// in\n    tag_262:\n        /* \"#utility.yul\":7784:7870   */\n      swap1\n      pop\n        /* \"#utility.yul\":7917:7926   */\n      dup2\n        /* \"#utility.yul\":7911:7915   */\n      dup2\n        /* \"#utility.yul\":7907:7927   */\n      sub\n        /* \"#utility.yul\":7902:7904   */\n      0x20\n        /* \"#utility.yul\":7891:7900   */\n      dup4\n        /* \"#utility.yul\":7887:7905   */\n      add\n        /* \"#utility.yul\":7880:7928   */\n      mstore\n        /* \"#utility.yul\":7945:8023   */\n      tag_263\n        /* \"#utility.yul\":8018:8022   */\n      dup2\n        /* \"#utility.yul\":8009:8015   */\n      dup8\n        /* \"#utility.yul\":7945:8023   */\n      tag_162\n      jump\t// in\n    tag_263:\n        /* \"#utility.yul\":7937:8023   */\n      swap1\n      pop\n        /* \"#utility.yul\":8033:8105   */\n      tag_264\n        /* \"#utility.yul\":8101:8103   */\n      0x40\n        /* \"#utility.yul\":8090:8099   */\n      dup4\n        /* \"#utility.yul\":8086:8104   */\n      add\n        /* \"#utility.yul\":8077:8083   */\n      dup7\n        /* \"#utility.yul\":8033:8105   */\n      tag_163\n      jump\t// in\n    tag_264:\n        /* \"#utility.yul\":8152:8161   */\n      dup2\n        /* \"#utility.yul\":8146:8150   */\n      dup2\n        /* \"#utility.yul\":8142:8162   */\n      sub\n        /* \"#utility.yul\":8137:8139   */\n      0x60\n        /* \"#utility.yul\":8126:8135   */\n      dup4\n        /* \"#utility.yul\":8122:8140   */\n      add\n        /* \"#utility.yul\":8115:8163   */\n      mstore\n        /* \"#utility.yul\":8180:8258   */\n      tag_265\n        /* \"#utility.yul\":8253:8257   */\n      dup2\n        /* \"#utility.yul\":8244:8250   */\n      dup6\n        /* \"#utility.yul\":8180:8258   */\n      tag_162\n      jump\t// in\n    tag_265:\n        /* \"#utility.yul\":8172:8258   */\n      swap1\n      pop\n        /* \"#utility.yul\":8306:8315   */\n      dup2\n        /* \"#utility.yul\":8300:8304   */\n      dup2\n        /* \"#utility.yul\":8296:8316   */\n      sub\n        /* \"#utility.yul\":8290:8293   */\n      0x80\n        /* \"#utility.yul\":8279:8288   */\n      dup4\n        /* \"#utility.yul\":8275:8294   */\n      add\n        /* \"#utility.yul\":8268:8317   */\n      mstore\n        /* \"#utility.yul\":8334:8412   */\n      tag_266\n        /* \"#utility.yul\":8407:8411   */\n      dup2\n        /* \"#utility.yul\":8398:8404   */\n      dup5\n        /* \"#utility.yul\":8334:8412   */\n      tag_162\n      jump\t// in\n    tag_266:\n        /* \"#utility.yul\":8326:8412   */\n      swap1\n      pop\n        /* \"#utility.yul\":7391:8419   */\n      swap7\n      swap6\n      pop\n      pop\n      pop\n      pop\n      pop\n      pop\n      jump\t// out\n        /* \"#utility.yul\":8425:9544   */\n    tag_22:\n        /* \"#utility.yul\":8730:8734   */\n      0x00\n        /* \"#utility.yul\":8768:8771   */\n      0xa0\n        /* \"#utility.yul\":8757:8766   */\n      dup3\n        /* \"#utility.yul\":8753:8772   */\n      add\n        /* \"#utility.yul\":8745:8772   */\n      swap1\n      pop\n        /* \"#utility.yul\":8818:8827   */\n      dup2\n        /* \"#utility.yul\":8812:8816   */\n      dup2\n        /* \"#utility.yul\":8808:8828   */\n      sub\n        /* \"#utility.yul\":8804:8805   */\n      0x00\n        /* \"#utility.yul\":8793:8802   */\n      dup4\n        /* \"#utility.yul\":8789:8806   */\n      add\n        /* \"#utility.yul\":8782:8829   */\n      mstore\n        /* \"#utility.yul\":8846:8924   */\n      tag_268\n        /* \"#utility.yul\":8919:8923   */\n      dup2\n        /* \"#utility.yul\":8910:8916   */\n      dup9\n        /* \"#utility.yul\":8846:8924   */\n      tag_162\n      jump\t// in\n    tag_268:\n        /* \"#utility.yul\":8838:8924   */\n      swap1\n      pop\n        /* \"#utility.yul\":8971:8980   */\n      dup2\n        /* \"#utility.yul\":8965:8969   */\n      dup2\n        /* \"#utility.yul\":8961:8981   */\n      sub\n        /* \"#utility.yul\":8956:8958   */\n      0x20\n        /* \"#utility.yul\":8945:8954   */\n      dup4\n        /* \"#utility.yul\":8941:8959   */\n      add\n        /* \"#utility.yul\":8934:8982   */\n      mstore\n        /* \"#utility.yul\":8999:9077   */\n      tag_269\n        /* \"#utility.yul\":9072:9076   */\n      dup2\n        /* \"#utility.yul\":9063:9069   */\n      dup8\n        /* \"#utility.yul\":8999:9077   */\n      tag_162\n      jump\t// in\n    tag_269:\n        /* \"#utility.yul\":8991:9077   */\n      swap1\n      pop\n        /* \"#utility.yul\":9124:9133   */\n      dup2\n        /* \"#utility.yul\":9118:9122   */\n      dup2\n        /* \"#utility.yul\":9114:9134   */\n      sub\n        /* \"#utility.yul\":9109:9111   */\n      0x40\n        /* \"#utility.yul\":9098:9107   */\n      dup4\n        /* \"#utility.yul\":9094:9112   */\n      add\n        /* \"#utility.yul\":9087:9135   */\n      mstore\n        /* \"#utility.yul\":9152:9230   */\n      tag_270\n        /* \"#utility.yul\":9225:9229   */\n      dup2\n        /* \"#utility.yul\":9216:9222   */\n      dup7\n        /* \"#utility.yul\":9152:9230   */\n      tag_162\n      jump\t// in\n    tag_270:\n        /* \"#utility.yul\":9144:9230   */\n      swap1\n      pop\n        /* \"#utility.yul\":9277:9286   */\n      dup2\n        /* \"#utility.yul\":9271:9275   */\n      dup2\n        /* \"#utility.yul\":9267:9287   */\n      sub\n        /* \"#utility.yul\":9262:9264   */\n      0x60\n        /* \"#utility.yul\":9251:9260   */\n      dup4\n        /* \"#utility.yul\":9247:9265   */\n      add\n        /* \"#utility.yul\":9240:9288   */\n      mstore\n        /* \"#utility.yul\":9305:9383   */\n      tag_271\n        /* \"#utility.yul\":9378:9382   */\n      dup2\n        /* \"#utility.yul\":9369:9375   */\n      dup6\n        /* \"#utility.yul\":9305:9383   */\n      tag_162\n      jump\t// in\n    tag_271:\n        /* \"#utility.yul\":9297:9383   */\n      swap1\n      pop\n        /* \"#utility.yul\":9431:9440   */\n      dup2\n        /* \"#utility.yul\":9425:9429   */\n      dup2\n        /* \"#utility.yul\":9421:9441   */\n      sub\n        /* \"#utility.yul\":9415:9418   */\n      0x80\n        /* \"#utility.yul\":9404:9413   */\n      dup4\n        /* \"#utility.yul\":9400:9419   */\n      add\n        /* \"#utility.yul\":9393:9442   */\n      mstore\n        /* \"#utility.yul\":9459:9537   */\n      tag_272\n        /* \"#utility.yul\":9532:9536   */\n      dup2\n        /* \"#utility.yul\":9523:9529   */\n      dup5\n        /* \"#utility.yul\":9459:9537   */\n      tag_162\n      jump\t// in\n    tag_272:\n        /* \"#utility.yul\":9451:9537   */\n      swap1\n      pop\n        /* \"#utility.yul\":8425:9544   */\n      swap7\n      swap6\n      pop\n      pop\n      pop\n      pop\n      pop\n      pop\n      jump\t// out\n        /* \"#utility.yul\":9550:10467   */\n    tag_27:\n        /* \"#utility.yul\":9807:9811   */\n      0x00\n        /* \"#utility.yul\":9845:9848   */\n      0x80\n        /* \"#utility.yul\":9834:9843   */\n      dup3\n        /* \"#utility.yul\":9830:9849   */\n      add\n        /* \"#utility.yul\":9822:9849   */\n      swap1\n      pop\n        /* \"#utility.yul\":9895:9904   */\n      dup2\n        /* \"#utility.yul\":9889:9893   */\n      dup2\n        /* \"#utility.yul\":9885:9905   */\n      sub\n        /* \"#utility.yul\":9881:9882   */\n      0x00\n        /* \"#utility.yul\":9870:9879   */\n      dup4\n        /* \"#utility.yul\":9866:9883   */\n      add\n        /* \"#utility.yul\":9859:9906   */\n      mstore\n        /* \"#utility.yul\":9923:10001   */\n      tag_274\n        /* \"#utility.yul\":9996:10000   */\n      dup2\n        /* \"#utility.yul\":9987:9993   */\n      dup8\n        /* \"#utility.yul\":9923:10001   */\n      tag_162\n      jump\t// in\n    tag_274:\n        /* \"#utility.yul\":9915:10001   */\n      swap1\n      pop\n        /* \"#utility.yul\":10048:10057   */\n      dup2\n        /* \"#utility.yul\":10042:10046   */\n      dup2\n        /* \"#utility.yul\":10038:10058   */\n      sub\n        /* \"#utility.yul\":10033:10035   */\n      0x20\n        /* \"#utility.yul\":10022:10031   */\n      dup4\n        /* \"#utility.yul\":10018:10036   */\n      add\n        /* \"#utility.yul\":10011:10059   */\n      mstore\n        /* \"#utility.yul\":10076:10154   */\n      tag_275\n        /* \"#utility.yul\":10149:10153   */\n      dup2\n        /* \"#utility.yul\":10140:10146   */\n      dup7\n        /* \"#utility.yul\":10076:10154   */\n      tag_162\n      jump\t// in\n    tag_275:\n        /* \"#utility.yul\":10068:10154   */\n      swap1\n      pop\n        /* \"#utility.yul\":10201:10210   */\n      dup2\n        /* \"#utility.yul\":10195:10199   */\n      dup2\n        /* \"#utility.yul\":10191:10211   */\n      sub\n        /* \"#utility.yul\":10186:10188   */\n      0x40\n        /* \"#utility.yul\":10175:10184   */\n      dup4\n        /* \"#utility.yul\":10171:10189   */\n      add\n        /* \"#utility.yul\":10164:10212   */\n      mstore\n        /* \"#utility.yul\":10229:10307   */\n      tag_276\n        /* \"#utility.yul\":10302:10306   */\n      dup2\n        /* \"#utility.yul\":10293:10299   */\n      dup6\n        /* \"#utility.yul\":10229:10307   */\n      tag_162\n      jump\t// in\n    tag_276:\n        /* \"#utility.yul\":10221:10307   */\n      swap1\n      pop\n        /* \"#utility.yul\":10354:10363   */\n      dup2\n        /* \"#utility.yul\":10348:10352   */\n      dup2\n        /* \"#utility.yul\":10344:10364   */\n      sub\n        /* \"#utility.yul\":10339:10341   */\n      0x60\n        /* \"#utility.yul\":10328:10337   */\n      dup4\n        /* \"#utility.yul\":10324:10342   */\n      add\n        /* \"#utility.yul\":10317:10365   */\n      mstore\n        /* \"#utility.yul\":10382:10460   */\n      tag_277\n        /* \"#utility.yul\":10455:10459   */\n      dup2\n        /* \"#utility.yul\":10446:10452   */\n      dup5\n        /* \"#utility.yul\":10382:10460   */\n      tag_162\n      jump\t// in\n    tag_277:\n        /* \"#utility.yul\":10374:10460   */\n      swap1\n      pop\n        /* \"#utility.yul\":9550:10467   */\n      swap6\n      swap5\n      pop\n      pop\n      pop\n      pop\n      pop\n      jump\t// out\n        /* \"#utility.yul\":10473:10653   */\n    tag_164:\n        /* \"#utility.yul\":10521:10598   */\n      0x4e487b7100000000000000000000000000000000000000000000000000000000\n        /* \"#utility.yul\":10518:10519   */\n      0x00\n        /* \"#utility.yul\":10511:10599   */\n      mstore\n        /* \"#utility.yul\":10618:10622   */\n      0x21\n        /* \"#utility.yul\":10615:10616   */\n      0x04\n        /* \"#utility.yul\":10608:10623   */\n      mstore\n        /* \"#utility.yul\":10642:10646   */\n      0x24\n        /* \"#utility.yul\":10639:10640   */\n      0x00\n        /* \"#utility.yul\":10632:10647   */\n      revert\n        /* \"#utility.yul\":10659:10775   */\n    tag_165:\n        /* \"#utility.yul\":10743:10744   */\n      0x04\n        /* \"#utility.yul\":10736:10741   */\n      dup2\n        /* \"#utility.yul\":10733:10745   */\n      lt\n        /* \"#utility.yul\":10723:10769   */\n      tag_280\n      jumpi\n        /* \"#utility.yul\":10749:10767   */\n      tag_281\n      tag_164\n      jump\t// in\n    tag_281:\n        /* \"#utility.yul\":10723:10769   */\n    tag_280:\n        /* \"#utility.yul\":10659:10775   */\n      pop\n      jump\t// out\n        /* \"#utility.yul\":10781:10914   */\n    tag_166:\n        /* \"#utility.yul\":10829:10836   */\n      0x00\n        /* \"#utility.yul\":10858:10863   */\n      dup2\n        /* \"#utility.yul\":10847:10863   */\n      swap1\n      pop\n        /* \"#utility.yul\":10864:10908   */\n      tag_283\n        /* \"#utility.yul\":10902:10907   */\n      dup3\n        /* \"#utility.yul\":10864:10908   */\n      tag_165\n      jump\t// in\n    tag_283:\n        /* \"#utility.yul\":10781:10914   */\n      swap2\n      swap1\n      pop\n      jump\t// out\n        /* \"#utility.yul\":10920:11053   */\n    tag_167:\n        /* \"#utility.yul\":10979:10988   */\n      0x00\n        /* \"#utility.yul\":11012:11047   */\n      tag_285\n        /* \"#utility.yul\":11041:11046   */\n      dup3\n        /* \"#utility.yul\":11012:11047   */\n      tag_166\n      jump\t// in\n    tag_285:\n        /* \"#utility.yul\":10999:11047   */\n      swap1\n      pop\n        /* \"#utility.yul\":10920:11053   */\n      swap2\n      swap1\n      pop\n      jump\t// out\n        /* \"#utility.yul\":11059:11208   */\n    tag_168:\n        /* \"#utility.yul\":11155:11201   */\n      tag_287\n        /* \"#utility.yul\":11195:11200   */\n      dup2\n        /* \"#utility.yul\":11155:11201   */\n      tag_167\n      jump\t// in\n    tag_287:\n        /* \"#utility.yul\":11150:11153   */\n      dup3\n        /* \"#utility.yul\":11143:11202   */\n      mstore\n        /* \"#utility.yul\":11059:11208   */\n      pop\n      pop\n      jump\t// out\n        /* \"#utility.yul\":11214:11330   */\n    tag_169:\n        /* \"#utility.yul\":11298:11299   */\n      0x03\n        /* \"#utility.yul\":11291:11296   */\n      dup2\n        /* \"#utility.yul\":11288:11300   */\n      lt\n        /* \"#utility.yul\":11278:11324   */\n      tag_289\n      jumpi\n        /* \"#utility.yul\":11304:11322   */\n      tag_290\n      tag_164\n      jump\t// in\n    tag_290:\n        /* \"#utility.yul\":11278:11324   */\n    tag_289:\n        /* \"#utility.yul\":11214:11330   */\n      pop\n      jump\t// out\n        /* \"#utility.yul\":11336:11469   */\n    tag_170:\n        /* \"#utility.yul\":11384:11391   */\n      0x00\n        /* \"#utility.yul\":11413:11418   */\n      dup2\n        /* \"#utility.yul\":11402:11418   */\n      swap1\n      pop\n        /* \"#utility.yul\":11419:11463   */\n      tag_292\n        /* \"#utility.yul\":11457:11462   */\n      dup3\n        /* \"#utility.yul\":11419:11463   */\n      tag_169\n      jump\t// in\n    tag_292:\n        /* \"#utility.yul\":11336:11469   */\n      swap2\n      swap1\n      pop\n      jump\t// out\n        /* \"#utility.yul\":11475:11608   */\n    tag_171:\n        /* \"#utility.yul\":11534:11543   */\n      0x00\n        /* \"#utility.yul\":11567:11602   */\n      tag_294\n        /* \"#utility.yul\":11596:11601   */\n      dup3\n        /* \"#utility.yul\":11567:11602   */\n      tag_170\n      jump\t// in\n    tag_294:\n        /* \"#utility.yul\":11554:11602   */\n      swap1\n      pop\n        /* \"#utility.yul\":11475:11608   */\n      swap2\n      swap1\n      pop\n      jump\t// out\n        /* \"#utility.yul\":11614:11763   */\n    tag_172:\n        /* \"#utility.yul\":11710:11756   */\n      tag_296\n        /* \"#utility.yul\":11750:11755   */\n      dup2\n        /* \"#utility.yul\":11710:11756   */\n      tag_171\n      jump\t// in\n    tag_296:\n        /* \"#utility.yul\":11705:11708   */\n      dup3\n        /* \"#utility.yul\":11698:11757   */\n      mstore\n        /* \"#utility.yul\":11614:11763   */\n      pop\n      pop\n      jump\t// out\n        /* \"#utility.yul\":11769:11884   */\n    tag_173:\n        /* \"#utility.yul\":11852:11853   */\n      0x03\n        /* \"#utility.yul\":11845:11850   */\n      dup2\n        /* \"#utility.yul\":11842:11854   */\n      lt\n        /* \"#utility.yul\":11832:11878   */\n      tag_298\n      jumpi\n        /* \"#utility.yul\":11858:11876   */\n      tag_299\n      tag_164\n      jump\t// in\n    tag_299:\n        /* \"#utility.yul\":11832:11878   */\n    tag_298:\n        /* \"#utility.yul\":11769:11884   */\n      pop\n      jump\t// out\n        /* \"#utility.yul\":11890:12021   */\n    tag_174:\n        /* \"#utility.yul\":11937:11944   */\n      0x00\n        /* \"#utility.yul\":11966:11971   */\n      dup2\n        /* \"#utility.yul\":11955:11971   */\n      swap1\n      pop\n        /* \"#utility.yul\":11972:12015   */\n      tag_301\n        /* \"#utility.yul\":12009:12014   */\n      dup3\n        /* \"#utility.yul\":11972:12015   */\n      tag_173\n      jump\t// in\n    tag_301:\n        /* \"#utility.yul\":11890:12021   */\n      swap2\n      swap1\n      pop\n      jump\t// out\n        /* \"#utility.yul\":12027:12158   */\n    tag_175:\n        /* \"#utility.yul\":12085:12094   */\n      0x00\n        /* \"#utility.yul\":12118:12152   */\n      tag_303\n        /* \"#utility.yul\":12146:12151   */\n      dup3\n        /* \"#utility.yul\":12118:12152   */\n      tag_174\n      jump\t// in\n    tag_303:\n        /* \"#utility.yul\":12105:12152   */\n      swap1\n      pop\n        /* \"#utility.yul\":12027:12158   */\n      swap2\n      swap1\n      pop\n      jump\t// out\n        /* \"#utility.yul\":12164:12311   */\n    tag_176:\n        /* \"#utility.yul\":12259:12304   */\n      tag_305\n        /* \"#utility.yul\":12298:12303   */\n      dup2\n        /* \"#utility.yul\":12259:12304   */\n      tag_175\n      jump\t// in\n    tag_305:\n        /* \"#utility.yul\":12254:12257   */\n      dup3\n        /* \"#utility.yul\":12247:12305   */\n      mstore\n        /* \"#utility.yul\":12164:12311   */\n      pop\n      pop\n      jump\t// out\n        /* \"#utility.yul\":12317:13821   */\n    tag_32:\n        /* \"#utility.yul\":12732:12736   */\n      0x00\n        /* \"#utility.yul\":12770:12773   */\n      0x0100\n        /* \"#utility.yul\":12759:12768   */\n      dup3\n        /* \"#utility.yul\":12755:12774   */\n      add\n        /* \"#utility.yul\":12747:12774   */\n      swap1\n      pop\n        /* \"#utility.yul\":12820:12829   */\n      dup2\n        /* \"#utility.yul\":12814:12818   */\n      dup2\n        /* \"#utility.yul\":12810:12830   */\n      sub\n        /* \"#utility.yul\":12806:12807   */\n      0x00\n        /* \"#utility.yul\":12795:12804   */\n      dup4\n        /* \"#utility.yul\":12791:12808   */\n      add\n        /* \"#utility.yul\":12784:12831   */\n      mstore\n        /* \"#utility.yul\":12848:12926   */\n      tag_307\n        /* \"#utility.yul\":12921:12925   */\n      dup2\n        /* \"#utility.yul\":12912:12918   */\n      dup12\n        /* \"#utility.yul\":12848:12926   */\n      tag_162\n      jump\t// in\n    tag_307:\n        /* \"#utility.yul\":12840:12926   */\n      swap1\n      pop\n        /* \"#utility.yul\":12973:12982   */\n      dup2\n        /* \"#utility.yul\":12967:12971   */\n      dup2\n        /* \"#utility.yul\":12963:12983   */\n      sub\n        /* \"#utility.yul\":12958:12960   */\n      0x20\n        /* \"#utility.yul\":12947:12956   */\n      dup4\n        /* \"#utility.yul\":12943:12961   */\n      add\n        /* \"#utility.yul\":12936:12984   */\n      mstore\n        /* \"#utility.yul\":13001:13079   */\n      tag_308\n        /* \"#utility.yul\":13074:13078   */\n      dup2\n        /* \"#utility.yul\":13065:13071   */\n      dup11\n        /* \"#utility.yul\":13001:13079   */\n      tag_162\n      jump\t// in\n    tag_308:\n        /* \"#utility.yul\":12993:13079   */\n      swap1\n      pop\n        /* \"#utility.yul\":13126:13135   */\n      dup2\n        /* \"#utility.yul\":13120:13124   */\n      dup2\n        /* \"#utility.yul\":13116:13136   */\n      sub\n        /* \"#utility.yul\":13111:13113   */\n      0x40\n        /* \"#utility.yul\":13100:13109   */\n      dup4\n        /* \"#utility.yul\":13096:13114   */\n      add\n        /* \"#utility.yul\":13089:13137   */\n      mstore\n        /* \"#utility.yul\":13154:13232   */\n      tag_309\n        /* \"#utility.yul\":13227:13231   */\n      dup2\n        /* \"#utility.yul\":13218:13224   */\n      dup10\n        /* \"#utility.yul\":13154:13232   */\n      tag_162\n      jump\t// in\n    tag_309:\n        /* \"#utility.yul\":13146:13232   */\n      swap1\n      pop\n        /* \"#utility.yul\":13279:13288   */\n      dup2\n        /* \"#utility.yul\":13273:13277   */\n      dup2\n        /* \"#utility.yul\":13269:13289   */\n      sub\n        /* \"#utility.yul\":13264:13266   */\n      0x60\n        /* \"#utility.yul\":13253:13262   */\n      dup4\n        /* \"#utility.yul\":13249:13267   */\n      add\n        /* \"#utility.yul\":13242:13290   */\n      mstore\n        /* \"#utility.yul\":13307:13385   */\n      tag_310\n        /* \"#utility.yul\":13380:13384   */\n      dup2\n        /* \"#utility.yul\":13371:13377   */\n      dup9\n        /* \"#utility.yul\":13307:13385   */\n      tag_162\n      jump\t// in\n    tag_310:\n        /* \"#utility.yul\":13299:13385   */\n      swap1\n      pop\n        /* \"#utility.yul\":13433:13442   */\n      dup2\n        /* \"#utility.yul\":13427:13431   */\n      dup2\n        /* \"#utility.yul\":13423:13443   */\n      sub\n        /* \"#utility.yul\":13417:13420   */\n      0x80\n        /* \"#utility.yul\":13406:13415   */\n      dup4\n        /* \"#utility.yul\":13402:13421   */\n      add\n        /* \"#utility.yul\":13395:13444   */\n      mstore\n        /* \"#utility.yul\":13461:13539   */\n      tag_311\n        /* \"#utility.yul\":13534:13538   */\n      dup2\n        /* \"#utility.yul\":13525:13531   */\n      dup8\n        /* \"#utility.yul\":13461:13539   */\n      tag_162\n      jump\t// in\n    tag_311:\n        /* \"#utility.yul\":13453:13539   */\n      swap1\n      pop\n        /* \"#utility.yul\":13549:13631   */\n      tag_312\n        /* \"#utility.yul\":13626:13629   */\n      0xa0\n        /* \"#utility.yul\":13615:13624   */\n      dup4\n        /* \"#utility.yul\":13611:13630   */\n      add\n        /* \"#utility.yul\":13602:13608   */\n      dup7\n        /* \"#utility.yul\":13549:13631   */\n      tag_168\n      jump\t// in\n    tag_312:\n        /* \"#utility.yul\":13641:13723   */\n      tag_313\n        /* \"#utility.yul\":13718:13721   */\n      0xc0\n        /* \"#utility.yul\":13707:13716   */\n      dup4\n        /* \"#utility.yul\":13703:13722   */\n      add\n        /* \"#utility.yul\":13694:13700   */\n      dup6\n        /* \"#utility.yul\":13641:13723   */\n      tag_172\n      jump\t// in\n    tag_313:\n        /* \"#utility.yul\":13733:13814   */\n      tag_314\n        /* \"#utility.yul\":13809:13812   */\n      0xe0\n        /* \"#utility.yul\":13798:13807   */\n      dup4\n        /* \"#utility.yul\":13794:13813   */\n      add\n        /* \"#utility.yul\":13785:13791   */\n      dup5\n        /* \"#utility.yul\":13733:13814   */\n      tag_176\n      jump\t// in\n    tag_314:\n        /* \"#utility.yul\":12317:13821   */\n      swap10\n      swap9\n      pop\n      pop\n      pop\n      pop\n      pop\n      pop\n      pop\n      pop\n      pop\n      jump\t// out\n        /* \"#utility.yul\":13827:14007   */\n    tag_177:\n        /* \"#utility.yul\":13875:13952   */\n      0x4e487b7100000000000000000000000000000000000000000000000000000000\n        /* \"#utility.yul\":13872:13873   */\n      0x00\n        /* \"#utility.yul\":13865:13953   */\n      mstore\n        /* \"#utility.yul\":13972:13976   */\n      0x22\n        /* \"#utility.yul\":13969:13970   */\n      0x04\n        /* \"#utility.yul\":13962:13977   */\n      mstore\n        /* \"#utility.yul\":13996:14000   */\n      0x24\n        /* \"#utility.yul\":13993:13994   */\n      0x00\n        /* \"#utility.yul\":13986:14001   */\n      revert\n        /* \"#utility.yul\":14013:14333   */\n    tag_40:\n        /* \"#utility.yul\":14057:14063   */\n      0x00\n        /* \"#utility.yul\":14094:14095   */\n      0x02\n        /* \"#utility.yul\":14088:14092   */\n      dup3\n        /* \"#utility.yul\":14084:14096   */\n      div\n        /* \"#utility.yul\":14074:14096   */\n      swap1\n      pop\n        /* \"#utility.yul\":14141:14142   */\n      0x01\n        /* \"#utility.yul\":14135:14139   */\n      dup3\n        /* \"#utility.yul\":14131:14143   */\n      and\n        /* \"#utility.yul\":14162:14180   */\n      dup1\n        /* \"#utility.yul\":14152:14233   */\n      tag_317\n      jumpi\n        /* \"#utility.yul\":14218:14222   */\n      0x7f\n        /* \"#utility.yul\":14210:14216   */\n      dup3\n        /* \"#utility.yul\":14206:14223   */\n      and\n        /* \"#utility.yul\":14196:14223   */\n      swap2\n      pop\n        /* \"#utility.yul\":14152:14233   */\n    tag_317:\n        /* \"#utility.yul\":14280:14282   */\n      0x20\n        /* \"#utility.yul\":14272:14278   */\n      dup3\n        /* \"#utility.yul\":14269:14283   */\n      lt\n        /* \"#utility.yul\":14249:14267   */\n      dup2\n        /* \"#utility.yul\":14246:14284   */\n      sub\n        /* \"#utility.yul\":14243:14327   */\n      tag_318\n      jumpi\n        /* \"#utility.yul\":14299:14317   */\n      tag_319\n      tag_177\n      jump\t// in\n    tag_319:\n        /* \"#utility.yul\":14243:14327   */\n    tag_318:\n        /* \"#utility.yul\":14064:14333   */\n      pop\n        /* \"#utility.yul\":14013:14333   */\n      swap2\n      swap1\n      pop\n      jump\t// out\n\n    auxdata: 0xa264697066735822122062a08cf474eecf406c88a31f2737f44ebffc99d45cc422259bb8f6acf174b18664736f6c634300080d0033\n}\n",
				"bytecode": {
					"linkReferences": {},
					"object": "608060405234801561001057600080fd5b5061148b806100206000396000f3fe608060405234801561001057600080fd5b50600436106100575760003560e01c806342654a391461005c578063615b816b146100785780636cc91d59146100ac578063834ee2e4146100e0578063b7eb51cc14610113575b600080fd5b61007660048036038101906100719190610fb8565b61014a565b005b610092600480360381019061008d9190611043565b6101e4565b6040516100a3959493929190611107565b60405180910390f35b6100c660048036038101906100c19190611043565b61043a565b6040516100d7959493929190611176565b60405180910390f35b6100fa60048036038101906100f59190611043565b610718565b60405161010a94939291906111ec565b60405180910390f35b61012d60048036038101906101289190611043565b610968565b604051610141989796959493929190611354565b60405180910390f35b8260016000838152602001908152602001600020600082015181600001908051906020019061017a929190610c7f565b506020820151816001019080519060200190610197929190610c7f565b506040820151816002015560608201518160030190805190602001906101be929190610c7f565b5060808201518160040190805190602001906101db929190610c7f565b50905050505050565b600160205280600052604060002060009150905080600001805461020790611424565b80601f016020809104026020016040519081016040528092919081815260200182805461023390611424565b80156102805780601f1061025557610100808354040283529160200191610280565b820191906000526020600020905b81548152906001019060200180831161026357829003601f168201915b50505050509080600101805461029590611424565b80601f01602080910402602001604051908101604052809291908181526020018280546102c190611424565b801561030e5780601f106102e35761010080835404028352916020019161030e565b820191906000526020600020905b8154815290600101906020018083116102f157829003601f168201915b50505050509080600201549080600301805461032990611424565b80601f016020809104026020016040519081016040528092919081815260200182805461035590611424565b80156103a25780601f10610377576101008083540402835291602001916103a2565b820191906000526020600020905b81548152906001019060200180831161038557829003601f168201915b5050505050908060040180546103b790611424565b80601f01602080910402602001604051908101604052809291908181526020018280546103e390611424565b80156104305780601f1061040557610100808354040283529160200191610430565b820191906000526020600020905b81548152906001019060200180831161041357829003601f168201915b5050505050905085565b600060205280600052604060002060009150905080600001805461045d90611424565b80601f016020809104026020016040519081016040528092919081815260200182805461048990611424565b80156104d65780601f106104ab576101008083540402835291602001916104d6565b820191906000526020600020905b8154815290600101906020018083116104b957829003601f168201915b5050505050908060010180546104eb90611424565b80601f016020809104026020016040519081016040528092919081815260200182805461051790611424565b80156105645780601f1061053957610100808354040283529160200191610564565b820191906000526020600020905b81548152906001019060200180831161054757829003601f168201915b50505050509080600201805461057990611424565b80601f01602080910402602001604051908101604052809291908181526020018280546105a590611424565b80156105f25780601f106105c7576101008083540402835291602001916105f2565b820191906000526020600020905b8154815290600101906020018083116105d557829003601f168201915b50505050509080600301805461060790611424565b80601f016020809104026020016040519081016040528092919081815260200182805461063390611424565b80156106805780601f1061065557610100808354040283529160200191610680565b820191906000526020600020905b81548152906001019060200180831161066357829003601f168201915b50505050509080600401805461069590611424565b80601f01602080910402602001604051908101604052809291908181526020018280546106c190611424565b801561070e5780601f106106e35761010080835404028352916020019161070e565b820191906000526020600020905b8154815290600101906020018083116106f157829003601f168201915b5050505050905085565b600360205280600052604060002060009150905080600001805461073b90611424565b80601f016020809104026020016040519081016040528092919081815260200182805461076790611424565b80156107b45780601f10610789576101008083540402835291602001916107b4565b820191906000526020600020905b81548152906001019060200180831161079757829003601f168201915b5050505050908060010180546107c990611424565b80601f01602080910402602001604051908101604052809291908181526020018280546107f590611424565b80156108425780601f1061081757610100808354040283529160200191610842565b820191906000526020600020905b81548152906001019060200180831161082557829003601f168201915b50505050509080600201805461085790611424565b80601f016020809104026020016040519081016040528092919081815260200182805461088390611424565b80156108d05780601f106108a5576101008083540402835291602001916108d0565b820191906000526020600020905b8154815290600101906020018083116108b357829003601f168201915b5050505050908060030180546108e590611424565b80601f016020809104026020016040519081016040528092919081815260200182805461091190611424565b801561095e5780601f106109335761010080835404028352916020019161095e565b820191906000526020600020905b81548152906001019060200180831161094157829003601f168201915b5050505050905084565b600260205280600052604060002060009150905080600001805461098b90611424565b80601f01602080910402602001604051908101604052809291908181526020018280546109b790611424565b8015610a045780601f106109d957610100808354040283529160200191610a04565b820191906000526020600020905b8154815290600101906020018083116109e757829003601f168201915b505050505090806001018054610a1990611424565b80601f0160208091040260200160405190810160405280929190818152602001828054610a4590611424565b8015610a925780601f10610a6757610100808354040283529160200191610a92565b820191906000526020600020905b815481529060010190602001808311610a7557829003601f168201915b505050505090806002018054610aa790611424565b80601f0160208091040260200160405190810160405280929190818152602001828054610ad390611424565b8015610b205780601f10610af557610100808354040283529160200191610b20565b820191906000526020600020905b815481529060010190602001808311610b0357829003601f168201915b505050505090806003018054610b3590611424565b80601f0160208091040260200160405190810160405280929190818152602001828054610b6190611424565b8015610bae5780601f10610b8357610100808354040283529160200191610bae565b820191906000526020600020905b815481529060010190602001808311610b9157829003601f168201915b505050505090806004018054610bc390611424565b80601f0160208091040260200160405190810160405280929190818152602001828054610bef90611424565b8015610c3c5780601f10610c1157610100808354040283529160200191610c3c565b820191906000526020600020905b815481529060010190602001808311610c1f57829003601f168201915b5050505050908060050160009054906101000a900460ff16908060050160019054906101000a900460ff16908060050160029054906101000a900460ff16905088565b828054610c8b90611424565b90600052602060002090601f016020900481019282610cad5760008555610cf4565b82601f10610cc657805160ff1916838001178555610cf4565b82800160010185558215610cf4579182015b82811115610cf3578251825591602001919060010190610cd8565b5b509050610d019190610d05565b5090565b5b80821115610d1e576000816000905550600101610d06565b5090565b6000604051905090565b600080fd5b600080fd5b600080fd5b6000601f19601f8301169050919050565b7f4e487b7100000000000000000000000000000000000000000000000000000000600052604160045260246000fd5b610d8482610d3b565b810181811067ffffffffffffffff82111715610da357610da2610d4c565b5b80604052505050565b6000610db6610d22565b9050610dc28282610d7b565b919050565b600080fd5b600080fd5b600080fd5b600067ffffffffffffffff821115610df157610df0610d4c565b5b610dfa82610d3b565b9050602081019050919050565b82818337600083830152505050565b6000610e29610e2484610dd6565b610dac565b905082815260208101848484011115610e4557610e44610dd1565b5b610e50848285610e07565b509392505050565b600082601f830112610e6d57610e6c610dcc565b5b8135610e7d848260208601610e16565b91505092915050565b6000819050919050565b610e9981610e86565b8114610ea457600080fd5b50565b600081359050610eb681610e90565b92915050565b600060a08284031215610ed257610ed1610d36565b5b610edc60a0610dac565b9050600082013567ffffffffffffffff811115610efc57610efb610dc7565b5b610f0884828501610e58565b600083015250602082013567ffffffffffffffff811115610f2c57610f2b610dc7565b5b610f3884828501610e58565b6020830152506040610f4c84828501610ea7565b604083015250606082013567ffffffffffffffff811115610f7057610f6f610dc7565b5b610f7c84828501610e58565b606083015250608082013567ffffffffffffffff811115610fa057610f9f610dc7565b5b610fac84828501610e58565b60808301525092915050565b600080600060608486031215610fd157610fd0610d2c565b5b600084013567ffffffffffffffff811115610fef57610fee610d31565b5b610ffb86828701610ebc565b935050602084013567ffffffffffffffff81111561101c5761101b610d31565b5b61102886828701610e58565b925050604061103986828701610ea7565b9150509250925092565b60006020828403121561105957611058610d2c565b5b600061106784828501610ea7565b91505092915050565b600081519050919050565b600082825260208201905092915050565b60005b838110156110aa57808201518184015260208101905061108f565b838111156110b9576000848401525b50505050565b60006110ca82611070565b6110d4818561107b565b93506110e481856020860161108c565b6110ed81610d3b565b840191505092915050565b61110181610e86565b82525050565b600060a082019050818103600083015261112181886110bf565b9050818103602083015261113581876110bf565b905061114460408301866110f8565b818103606083015261115681856110bf565b9050818103608083015261116a81846110bf565b90509695505050505050565b600060a082019050818103600083015261119081886110bf565b905081810360208301526111a481876110bf565b905081810360408301526111b881866110bf565b905081810360608301526111cc81856110bf565b905081810360808301526111e081846110bf565b90509695505050505050565b6000608082019050818103600083015261120681876110bf565b9050818103602083015261121a81866110bf565b9050818103604083015261122e81856110bf565b9050818103606083015261124281846110bf565b905095945050505050565b7f4e487b7100000000000000000000000000000000000000000000000000000000600052602160045260246000fd5b6004811061128d5761128c61124d565b5b50565b600081905061129e8261127c565b919050565b60006112ae82611290565b9050919050565b6112be816112a3565b82525050565b600381106112d5576112d461124d565b5b50565b60008190506112e6826112c4565b919050565b60006112f6826112d8565b9050919050565b611306816112eb565b82525050565b6003811061131d5761131c61124d565b5b50565b600081905061132e8261130c565b919050565b600061133e82611320565b9050919050565b61134e81611333565b82525050565b600061010082019050818103600083015261136f818b6110bf565b90508181036020830152611383818a6110bf565b9050818103604083015261139781896110bf565b905081810360608301526113ab81886110bf565b905081810360808301526113bf81876110bf565b90506113ce60a08301866112b5565b6113db60c08301856112fd565b6113e860e0830184611345565b9998505050505050505050565b7f4e487b7100000000000000000000000000000000000000000000000000000000600052602260045260246000fd5b6000600282049050600182168061143c57607f821691505b60208210810361144f5761144e6113f5565b5b5091905056fea264697066735822122062a08cf474eecf406c88a31f2737f44ebffc99d45cc422259bb8f6acf174b18664736f6c634300080d0033",
					"opcodes": "PUSH1 0x80 PUSH1 0x40 MSTORE CALLVALUE DUP1 ISZERO PUSH2 0x10 JUMPI PUSH1 0x0 DUP1 REVERT JUMPDEST POP PUSH2 0x148B DUP1 PUSH2 0x20 PUSH1 0x0 CODECOPY PUSH1 0x0 RETURN INVALID PUSH1 0x80 PUSH1 0x40 MSTORE CALLVALUE DUP1 ISZERO PUSH2 0x10 JUMPI PUSH1 0x0 DUP1 REVERT JUMPDEST POP PUSH1 0x4 CALLDATASIZE LT PUSH2 0x57 JUMPI PUSH1 0x0 CALLDATALOAD PUSH1 0xE0 SHR DUP1 PUSH4 0x42654A39 EQ PUSH2 0x5C JUMPI DUP1 PUSH4 0x615B816B EQ PUSH2 0x78 JUMPI DUP1 PUSH4 0x6CC91D59 EQ PUSH2 0xAC JUMPI DUP1 PUSH4 0x834EE2E4 EQ PUSH2 0xE0 JUMPI DUP1 PUSH4 0xB7EB51CC EQ PUSH2 0x113 JUMPI JUMPDEST PUSH1 0x0 DUP1 REVERT JUMPDEST PUSH2 0x76 PUSH1 0x4 DUP1 CALLDATASIZE SUB DUP2 ADD SWAP1 PUSH2 0x71 SWAP2 SWAP1 PUSH2 0xFB8 JUMP JUMPDEST PUSH2 0x14A JUMP JUMPDEST STOP JUMPDEST PUSH2 0x92 PUSH1 0x4 DUP1 CALLDATASIZE SUB DUP2 ADD SWAP1 PUSH2 0x8D SWAP2 SWAP1 PUSH2 0x1043 JUMP JUMPDEST PUSH2 0x1E4 JUMP JUMPDEST PUSH1 0x40 MLOAD PUSH2 0xA3 SWAP6 SWAP5 SWAP4 SWAP3 SWAP2 SWAP1 PUSH2 0x1107 JUMP JUMPDEST PUSH1 0x40 MLOAD DUP1 SWAP2 SUB SWAP1 RETURN JUMPDEST PUSH2 0xC6 PUSH1 0x4 DUP1 CALLDATASIZE SUB DUP2 ADD SWAP1 PUSH2 0xC1 SWAP2 SWAP1 PUSH2 0x1043 JUMP JUMPDEST PUSH2 0x43A JUMP JUMPDEST PUSH1 0x40 MLOAD PUSH2 0xD7 SWAP6 SWAP5 SWAP4 SWAP3 SWAP2 SWAP1 PUSH2 0x1176 JUMP JUMPDEST PUSH1 0x40 MLOAD DUP1 SWAP2 SUB SWAP1 RETURN JUMPDEST PUSH2 0xFA PUSH1 0x4 DUP1 CALLDATASIZE SUB DUP2 ADD SWAP1 PUSH2 0xF5 SWAP2 SWAP1 PUSH2 0x1043 JUMP JUMPDEST PUSH2 0x718 JUMP JUMPDEST PUSH1 0x40 MLOAD PUSH2 0x10A SWAP5 SWAP4 SWAP3 SWAP2 SWAP1 PUSH2 0x11EC JUMP JUMPDEST PUSH1 0x40 MLOAD DUP1 SWAP2 SUB SWAP1 RETURN JUMPDEST PUSH2 0x12D PUSH1 0x4 DUP1 CALLDATASIZE SUB DUP2 ADD SWAP1 PUSH2 0x128 SWAP2 SWAP1 PUSH2 0x1043 JUMP JUMPDEST PUSH2 0x968 JUMP JUMPDEST PUSH1 0x40 MLOAD PUSH2 0x141 SWAP9 SWAP8 SWAP7 SWAP6 SWAP5 SWAP4 SWAP3 SWAP2 SWAP1 PUSH2 0x1354 JUMP JUMPDEST PUSH1 0x40 MLOAD DUP1 SWAP2 SUB SWAP1 RETURN JUMPDEST DUP3 PUSH1 0x1 PUSH1 0x0 DUP4 DUP2 MSTORE PUSH1 0x20 ADD SWAP1 DUP2 MSTORE PUSH1 0x20 ADD PUSH1 0x0 KECCAK256 PUSH1 0x0 DUP3 ADD MLOAD DUP2 PUSH1 0x0 ADD SWAP1 DUP1 MLOAD SWAP1 PUSH1 0x20 ADD SWAP1 PUSH2 0x17A SWAP3 SWAP2 SWAP1 PUSH2 0xC7F JUMP JUMPDEST POP PUSH1 0x20 DUP3 ADD MLOAD DUP2 PUSH1 0x1 ADD SWAP1 DUP1 MLOAD SWAP1 PUSH1 0x20 ADD SWAP1 PUSH2 0x197 SWAP3 SWAP2 SWAP1 PUSH2 0xC7F JUMP JUMPDEST POP PUSH1 0x40 DUP3 ADD MLOAD DUP2 PUSH1 0x2 ADD SSTORE PUSH1 0x60 DUP3 ADD MLOAD DUP2 PUSH1 0x3 ADD SWAP1 DUP1 MLOAD SWAP1 PUSH1 0x20 ADD SWAP1 PUSH2 0x1BE SWAP3 SWAP2 SWAP1 PUSH2 0xC7F JUMP JUMPDEST POP PUSH1 0x80 DUP3 ADD MLOAD DUP2 PUSH1 0x4 ADD SWAP1 DUP1 MLOAD SWAP1 PUSH1 0x20 ADD SWAP1 PUSH2 0x1DB SWAP3 SWAP2 SWAP1 PUSH2 0xC7F JUMP JUMPDEST POP SWAP1 POP POP POP POP POP JUMP JUMPDEST PUSH1 0x1 PUSH1 0x20 MSTORE DUP1 PUSH1 0x0 MSTORE PUSH1 0x40 PUSH1 0x0 KECCAK256 PUSH1 0x0 SWAP2 POP SWAP1 POP DUP1 PUSH1 0x0 ADD DUP1 SLOAD PUSH2 0x207 SWAP1 PUSH2 0x1424 JUMP JUMPDEST DUP1 PUSH1 0x1F ADD PUSH1 0x20 DUP1 SWAP2 DIV MUL PUSH1 0x20 ADD PUSH1 0x40 MLOAD SWAP1 DUP2 ADD PUSH1 0x40 MSTORE DUP1 SWAP3 SWAP2 SWAP1 DUP2 DUP2 MSTORE PUSH1 0x20 ADD DUP3 DUP1 SLOAD PUSH2 0x233 SWAP1 PUSH2 0x1424 JUMP JUMPDEST DUP1 ISZERO PUSH2 0x280 JUMPI DUP1 PUSH1 0x1F LT PUSH2 0x255 JUMPI PUSH2 0x100 DUP1 DUP4 SLOAD DIV MUL DUP4 MSTORE SWAP2 PUSH1 0x20 ADD SWAP2 PUSH2 0x280 JUMP JUMPDEST DUP3 ADD SWAP2 SWAP1 PUSH1 0x0 MSTORE PUSH1 0x20 PUSH1 0x0 KECCAK256 SWAP1 JUMPDEST DUP2 SLOAD DUP2 MSTORE SWAP1 PUSH1 0x1 ADD SWAP1 PUSH1 0x20 ADD DUP1 DUP4 GT PUSH2 0x263 JUMPI DUP3 SWAP1 SUB PUSH1 0x1F AND DUP3 ADD SWAP2 JUMPDEST POP POP POP POP POP SWAP1 DUP1 PUSH1 0x1 ADD DUP1 SLOAD PUSH2 0x295 SWAP1 PUSH2 0x1424 JUMP JUMPDEST DUP1 PUSH1 0x1F ADD PUSH1 0x20 DUP1 SWAP2 DIV MUL PUSH1 0x20 ADD PUSH1 0x40 MLOAD SWAP1 DUP2 ADD PUSH1 0x40 MSTORE DUP1 SWAP3 SWAP2 SWAP1 DUP2 DUP2 MSTORE PUSH1 0x20 ADD DUP3 DUP1 SLOAD PUSH2 0x2C1 SWAP1 PUSH2 0x1424 JUMP JUMPDEST DUP1 ISZERO PUSH2 0x30E JUMPI DUP1 PUSH1 0x1F LT PUSH2 0x2E3 JUMPI PUSH2 0x100 DUP1 DUP4 SLOAD DIV MUL DUP4 MSTORE SWAP2 PUSH1 0x20 ADD SWAP2 PUSH2 0x30E JUMP JUMPDEST DUP3 ADD SWAP2 SWAP1 PUSH1 0x0 MSTORE PUSH1 0x20 PUSH1 0x0 KECCAK256 SWAP1 JUMPDEST DUP2 SLOAD DUP2 MSTORE SWAP1 PUSH1 0x1 ADD SWAP1 PUSH1 0x20 ADD DUP1 DUP4 GT PUSH2 0x2F1 JUMPI DUP3 SWAP1 SUB PUSH1 0x1F AND DUP3 ADD SWAP2 JUMPDEST POP POP POP POP POP SWAP1 DUP1 PUSH1 0x2 ADD SLOAD SWAP1 DUP1 PUSH1 0x3 ADD DUP1 SLOAD PUSH2 0x329 SWAP1 PUSH2 0x1424 JUMP JUMPDEST DUP1 PUSH1 0x1F ADD PUSH1 0x20 DUP1 SWAP2 DIV MUL PUSH1 0x20 ADD PUSH1 0x40 MLOAD SWAP1 DUP2 ADD PUSH1 0x40 MSTORE DUP1 SWAP3 SWAP2 SWAP1 DUP2 DUP2 MSTORE PUSH1 0x20 ADD DUP3 DUP1 SLOAD PUSH2 0x355 SWAP1 PUSH2 0x1424 JUMP JUMPDEST DUP1 ISZERO PUSH2 0x3A2 JUMPI DUP1 PUSH1 0x1F LT PUSH2 0x377 JUMPI PUSH2 0x100 DUP1 DUP4 SLOAD DIV MUL DUP4 MSTORE SWAP2 PUSH1 0x20 ADD SWAP2 PUSH2 0x3A2 JUMP JUMPDEST DUP3 ADD SWAP2 SWAP1 PUSH1 0x0 MSTORE PUSH1 0x20 PUSH1 0x0 KECCAK256 SWAP1 JUMPDEST DUP2 SLOAD DUP2 MSTORE SWAP1 PUSH1 0x1 ADD SWAP1 PUSH1 0x20 ADD DUP1 DUP4 GT PUSH2 0x385 JUMPI DUP3 SWAP1 SUB PUSH1 0x1F AND DUP3 ADD SWAP2 JUMPDEST POP POP POP POP POP SWAP1 DUP1 PUSH1 0x4 ADD DUP1 SLOAD PUSH2 0x3B7 SWAP1 PUSH2 0x1424 JUMP JUMPDEST DUP1 PUSH1 0x1F ADD PUSH1 0x20 DUP1 SWAP2 DIV MUL PUSH1 0x20 ADD PUSH1 0x40 MLOAD SWAP1 DUP2 ADD PUSH1 0x40 MSTORE DUP1 SWAP3 SWAP2 SWAP1 DUP2 DUP2 MSTORE PUSH1 0x20 ADD DUP3 DUP1 SLOAD PUSH2 0x3E3 SWAP1 PUSH2 0x1424 JUMP JUMPDEST DUP1 ISZERO PUSH2 0x430 JUMPI DUP1 PUSH1 0x1F LT PUSH2 0x405 JUMPI PUSH2 0x100 DUP1 DUP4 SLOAD DIV MUL DUP4 MSTORE SWAP2 PUSH1 0x20 ADD SWAP2 PUSH2 0x430 JUMP JUMPDEST DUP3 ADD SWAP2 SWAP1 PUSH1 0x0 MSTORE PUSH1 0x20 PUSH1 0x0 KECCAK256 SWAP1 JUMPDEST DUP2 SLOAD DUP2 MSTORE SWAP1 PUSH1 0x1 ADD SWAP1 PUSH1 0x20 ADD DUP1 DUP4 GT PUSH2 0x413 JUMPI DUP3 SWAP1 SUB PUSH1 0x1F AND DUP3 ADD SWAP2 JUMPDEST POP POP POP POP POP SWAP1 POP DUP6 JUMP JUMPDEST PUSH1 0x0 PUSH1 0x20 MSTORE DUP1 PUSH1 0x0 MSTORE PUSH1 0x40 PUSH1 0x0 KECCAK256 PUSH1 0x0 SWAP2 POP SWAP1 POP DUP1 PUSH1 0x0 ADD DUP1 SLOAD PUSH2 0x45D SWAP1 PUSH2 0x1424 JUMP JUMPDEST DUP1 PUSH1 0x1F ADD PUSH1 0x20 DUP1 SWAP2 DIV MUL PUSH1 0x20 ADD PUSH1 0x40 MLOAD SWAP1 DUP2 ADD PUSH1 0x40 MSTORE DUP1 SWAP3 SWAP2 SWAP1 DUP2 DUP2 MSTORE PUSH1 0x20 ADD DUP3 DUP1 SLOAD PUSH2 0x489 SWAP1 PUSH2 0x1424 JUMP JUMPDEST DUP1 ISZERO PUSH2 0x4D6 JUMPI DUP1 PUSH1 0x1F LT PUSH2 0x4AB JUMPI PUSH2 0x100 DUP1 DUP4 SLOAD DIV MUL DUP4 MSTORE SWAP2 PUSH1 0x20 ADD SWAP2 PUSH2 0x4D6 JUMP JUMPDEST DUP3 ADD SWAP2 SWAP1 PUSH1 0x0 MSTORE PUSH1 0x20 PUSH1 0x0 KECCAK256 SWAP1 JUMPDEST DUP2 SLOAD DUP2 MSTORE SWAP1 PUSH1 0x1 ADD SWAP1 PUSH1 0x20 ADD DUP1 DUP4 GT PUSH2 0x4B9 JUMPI DUP3 SWAP1 SUB PUSH1 0x1F AND DUP3 ADD SWAP2 JUMPDEST POP POP POP POP POP SWAP1 DUP1 PUSH1 0x1 ADD DUP1 SLOAD PUSH2 0x4EB SWAP1 PUSH2 0x1424 JUMP JUMPDEST DUP1 PUSH1 0x1F ADD PUSH1 0x20 DUP1 SWAP2 DIV MUL PUSH1 0x20 ADD PUSH1 0x40 MLOAD SWAP1 DUP2 ADD PUSH1 0x40 MSTORE DUP1 SWAP3 SWAP2 SWAP1 DUP2 DUP2 MSTORE PUSH1 0x20 ADD DUP3 DUP1 SLOAD PUSH2 0x517 SWAP1 PUSH2 0x1424 JUMP JUMPDEST DUP1 ISZERO PUSH2 0x564 JUMPI DUP1 PUSH1 0x1F LT PUSH2 0x539 JUMPI PUSH2 0x100 DUP1 DUP4 SLOAD DIV MUL DUP4 MSTORE SWAP2 PUSH1 0x20 ADD SWAP2 PUSH2 0x564 JUMP JUMPDEST DUP3 ADD SWAP2 SWAP1 PUSH1 0x0 MSTORE PUSH1 0x20 PUSH1 0x0 KECCAK256 SWAP1 JUMPDEST DUP2 SLOAD DUP2 MSTORE SWAP1 PUSH1 0x1 ADD SWAP1 PUSH1 0x20 ADD DUP1 DUP4 GT PUSH2 0x547 JUMPI DUP3 SWAP1 SUB PUSH1 0x1F AND DUP3 ADD SWAP2 JUMPDEST POP POP POP POP POP SWAP1 DUP1 PUSH1 0x2 ADD DUP1 SLOAD PUSH2 0x579 SWAP1 PUSH2 0x1424 JUMP JUMPDEST DUP1 PUSH1 0x1F ADD PUSH1 0x20 DUP1 SWAP2 DIV MUL PUSH1 0x20 ADD PUSH1 0x40 MLOAD SWAP1 DUP2 ADD PUSH1 0x40 MSTORE DUP1 SWAP3 SWAP2 SWAP1 DUP2 DUP2 MSTORE PUSH1 0x20 ADD DUP3 DUP1 SLOAD PUSH2 0x5A5 SWAP1 PUSH2 0x1424 JUMP JUMPDEST DUP1 ISZERO PUSH2 0x5F2 JUMPI DUP1 PUSH1 0x1F LT PUSH2 0x5C7 JUMPI PUSH2 0x100 DUP1 DUP4 SLOAD DIV MUL DUP4 MSTORE SWAP2 PUSH1 0x20 ADD SWAP2 PUSH2 0x5F2 JUMP JUMPDEST DUP3 ADD SWAP2 SWAP1 PUSH1 0x0 MSTORE PUSH1 0x20 PUSH1 0x0 KECCAK256 SWAP1 JUMPDEST DUP2 SLOAD DUP2 MSTORE SWAP1 PUSH1 0x1 ADD SWAP1 PUSH1 0x20 ADD DUP1 DUP4 GT PUSH2 0x5D5 JUMPI DUP3 SWAP1 SUB PUSH1 0x1F AND DUP3 ADD SWAP2 JUMPDEST POP POP POP POP POP SWAP1 DUP1 PUSH1 0x3 ADD DUP1 SLOAD PUSH2 0x607 SWAP1 PUSH2 0x1424 JUMP JUMPDEST DUP1 PUSH1 0x1F ADD PUSH1 0x20 DUP1 SWAP2 DIV MUL PUSH1 0x20 ADD PUSH1 0x40 MLOAD SWAP1 DUP2 ADD PUSH1 0x40 MSTORE DUP1 SWAP3 SWAP2 SWAP1 DUP2 DUP2 MSTORE PUSH1 0x20 ADD DUP3 DUP1 SLOAD PUSH2 0x633 SWAP1 PUSH2 0x1424 JUMP JUMPDEST DUP1 ISZERO PUSH2 0x680 JUMPI DUP1 PUSH1 0x1F LT PUSH2 0x655 JUMPI PUSH2 0x100 DUP1 DUP4 SLOAD DIV MUL DUP4 MSTORE SWAP2 PUSH1 0x20 ADD SWAP2 PUSH2 0x680 JUMP JUMPDEST DUP3 ADD SWAP2 SWAP1 PUSH1 0x0 MSTORE PUSH1 0x20 PUSH1 0x0 KECCAK256 SWAP1 JUMPDEST DUP2 SLOAD DUP2 MSTORE SWAP1 PUSH1 0x1 ADD SWAP1 PUSH1 0x20 ADD DUP1 DUP4 GT PUSH2 0x663 JUMPI DUP3 SWAP1 SUB PUSH1 0x1F AND DUP3 ADD SWAP2 JUMPDEST POP POP POP POP POP SWAP1 DUP1 PUSH1 0x4 ADD DUP1 SLOAD PUSH2 0x695 SWAP1 PUSH2 0x1424 JUMP JUMPDEST DUP1 PUSH1 0x1F ADD PUSH1 0x20 DUP1 SWAP2 DIV MUL PUSH1 0x20 ADD PUSH1 0x40 MLOAD SWAP1 DUP2 ADD PUSH1 0x40 MSTORE DUP1 SWAP3 SWAP2 SWAP1 DUP2 DUP2 MSTORE PUSH1 0x20 ADD DUP3 DUP1 SLOAD PUSH2 0x6C1 SWAP1 PUSH2 0x1424 JUMP JUMPDEST DUP1 ISZERO PUSH2 0x70E JUMPI DUP1 PUSH1 0x1F LT PUSH2 0x6E3 JUMPI PUSH2 0x100 DUP1 DUP4 SLOAD DIV MUL DUP4 MSTORE SWAP2 PUSH1 0x20 ADD SWAP2 PUSH2 0x70E JUMP JUMPDEST DUP3 ADD SWAP2 SWAP1 PUSH1 0x0 MSTORE PUSH1 0x20 PUSH1 0x0 KECCAK256 SWAP1 JUMPDEST DUP2 SLOAD DUP2 MSTORE SWAP1 PUSH1 0x1 ADD SWAP1 PUSH1 0x20 ADD DUP1 DUP4 GT PUSH2 0x6F1 JUMPI DUP3 SWAP1 SUB PUSH1 0x1F AND DUP3 ADD SWAP2 JUMPDEST POP POP POP POP POP SWAP1 POP DUP6 JUMP JUMPDEST PUSH1 0x3 PUSH1 0x20 MSTORE DUP1 PUSH1 0x0 MSTORE PUSH1 0x40 PUSH1 0x0 KECCAK256 PUSH1 0x0 SWAP2 POP SWAP1 POP DUP1 PUSH1 0x0 ADD DUP1 SLOAD PUSH2 0x73B SWAP1 PUSH2 0x1424 JUMP JUMPDEST DUP1 PUSH1 0x1F ADD PUSH1 0x20 DUP1 SWAP2 DIV MUL PUSH1 0x20 ADD PUSH1 0x40 MLOAD SWAP1 DUP2 ADD PUSH1 0x40 MSTORE DUP1 SWAP3 SWAP2 SWAP1 DUP2 DUP2 MSTORE PUSH1 0x20 ADD DUP3 DUP1 SLOAD PUSH2 0x767 SWAP1 PUSH2 0x1424 JUMP JUMPDEST DUP1 ISZERO PUSH2 0x7B4 JUMPI DUP1 PUSH1 0x1F LT PUSH2 0x789 JUMPI PUSH2 0x100 DUP1 DUP4 SLOAD DIV MUL DUP4 MSTORE SWAP2 PUSH1 0x20 ADD SWAP2 PUSH2 0x7B4 JUMP JUMPDEST DUP3 ADD SWAP2 SWAP1 PUSH1 0x0 MSTORE PUSH1 0x20 PUSH1 0x0 KECCAK256 SWAP1 JUMPDEST DUP2 SLOAD DUP2 MSTORE SWAP1 PUSH1 0x1 ADD SWAP1 PUSH1 0x20 ADD DUP1 DUP4 GT PUSH2 0x797 JUMPI DUP3 SWAP1 SUB PUSH1 0x1F AND DUP3 ADD SWAP2 JUMPDEST POP POP POP POP POP SWAP1 DUP1 PUSH1 0x1 ADD DUP1 SLOAD PUSH2 0x7C9 SWAP1 PUSH2 0x1424 JUMP JUMPDEST DUP1 PUSH1 0x1F ADD PUSH1 0x20 DUP1 SWAP2 DIV MUL PUSH1 0x20 ADD PUSH1 0x40 MLOAD SWAP1 DUP2 ADD PUSH1 0x40 MSTORE DUP1 SWAP3 SWAP2 SWAP1 DUP2 DUP2 MSTORE PUSH1 0x20 ADD DUP3 DUP1 SLOAD PUSH2 0x7F5 SWAP1 PUSH2 0x1424 JUMP JUMPDEST DUP1 ISZERO PUSH2 0x842 JUMPI DUP1 PUSH1 0x1F LT PUSH2 0x817 JUMPI PUSH2 0x100 DUP1 DUP4 SLOAD DIV MUL DUP4 MSTORE SWAP2 PUSH1 0x20 ADD SWAP2 PUSH2 0x842 JUMP JUMPDEST DUP3 ADD SWAP2 SWAP1 PUSH1 0x0 MSTORE PUSH1 0x20 PUSH1 0x0 KECCAK256 SWAP1 JUMPDEST DUP2 SLOAD DUP2 MSTORE SWAP1 PUSH1 0x1 ADD SWAP1 PUSH1 0x20 ADD DUP1 DUP4 GT PUSH2 0x825 JUMPI DUP3 SWAP1 SUB PUSH1 0x1F AND DUP3 ADD SWAP2 JUMPDEST POP POP POP POP POP SWAP1 DUP1 PUSH1 0x2 ADD DUP1 SLOAD PUSH2 0x857 SWAP1 PUSH2 0x1424 JUMP JUMPDEST DUP1 PUSH1 0x1F ADD PUSH1 0x20 DUP1 SWAP2 DIV MUL PUSH1 0x20 ADD PUSH1 0x40 MLOAD SWAP1 DUP2 ADD PUSH1 0x40 MSTORE DUP1 SWAP3 SWAP2 SWAP1 DUP2 DUP2 MSTORE PUSH1 0x20 ADD DUP3 DUP1 SLOAD PUSH2 0x883 SWAP1 PUSH2 0x1424 JUMP JUMPDEST DUP1 ISZERO PUSH2 0x8D0 JUMPI DUP1 PUSH1 0x1F LT PUSH2 0x8A5 JUMPI PUSH2 0x100 DUP1 DUP4 SLOAD DIV MUL DUP4 MSTORE SWAP2 PUSH1 0x20 ADD SWAP2 PUSH2 0x8D0 JUMP JUMPDEST DUP3 ADD SWAP2 SWAP1 PUSH1 0x0 MSTORE PUSH1 0x20 PUSH1 0x0 KECCAK256 SWAP1 JUMPDEST DUP2 SLOAD DUP2 MSTORE SWAP1 PUSH1 0x1 ADD SWAP1 PUSH1 0x20 ADD DUP1 DUP4 GT PUSH2 0x8B3 JUMPI DUP3 SWAP1 SUB PUSH1 0x1F AND DUP3 ADD SWAP2 JUMPDEST POP POP POP POP POP SWAP1 DUP1 PUSH1 0x3 ADD DUP1 SLOAD PUSH2 0x8E5 SWAP1 PUSH2 0x1424 JUMP JUMPDEST DUP1 PUSH1 0x1F ADD PUSH1 0x20 DUP1 SWAP2 DIV MUL PUSH1 0x20 ADD PUSH1 0x40 MLOAD SWAP1 DUP2 ADD PUSH1 0x40 MSTORE DUP1 SWAP3 SWAP2 SWAP1 DUP2 DUP2 MSTORE PUSH1 0x20 ADD DUP3 DUP1 SLOAD PUSH2 0x911 SWAP1 PUSH2 0x1424 JUMP JUMPDEST DUP1 ISZERO PUSH2 0x95E JUMPI DUP1 PUSH1 0x1F LT PUSH2 0x933 JUMPI PUSH2 0x100 DUP1 DUP4 SLOAD DIV MUL DUP4 MSTORE SWAP2 PUSH1 0x20 ADD SWAP2 PUSH2 0x95E JUMP JUMPDEST DUP3 ADD SWAP2 SWAP1 PUSH1 0x0 MSTORE PUSH1 0x20 PUSH1 0x0 KECCAK256 SWAP1 JUMPDEST DUP2 SLOAD DUP2 MSTORE SWAP1 PUSH1 0x1 ADD SWAP1 PUSH1 0x20 ADD DUP1 DUP4 GT PUSH2 0x941 JUMPI DUP3 SWAP1 SUB PUSH1 0x1F AND DUP3 ADD SWAP2 JUMPDEST POP POP POP POP POP SWAP1 POP DUP5 JUMP JUMPDEST PUSH1 0x2 PUSH1 0x20 MSTORE DUP1 PUSH1 0x0 MSTORE PUSH1 0x40 PUSH1 0x0 KECCAK256 PUSH1 0x0 SWAP2 POP SWAP1 POP DUP1 PUSH1 0x0 ADD DUP1 SLOAD PUSH2 0x98B SWAP1 PUSH2 0x1424 JUMP JUMPDEST DUP1 PUSH1 0x1F ADD PUSH1 0x20 DUP1 SWAP2 DIV MUL PUSH1 0x20 ADD PUSH1 0x40 MLOAD SWAP1 DUP2 ADD PUSH1 0x40 MSTORE DUP1 SWAP3 SWAP2 SWAP1 DUP2 DUP2 MSTORE PUSH1 0x20 ADD DUP3 DUP1 SLOAD PUSH2 0x9B7 SWAP1 PUSH2 0x1424 JUMP JUMPDEST DUP1 ISZERO PUSH2 0xA04 JUMPI DUP1 PUSH1 0x1F LT PUSH2 0x9D9 JUMPI PUSH2 0x100 DUP1 DUP4 SLOAD DIV MUL DUP4 MSTORE SWAP2 PUSH1 0x20 ADD SWAP2 PUSH2 0xA04 JUMP JUMPDEST DUP3 ADD SWAP2 SWAP1 PUSH1 0x0 MSTORE PUSH1 0x20 PUSH1 0x0 KECCAK256 SWAP1 JUMPDEST DUP2 SLOAD DUP2 MSTORE SWAP1 PUSH1 0x1 ADD SWAP1 PUSH1 0x20 ADD DUP1 DUP4 GT PUSH2 0x9E7 JUMPI DUP3 SWAP1 SUB PUSH1 0x1F AND DUP3 ADD SWAP2 JUMPDEST POP POP POP POP POP SWAP1 DUP1 PUSH1 0x1 ADD DUP1 SLOAD PUSH2 0xA19 SWAP1 PUSH2 0x1424 JUMP JUMPDEST DUP1 PUSH1 0x1F ADD PUSH1 0x20 DUP1 SWAP2 DIV MUL PUSH1 0x20 ADD PUSH1 0x40 MLOAD SWAP1 DUP2 ADD PUSH1 0x40 MSTORE DUP1 SWAP3 SWAP2 SWAP1 DUP2 DUP2 MSTORE PUSH1 0x20 ADD DUP3 DUP1 SLOAD PUSH2 0xA45 SWAP1 PUSH2 0x1424 JUMP JUMPDEST DUP1 ISZERO PUSH2 0xA92 JUMPI DUP1 PUSH1 0x1F LT PUSH2 0xA67 JUMPI PUSH2 0x100 DUP1 DUP4 SLOAD DIV MUL DUP4 MSTORE SWAP2 PUSH1 0x20 ADD SWAP2 PUSH2 0xA92 JUMP JUMPDEST DUP3 ADD SWAP2 SWAP1 PUSH1 0x0 MSTORE PUSH1 0x20 PUSH1 0x0 KECCAK256 SWAP1 JUMPDEST DUP2 SLOAD DUP2 MSTORE SWAP1 PUSH1 0x1 ADD SWAP1 PUSH1 0x20 ADD DUP1 DUP4 GT PUSH2 0xA75 JUMPI DUP3 SWAP1 SUB PUSH1 0x1F AND DUP3 ADD SWAP2 JUMPDEST POP POP POP POP POP SWAP1 DUP1 PUSH1 0x2 ADD DUP1 SLOAD PUSH2 0xAA7 SWAP1 PUSH2 0x1424 JUMP JUMPDEST DUP1 PUSH1 0x1F ADD PUSH1 0x20 DUP1 SWAP2 DIV MUL PUSH1 0x20 ADD PUSH1 0x40 MLOAD SWAP1 DUP2 ADD PUSH1 0x40 MSTORE DUP1 SWAP3 SWAP2 SWAP1 DUP2 DUP2 MSTORE PUSH1 0x20 ADD DUP3 DUP1 SLOAD PUSH2 0xAD3 SWAP1 PUSH2 0x1424 JUMP JUMPDEST DUP1 ISZERO PUSH2 0xB20 JUMPI DUP1 PUSH1 0x1F LT PUSH2 0xAF5 JUMPI PUSH2 0x100 DUP1 DUP4 SLOAD DIV MUL DUP4 MSTORE SWAP2 PUSH1 0x20 ADD SWAP2 PUSH2 0xB20 JUMP JUMPDEST DUP3 ADD SWAP2 SWAP1 PUSH1 0x0 MSTORE PUSH1 0x20 PUSH1 0x0 KECCAK256 SWAP1 JUMPDEST DUP2 SLOAD DUP2 MSTORE SWAP1 PUSH1 0x1 ADD SWAP1 PUSH1 0x20 ADD DUP1 DUP4 GT PUSH2 0xB03 JUMPI DUP3 SWAP1 SUB PUSH1 0x1F AND DUP3 ADD SWAP2 JUMPDEST POP POP POP POP POP SWAP1 DUP1 PUSH1 0x3 ADD DUP1 SLOAD PUSH2 0xB35 SWAP1 PUSH2 0x1424 JUMP JUMPDEST DUP1 PUSH1 0x1F ADD PUSH1 0x20 DUP1 SWAP2 DIV MUL PUSH1 0x20 ADD PUSH1 0x40 MLOAD SWAP1 DUP2 ADD PUSH1 0x40 MSTORE DUP1 SWAP3 SWAP2 SWAP1 DUP2 DUP2 MSTORE PUSH1 0x20 ADD DUP3 DUP1 SLOAD PUSH2 0xB61 SWAP1 PUSH2 0x1424 JUMP JUMPDEST DUP1 ISZERO PUSH2 0xBAE JUMPI DUP1 PUSH1 0x1F LT PUSH2 0xB83 JUMPI PUSH2 0x100 DUP1 DUP4 SLOAD DIV MUL DUP4 MSTORE SWAP2 PUSH1 0x20 ADD SWAP2 PUSH2 0xBAE JUMP JUMPDEST DUP3 ADD SWAP2 SWAP1 PUSH1 0x0 MSTORE PUSH1 0x20 PUSH1 0x0 KECCAK256 SWAP1 JUMPDEST DUP2 SLOAD DUP2 MSTORE SWAP1 PUSH1 0x1 ADD SWAP1 PUSH1 0x20 ADD DUP1 DUP4 GT PUSH2 0xB91 JUMPI DUP3 SWAP1 SUB PUSH1 0x1F AND DUP3 ADD SWAP2 JUMPDEST POP POP POP POP POP SWAP1 DUP1 PUSH1 0x4 ADD DUP1 SLOAD PUSH2 0xBC3 SWAP1 PUSH2 0x1424 JUMP JUMPDEST DUP1 PUSH1 0x1F ADD PUSH1 0x20 DUP1 SWAP2 DIV MUL PUSH1 0x20 ADD PUSH1 0x40 MLOAD SWAP1 DUP2 ADD PUSH1 0x40 MSTORE DUP1 SWAP3 SWAP2 SWAP1 DUP2 DUP2 MSTORE PUSH1 0x20 ADD DUP3 DUP1 SLOAD PUSH2 0xBEF SWAP1 PUSH2 0x1424 JUMP JUMPDEST DUP1 ISZERO PUSH2 0xC3C JUMPI DUP1 PUSH1 0x1F LT PUSH2 0xC11 JUMPI PUSH2 0x100 DUP1 DUP4 SLOAD DIV MUL DUP4 MSTORE SWAP2 PUSH1 0x20 ADD SWAP2 PUSH2 0xC3C JUMP JUMPDEST DUP3 ADD SWAP2 SWAP1 PUSH1 0x0 MSTORE PUSH1 0x20 PUSH1 0x0 KECCAK256 SWAP1 JUMPDEST DUP2 SLOAD DUP2 MSTORE SWAP1 PUSH1 0x1 ADD SWAP1 PUSH1 0x20 ADD DUP1 DUP4 GT PUSH2 0xC1F JUMPI DUP3 SWAP1 SUB PUSH1 0x1F AND DUP3 ADD SWAP2 JUMPDEST POP POP POP POP POP SWAP1 DUP1 PUSH1 0x5 ADD PUSH1 0x0 SWAP1 SLOAD SWAP1 PUSH2 0x100 EXP SWAP1 DIV PUSH1 0xFF AND SWAP1 DUP1 PUSH1 0x5 ADD PUSH1 0x1 SWAP1 SLOAD SWAP1 PUSH2 0x100 EXP SWAP1 DIV PUSH1 0xFF AND SWAP1 DUP1 PUSH1 0x5 ADD PUSH1 0x2 SWAP1 SLOAD SWAP1 PUSH2 0x100 EXP SWAP1 DIV PUSH1 0xFF AND SWAP1 POP DUP9 JUMP JUMPDEST DUP3 DUP1 SLOAD PUSH2 0xC8B SWAP1 PUSH2 0x1424 JUMP JUMPDEST SWAP1 PUSH1 0x0 MSTORE PUSH1 0x20 PUSH1 0x0 KECCAK256 SWAP1 PUSH1 0x1F ADD PUSH1 0x20 SWAP1 DIV DUP2 ADD SWAP3 DUP3 PUSH2 0xCAD JUMPI PUSH1 0x0 DUP6 SSTORE PUSH2 0xCF4 JUMP JUMPDEST DUP3 PUSH1 0x1F LT PUSH2 0xCC6 JUMPI DUP1 MLOAD PUSH1 0xFF NOT AND DUP4 DUP1 ADD OR DUP6 SSTORE PUSH2 0xCF4 JUMP JUMPDEST DUP3 DUP1 ADD PUSH1 0x1 ADD DUP6 SSTORE DUP3 ISZERO PUSH2 0xCF4 JUMPI SWAP2 DUP3 ADD JUMPDEST DUP3 DUP2 GT ISZERO PUSH2 0xCF3 JUMPI DUP3 MLOAD DUP3 SSTORE SWAP2 PUSH1 0x20 ADD SWAP2 SWAP1 PUSH1 0x1 ADD SWAP1 PUSH2 0xCD8 JUMP JUMPDEST JUMPDEST POP SWAP1 POP PUSH2 0xD01 SWAP2 SWAP1 PUSH2 0xD05 JUMP JUMPDEST POP SWAP1 JUMP JUMPDEST JUMPDEST DUP1 DUP3 GT ISZERO PUSH2 0xD1E JUMPI PUSH1 0x0 DUP2 PUSH1 0x0 SWAP1 SSTORE POP PUSH1 0x1 ADD PUSH2 0xD06 JUMP JUMPDEST POP SWAP1 JUMP JUMPDEST PUSH1 0x0 PUSH1 0x40 MLOAD SWAP1 POP SWAP1 JUMP JUMPDEST PUSH1 0x0 DUP1 REVERT JUMPDEST PUSH1 0x0 DUP1 REVERT JUMPDEST PUSH1 0x0 DUP1 REVERT JUMPDEST PUSH1 0x0 PUSH1 0x1F NOT PUSH1 0x1F DUP4 ADD AND SWAP1 POP SWAP2 SWAP1 POP JUMP JUMPDEST PUSH32 0x4E487B7100000000000000000000000000000000000000000000000000000000 PUSH1 0x0 MSTORE PUSH1 0x41 PUSH1 0x4 MSTORE PUSH1 0x24 PUSH1 0x0 REVERT JUMPDEST PUSH2 0xD84 DUP3 PUSH2 0xD3B JUMP JUMPDEST DUP2 ADD DUP2 DUP2 LT PUSH8 0xFFFFFFFFFFFFFFFF DUP3 GT OR ISZERO PUSH2 0xDA3 JUMPI PUSH2 0xDA2 PUSH2 0xD4C JUMP JUMPDEST JUMPDEST DUP1 PUSH1 0x40 MSTORE POP POP POP JUMP JUMPDEST PUSH1 0x0 PUSH2 0xDB6 PUSH2 0xD22 JUMP JUMPDEST SWAP1 POP PUSH2 0xDC2 DUP3 DUP3 PUSH2 0xD7B JUMP JUMPDEST SWAP2 SWAP1 POP JUMP JUMPDEST PUSH1 0x0 DUP1 REVERT JUMPDEST PUSH1 0x0 DUP1 REVERT JUMPDEST PUSH1 0x0 DUP1 REVERT JUMPDEST PUSH1 0x0 PUSH8 0xFFFFFFFFFFFFFFFF DUP3 GT ISZERO PUSH2 0xDF1 JUMPI PUSH2 0xDF0 PUSH2 0xD4C JUMP JUMPDEST JUMPDEST PUSH2 0xDFA DUP3 PUSH2 0xD3B JUMP JUMPDEST SWAP1 POP PUSH1 0x20 DUP2 ADD SWAP1 POP SWAP2 SWAP1 POP JUMP JUMPDEST DUP3 DUP2 DUP4 CALLDATACOPY PUSH1 0x0 DUP4 DUP4 ADD MSTORE POP POP POP JUMP JUMPDEST PUSH1 0x0 PUSH2 0xE29 PUSH2 0xE24 DUP5 PUSH2 0xDD6 JUMP JUMPDEST PUSH2 0xDAC JUMP JUMPDEST SWAP1 POP DUP3 DUP2 MSTORE PUSH1 0x20 DUP2 ADD DUP5 DUP5 DUP5 ADD GT ISZERO PUSH2 0xE45 JUMPI PUSH2 0xE44 PUSH2 0xDD1 JUMP JUMPDEST JUMPDEST PUSH2 0xE50 DUP5 DUP3 DUP6 PUSH2 0xE07 JUMP JUMPDEST POP SWAP4 SWAP3 POP POP POP JUMP JUMPDEST PUSH1 0x0 DUP3 PUSH1 0x1F DUP4 ADD SLT PUSH2 0xE6D JUMPI PUSH2 0xE6C PUSH2 0xDCC JUMP JUMPDEST JUMPDEST DUP2 CALLDATALOAD PUSH2 0xE7D DUP5 DUP3 PUSH1 0x20 DUP7 ADD PUSH2 0xE16 JUMP JUMPDEST SWAP2 POP POP SWAP3 SWAP2 POP POP JUMP JUMPDEST PUSH1 0x0 DUP2 SWAP1 POP SWAP2 SWAP1 POP JUMP JUMPDEST PUSH2 0xE99 DUP2 PUSH2 0xE86 JUMP JUMPDEST DUP2 EQ PUSH2 0xEA4 JUMPI PUSH1 0x0 DUP1 REVERT JUMPDEST POP JUMP JUMPDEST PUSH1 0x0 DUP2 CALLDATALOAD SWAP1 POP PUSH2 0xEB6 DUP2 PUSH2 0xE90 JUMP JUMPDEST SWAP3 SWAP2 POP POP JUMP JUMPDEST PUSH1 0x0 PUSH1 0xA0 DUP3 DUP5 SUB SLT ISZERO PUSH2 0xED2 JUMPI PUSH2 0xED1 PUSH2 0xD36 JUMP JUMPDEST JUMPDEST PUSH2 0xEDC PUSH1 0xA0 PUSH2 0xDAC JUMP JUMPDEST SWAP1 POP PUSH1 0x0 DUP3 ADD CALLDATALOAD PUSH8 0xFFFFFFFFFFFFFFFF DUP2 GT ISZERO PUSH2 0xEFC JUMPI PUSH2 0xEFB PUSH2 0xDC7 JUMP JUMPDEST JUMPDEST PUSH2 0xF08 DUP5 DUP3 DUP6 ADD PUSH2 0xE58 JUMP JUMPDEST PUSH1 0x0 DUP4 ADD MSTORE POP PUSH1 0x20 DUP3 ADD CALLDATALOAD PUSH8 0xFFFFFFFFFFFFFFFF DUP2 GT ISZERO PUSH2 0xF2C JUMPI PUSH2 0xF2B PUSH2 0xDC7 JUMP JUMPDEST JUMPDEST PUSH2 0xF38 DUP5 DUP3 DUP6 ADD PUSH2 0xE58 JUMP JUMPDEST PUSH1 0x20 DUP4 ADD MSTORE POP PUSH1 0x40 PUSH2 0xF4C DUP5 DUP3 DUP6 ADD PUSH2 0xEA7 JUMP JUMPDEST PUSH1 0x40 DUP4 ADD MSTORE POP PUSH1 0x60 DUP3 ADD CALLDATALOAD PUSH8 0xFFFFFFFFFFFFFFFF DUP2 GT ISZERO PUSH2 0xF70 JUMPI PUSH2 0xF6F PUSH2 0xDC7 JUMP JUMPDEST JUMPDEST PUSH2 0xF7C DUP5 DUP3 DUP6 ADD PUSH2 0xE58 JUMP JUMPDEST PUSH1 0x60 DUP4 ADD MSTORE POP PUSH1 0x80 DUP3 ADD CALLDATALOAD PUSH8 0xFFFFFFFFFFFFFFFF DUP2 GT ISZERO PUSH2 0xFA0 JUMPI PUSH2 0xF9F PUSH2 0xDC7 JUMP JUMPDEST JUMPDEST PUSH2 0xFAC DUP5 DUP3 DUP6 ADD PUSH2 0xE58 JUMP JUMPDEST PUSH1 0x80 DUP4 ADD MSTORE POP SWAP3 SWAP2 POP POP JUMP JUMPDEST PUSH1 0x0 DUP1 PUSH1 0x0 PUSH1 0x60 DUP5 DUP7 SUB SLT ISZERO PUSH2 0xFD1 JUMPI PUSH2 0xFD0 PUSH2 0xD2C JUMP JUMPDEST JUMPDEST PUSH1 0x0 DUP5 ADD CALLDATALOAD PUSH8 0xFFFFFFFFFFFFFFFF DUP2 GT ISZERO PUSH2 0xFEF JUMPI PUSH2 0xFEE PUSH2 0xD31 JUMP JUMPDEST JUMPDEST PUSH2 0xFFB DUP7 DUP3 DUP8 ADD PUSH2 0xEBC JUMP JUMPDEST SWAP4 POP POP PUSH1 0x20 DUP5 ADD CALLDATALOAD PUSH8 0xFFFFFFFFFFFFFFFF DUP2 GT ISZERO PUSH2 0x101C JUMPI PUSH2 0x101B PUSH2 0xD31 JUMP JUMPDEST JUMPDEST PUSH2 0x1028 DUP7 DUP3 DUP8 ADD PUSH2 0xE58 JUMP JUMPDEST SWAP3 POP POP PUSH1 0x40 PUSH2 0x1039 DUP7 DUP3 DUP8 ADD PUSH2 0xEA7 JUMP JUMPDEST SWAP2 POP POP SWAP3 POP SWAP3 POP SWAP3 JUMP JUMPDEST PUSH1 0x0 PUSH1 0x20 DUP3 DUP5 SUB SLT ISZERO PUSH2 0x1059 JUMPI PUSH2 0x1058 PUSH2 0xD2C JUMP JUMPDEST JUMPDEST PUSH1 0x0 PUSH2 0x1067 DUP5 DUP3 DUP6 ADD PUSH2 0xEA7 JUMP JUMPDEST SWAP2 POP POP SWAP3 SWAP2 POP POP JUMP JUMPDEST PUSH1 0x0 DUP2 MLOAD SWAP1 POP SWAP2 SWAP1 POP JUMP JUMPDEST PUSH1 0x0 DUP3 DUP3 MSTORE PUSH1 0x20 DUP3 ADD SWAP1 POP SWAP3 SWAP2 POP POP JUMP JUMPDEST PUSH1 0x0 JUMPDEST DUP4 DUP2 LT ISZERO PUSH2 0x10AA JUMPI DUP1 DUP3 ADD MLOAD DUP2 DUP5 ADD MSTORE PUSH1 0x20 DUP2 ADD SWAP1 POP PUSH2 0x108F JUMP JUMPDEST DUP4 DUP2 GT ISZERO PUSH2 0x10B9 JUMPI PUSH1 0x0 DUP5 DUP5 ADD MSTORE JUMPDEST POP POP POP POP JUMP JUMPDEST PUSH1 0x0 PUSH2 0x10CA DUP3 PUSH2 0x1070 JUMP JUMPDEST PUSH2 0x10D4 DUP2 DUP6 PUSH2 0x107B JUMP JUMPDEST SWAP4 POP PUSH2 0x10E4 DUP2 DUP6 PUSH1 0x20 DUP7 ADD PUSH2 0x108C JUMP JUMPDEST PUSH2 0x10ED DUP2 PUSH2 0xD3B JUMP JUMPDEST DUP5 ADD SWAP2 POP POP SWAP3 SWAP2 POP POP JUMP JUMPDEST PUSH2 0x1101 DUP2 PUSH2 0xE86 JUMP JUMPDEST DUP3 MSTORE POP POP JUMP JUMPDEST PUSH1 0x0 PUSH1 0xA0 DUP3 ADD SWAP1 POP DUP2 DUP2 SUB PUSH1 0x0 DUP4 ADD MSTORE PUSH2 0x1121 DUP2 DUP9 PUSH2 0x10BF JUMP JUMPDEST SWAP1 POP DUP2 DUP2 SUB PUSH1 0x20 DUP4 ADD MSTORE PUSH2 0x1135 DUP2 DUP8 PUSH2 0x10BF JUMP JUMPDEST SWAP1 POP PUSH2 0x1144 PUSH1 0x40 DUP4 ADD DUP7 PUSH2 0x10F8 JUMP JUMPDEST DUP2 DUP2 SUB PUSH1 0x60 DUP4 ADD MSTORE PUSH2 0x1156 DUP2 DUP6 PUSH2 0x10BF JUMP JUMPDEST SWAP1 POP DUP2 DUP2 SUB PUSH1 0x80 DUP4 ADD MSTORE PUSH2 0x116A DUP2 DUP5 PUSH2 0x10BF JUMP JUMPDEST SWAP1 POP SWAP7 SWAP6 POP POP POP POP POP POP JUMP JUMPDEST PUSH1 0x0 PUSH1 0xA0 DUP3 ADD SWAP1 POP DUP2 DUP2 SUB PUSH1 0x0 DUP4 ADD MSTORE PUSH2 0x1190 DUP2 DUP9 PUSH2 0x10BF JUMP JUMPDEST SWAP1 POP DUP2 DUP2 SUB PUSH1 0x20 DUP4 ADD MSTORE PUSH2 0x11A4 DUP2 DUP8 PUSH2 0x10BF JUMP JUMPDEST SWAP1 POP DUP2 DUP2 SUB PUSH1 0x40 DUP4 ADD MSTORE PUSH2 0x11B8 DUP2 DUP7 PUSH2 0x10BF JUMP JUMPDEST SWAP1 POP DUP2 DUP2 SUB PUSH1 0x60 DUP4 ADD MSTORE PUSH2 0x11CC DUP2 DUP6 PUSH2 0x10BF JUMP JUMPDEST SWAP1 POP DUP2 DUP2 SUB PUSH1 0x80 DUP4 ADD MSTORE PUSH2 0x11E0 DUP2 DUP5 PUSH2 0x10BF JUMP JUMPDEST SWAP1 POP SWAP7 SWAP6 POP POP POP POP POP POP JUMP JUMPDEST PUSH1 0x0 PUSH1 0x80 DUP3 ADD SWAP1 POP DUP2 DUP2 SUB PUSH1 0x0 DUP4 ADD MSTORE PUSH2 0x1206 DUP2 DUP8 PUSH2 0x10BF JUMP JUMPDEST SWAP1 POP DUP2 DUP2 SUB PUSH1 0x20 DUP4 ADD MSTORE PUSH2 0x121A DUP2 DUP7 PUSH2 0x10BF JUMP JUMPDEST SWAP1 POP DUP2 DUP2 SUB PUSH1 0x40 DUP4 ADD MSTORE PUSH2 0x122E DUP2 DUP6 PUSH2 0x10BF JUMP JUMPDEST SWAP1 POP DUP2 DUP2 SUB PUSH1 0x60 DUP4 ADD MSTORE PUSH2 0x1242 DUP2 DUP5 PUSH2 0x10BF JUMP JUMPDEST SWAP1 POP SWAP6 SWAP5 POP POP POP POP POP JUMP JUMPDEST PUSH32 0x4E487B7100000000000000000000000000000000000000000000000000000000 PUSH1 0x0 MSTORE PUSH1 0x21 PUSH1 0x4 MSTORE PUSH1 0x24 PUSH1 0x0 REVERT JUMPDEST PUSH1 0x4 DUP2 LT PUSH2 0x128D JUMPI PUSH2 0x128C PUSH2 0x124D JUMP JUMPDEST JUMPDEST POP JUMP JUMPDEST PUSH1 0x0 DUP2 SWAP1 POP PUSH2 0x129E DUP3 PUSH2 0x127C JUMP JUMPDEST SWAP2 SWAP1 POP JUMP JUMPDEST PUSH1 0x0 PUSH2 0x12AE DUP3 PUSH2 0x1290 JUMP JUMPDEST SWAP1 POP SWAP2 SWAP1 POP JUMP JUMPDEST PUSH2 0x12BE DUP2 PUSH2 0x12A3 JUMP JUMPDEST DUP3 MSTORE POP POP JUMP JUMPDEST PUSH1 0x3 DUP2 LT PUSH2 0x12D5 JUMPI PUSH2 0x12D4 PUSH2 0x124D JUMP JUMPDEST JUMPDEST POP JUMP JUMPDEST PUSH1 0x0 DUP2 SWAP1 POP PUSH2 0x12E6 DUP3 PUSH2 0x12C4 JUMP JUMPDEST SWAP2 SWAP1 POP JUMP JUMPDEST PUSH1 0x0 PUSH2 0x12F6 DUP3 PUSH2 0x12D8 JUMP JUMPDEST SWAP1 POP SWAP2 SWAP1 POP JUMP JUMPDEST PUSH2 0x1306 DUP2 PUSH2 0x12EB JUMP JUMPDEST DUP3 MSTORE POP POP JUMP JUMPDEST PUSH1 0x3 DUP2 LT PUSH2 0x131D JUMPI PUSH2 0x131C PUSH2 0x124D JUMP JUMPDEST JUMPDEST POP JUMP JUMPDEST PUSH1 0x0 DUP2 SWAP1 POP PUSH2 0x132E DUP3 PUSH2 0x130C JUMP JUMPDEST SWAP2 SWAP1 POP JUMP JUMPDEST PUSH1 0x0 PUSH2 0x133E DUP3 PUSH2 0x1320 JUMP JUMPDEST SWAP1 POP SWAP2 SWAP1 POP JUMP JUMPDEST PUSH2 0x134E DUP2 PUSH2 0x1333 JUMP JUMPDEST DUP3 MSTORE POP POP JUMP JUMPDEST PUSH1 0x0 PUSH2 0x100 DUP3 ADD SWAP1 POP DUP2 DUP2 SUB PUSH1 0x0 DUP4 ADD MSTORE PUSH2 0x136F DUP2 DUP12 PUSH2 0x10BF JUMP JUMPDEST SWAP1 POP DUP2 DUP2 SUB PUSH1 0x20 DUP4 ADD MSTORE PUSH2 0x1383 DUP2 DUP11 PUSH2 0x10BF JUMP JUMPDEST SWAP1 POP DUP2 DUP2 SUB PUSH1 0x40 DUP4 ADD MSTORE PUSH2 0x1397 DUP2 DUP10 PUSH2 0x10BF JUMP JUMPDEST SWAP1 POP DUP2 DUP2 SUB PUSH1 0x60 DUP4 ADD MSTORE PUSH2 0x13AB DUP2 DUP9 PUSH2 0x10BF JUMP JUMPDEST SWAP1 POP DUP2 DUP2 SUB PUSH1 0x80 DUP4 ADD MSTORE PUSH2 0x13BF DUP2 DUP8 PUSH2 0x10BF JUMP JUMPDEST SWAP1 POP PUSH2 0x13CE PUSH1 0xA0 DUP4 ADD DUP7 PUSH2 0x12B5 JUMP JUMPDEST PUSH2 0x13DB PUSH1 0xC0 DUP4 ADD DUP6 PUSH2 0x12FD JUMP JUMPDEST PUSH2 0x13E8 PUSH1 0xE0 DUP4 ADD DUP5 PUSH2 0x1345 JUMP JUMPDEST SWAP10 SWAP9 POP POP POP POP POP POP POP POP POP JUMP JUMPDEST PUSH32 0x4E487B7100000000000000000000000000000000000000000000000000000000 PUSH1 0x0 MSTORE PUSH1 0x22 PUSH1 0x4 MSTORE PUSH1 0x24 PUSH1 0x0 REVERT JUMPDEST PUSH1 0x0 PUSH1 0x2 DUP3 DIV SWAP1 POP PUSH1 0x1 DUP3 AND DUP1 PUSH2 0x143C JUMPI PUSH1 0x7F DUP3 AND SWAP2 POP JUMPDEST PUSH1 0x20 DUP3 LT DUP2 SUB PUSH2 0x144F JUMPI PUSH2 0x144E PUSH2 0x13F5 JUMP JUMPDEST JUMPDEST POP SWAP2 SWAP1 POP JUMP INVALID LOG2 PUSH5 0x6970667358 0x22 SLT KECCAK256 PUSH3 0xA08CF4 PUSH21 0xEECF406C88A31F2737F44EBFFC99D45CC422259BB8 0xF6 0xAC CALL PUSH21 0xB18664736F6C634300080D00330000000000000000 "
				},
				"gasEstimates": {
					"creation": {
						"codeDepositCost": "1051800",
						"executionCost": "1094",
						"totalCost": "1052894"
					},
					"external": {
						"availableJobs(uint256)": "infinite",
						"jobCandidates(uint256)": "infinite",
						"jobRecruiters(uint256)": "infinite",
						"jobSeekers(uint256)": "infinite",
						"registerJobSeeker((string,string,uint256,string,string),string,uint256)": "infinite"
					}
				},
				"methodIdentifiers": {
					"availableJobs(uint256)": "b7eb51cc",
					"jobCandidates(uint256)": "834ee2e4",
					"jobRecruiters(uint256)": "6cc91d59",
					"jobSeekers(uint256)": "615b816b",
					"registerJobSeeker((string,string,uint256,string,string),string,uint256)": "42654a39"
				}
			},
			"storageLayout": {
				"storage": [
					{
						"astId": 73,
						"contract": "contracts/jobPortal.sol:jobPortal",
						"label": "jobRecruiters",
						"offset": 0,
						"slot": "0",
						"type": "t_mapping(t_uint256,t_struct(jobRecruiter)28_storage)"
					},
					{
						"astId": 78,
						"contract": "contracts/jobPortal.sol:jobPortal",
						"label": "jobSeekers",
						"offset": 0,
						"slot": "1",
						"type": "t_mapping(t_uint256,t_struct(jobSeeker)39_storage)"
					},
					{
						"astId": 83,
						"contract": "contracts/jobPortal.sol:jobPortal",
						"label": "availableJobs",
						"offset": 0,
						"slot": "2",
						"type": "t_mapping(t_uint256,t_struct(availableJob)59_storage)"
					},
					{
						"astId": 88,
						"contract": "contracts/jobPortal.sol:jobPortal",
						"label": "jobCandidates",
						"offset": 0,
						"slot": "3",
						"type": "t_mapping(t_uint256,t_struct(jobCandidate)68_storage)"
					}
				],
				"types": {
					"t_enum(jobStatus)9": {
						"encoding": "inplace",
						"label": "enum jobPortal.jobStatus",
						"numberOfBytes": "1"
					},
					"t_enum(jobType)17": {
						"encoding": "inplace",
						"label": "enum jobPortal.jobType",
						"numberOfBytes": "1"
					},
					"t_enum(workSite)13": {
						"encoding": "inplace",
						"label": "enum jobPortal.workSite",
						"numberOfBytes": "1"
					},
					"t_mapping(t_uint256,t_struct(availableJob)59_storage)": {
						"encoding": "mapping",
						"key": "t_uint256",
						"label": "mapping(uint256 => struct jobPortal.availableJob)",
						"numberOfBytes": "32",
						"value": "t_struct(availableJob)59_storage"
					},
					"t_mapping(t_uint256,t_struct(jobCandidate)68_storage)": {
						"encoding": "mapping",
						"key": "t_uint256",
						"label": "mapping(uint256 => struct jobPortal.jobCandidate)",
						"numberOfBytes": "32",
						"value": "t_struct(jobCandidate)68_storage"
					},
					"t_mapping(t_uint256,t_struct(jobRecruiter)28_storage)": {
						"encoding": "mapping",
						"key": "t_uint256",
						"label": "mapping(uint256 => struct jobPortal.jobRecruiter)",
						"numberOfBytes": "32",
						"value": "t_struct(jobRecruiter)28_storage"
					},
					"t_mapping(t_uint256,t_struct(jobSeeker)39_storage)": {
						"encoding": "mapping",
						"key": "t_uint256",
						"label": "mapping(uint256 => struct jobPortal.jobSeeker)",
						"numberOfBytes": "32",
						"value": "t_struct(jobSeeker)39_storage"
					},
					"t_string_storage": {
						"encoding": "bytes",
						"label": "string",
						"numberOfBytes": "32"
					},
					"t_struct(availableJob)59_storage": {
						"encoding": "inplace",
						"label": "struct jobPortal.availableJob",
						"members": [
							{
								"astId": 41,
								"contract": "contracts/jobPortal.sol:jobPortal",
								"label": "positionID",
								"offset": 0,
								"slot": "0",
								"type": "t_string_storage"
							},
							{
								"astId": 43,
								"contract": "contracts/jobPortal.sol:jobPortal",
								"label": "positionTitle",
								"offset": 0,
								"slot": "1",
								"type": "t_string_storage"
							},
							{
								"astId": 45,
								"contract": "contracts/jobPortal.sol:jobPortal",
								"label": "recuiter",
								"offset": 0,
								"slot": "2",
								"type": "t_string_storage"
							},
							{
								"astId": 47,
								"contract": "contracts/jobPortal.sol:jobPortal",
								"label": "positionDescription",
								"offset": 0,
								"slot": "3",
								"type": "t_string_storage"
							},
							{
								"astId": 49,
								"contract": "contracts/jobPortal.sol:jobPortal",
								"label": "positionRequirements",
								"offset": 0,
								"slot": "4",
								"type": "t_string_storage"
							},
							{
								"astId": 52,
								"contract": "contracts/jobPortal.sol:jobPortal",
								"label": "_jobStatus",
								"offset": 0,
								"slot": "5",
								"type": "t_enum(jobStatus)9"
							},
							{
								"astId": 55,
								"contract": "contracts/jobPortal.sol:jobPortal",
								"label": "_workSite",
								"offset": 1,
								"slot": "5",
								"type": "t_enum(workSite)13"
							},
							{
								"astId": 58,
								"contract": "contracts/jobPortal.sol:jobPortal",
								"label": "_jobType",
								"offset": 2,
								"slot": "5",
								"type": "t_enum(jobType)17"
							}
						],
						"numberOfBytes": "192"
					},
					"t_struct(jobCandidate)68_storage": {
						"encoding": "inplace",
						"label": "struct jobPortal.jobCandidate",
						"members": [
							{
								"astId": 61,
								"contract": "contracts/jobPortal.sol:jobPortal",
								"label": "positionID",
								"offset": 0,
								"slot": "0",
								"type": "t_string_storage"
							},
							{
								"astId": 63,
								"contract": "contracts/jobPortal.sol:jobPortal",
								"label": "candidateAddress",
								"offset": 0,
								"slot": "1",
								"type": "t_string_storage"
							},
							{
								"astId": 65,
								"contract": "contracts/jobPortal.sol:jobPortal",
								"label": "appliedDate",
								"offset": 0,
								"slot": "2",
								"type": "t_string_storage"
							},
							{
								"astId": 67,
								"contract": "contracts/jobPortal.sol:jobPortal",
								"label": "jobSeekerID",
								"offset": 0,
								"slot": "3",
								"type": "t_string_storage"
							}
						],
						"numberOfBytes": "128"
					},
					"t_struct(jobRecruiter)28_storage": {
						"encoding": "inplace",
						"label": "struct jobPortal.jobRecruiter",
						"members": [
							{
								"astId": 19,
								"contract": "contracts/jobPortal.sol:jobPortal",
								"label": "companyName",
								"offset": 0,
								"slot": "0",
								"type": "t_string_storage"
							},
							{
								"astId": 21,
								"contract": "contracts/jobPortal.sol:jobPortal",
								"label": "companyAddress",
								"offset": 0,
								"slot": "1",
								"type": "t_string_storage"
							},
							{
								"astId": 23,
								"contract": "contracts/jobPortal.sol:jobPortal",
								"label": "recruiterName",
								"offset": 0,
								"slot": "2",
								"type": "t_string_storage"
							},
							{
								"astId": 25,
								"contract": "contracts/jobPortal.sol:jobPortal",
								"label": "website",
								"offset": 0,
								"slot": "3",
								"type": "t_string_storage"
							},
							{
								"astId": 27,
								"contract": "contracts/jobPortal.sol:jobPortal",
								"label": "recruiterID",
								"offset": 0,
								"slot": "4",
								"type": "t_string_storage"
							}
						],
						"numberOfBytes": "160"
					},
					"t_struct(jobSeeker)39_storage": {
						"encoding": "inplace",
						"label": "struct jobPortal.jobSeeker",
						"members": [
							{
								"astId": 30,
								"contract": "contracts/jobPortal.sol:jobPortal",
								"label": "personalAddress",
								"offset": 0,
								"slot": "0",
								"type": "t_string_storage"
							},
							{
								"astId": 32,
								"contract": "contracts/jobPortal.sol:jobPortal",
								"label": "name",
								"offset": 0,
								"slot": "1",
								"type": "t_string_storage"
							},
							{
								"astId": 34,
								"contract": "contracts/jobPortal.sol:jobPortal",
								"label": "phoneNumber",
								"offset": 0,
								"slot": "2",
								"type": "t_uint256"
							},
							{
								"astId": 36,
								"contract": "contracts/jobPortal.sol:jobPortal",
								"label": "email",
								"offset": 0,
								"slot": "3",
								"type": "t_string_storage"
							},
							{
								"astId": 38,
								"contract": "contracts/jobPortal.sol:jobPortal",
								"label": "jobSeekerID",
								"offset": 0,
								"slot": "4",
								"type": "t_string_storage"
							}
						],
						"numberOfBytes": "160"
					},
					"t_uint256": {
						"encoding": "inplace",
						"label": "uint256",
						"numberOfBytes": "32"
					}
				}
			},
			"userdoc": {
				"kind": "user",
				"methods": {},
				"version": 1
			}
		}
	}
}