{
	"data": {
		"bytecode": {
			"linkReferences": {},
			"object": "608060405234801561001057600080fd5b5061262c806100206000396000f3fe608060405234801561001057600080fd5b50600436106100935760003560e01c8063834ee2e411610066578063834ee2e41461013b5780638e7c3ff81461016d5780639bf4bdf614610189578063b7eb51cc146101a7578063e02b79f9146101de57610093565b80633a11573814610098578063615b816b146100b45780636cc91d59146100e8578063802758601461011d575b600080fd5b6100b260048036038101906100ad9190611bd2565b6101fc565b005b6100ce60048036038101906100c99190611c2e565b610241565b6040516100df959493929190611fcb565b60405180910390f35b61010260048036038101906100fd9190611c2e565b61042f565b60405161011496959493929190611f47565b60405180910390f35b610125610733565b6040516101329190612033565b60405180910390f35b61015560048036038101906101509190611c2e565b610bbb565b6040516101649392919061212d565b60405180910390f35b61018760048036038101906101829190611a90565b610d15565b005b610191610fc6565b60405161019e9190612033565b60405180910390f35b6101c160048036038101906101bc9190611c2e565b6114d8565b6040516101d5989796959493929190612055565b60405180910390f35b6101e6611787565b6040516101f39190612172565b60405180910390f35b60004290507f7f6e86bd639a1e66fa504d0d84d89554b326ecef43566e763144efb5f4a0d4bf838383604051610234939291906120ef565b60405180910390a1505050565b60016020528060005260406000206000915090508060000160009054906101000a900473ffffffffffffffffffffffffffffffffffffffff169080600101805461028a9061239b565b80601f01602080910402602001604051908101604052809291908181526020018280546102b69061239b565b80156103035780601f106102d857610100808354040283529160200191610303565b820191906000526020600020905b8154815290600101906020018083116102e657829003601f168201915b5050505050908060020180546103189061239b565b80601f01602080910402602001604051908101604052809291908181526020018280546103449061239b565b80156103915780601f1061036657610100808354040283529160200191610391565b820191906000526020600020905b81548152906001019060200180831161037457829003601f168201915b5050505050908060030154908060040180546103ac9061239b565b80601f01602080910402602001604051908101604052809291908181526020018280546103d89061239b565b80156104255780601f106103fa57610100808354040283529160200191610425565b820191906000526020600020905b81548152906001019060200180831161040857829003601f168201915b5050505050905085565b60006020528060005260406000206000915090508060000160009054906101000a900473ffffffffffffffffffffffffffffffffffffffff16908060010180546104789061239b565b80601f01602080910402602001604051908101604052809291908181526020018280546104a49061239b565b80156104f15780601f106104c6576101008083540402835291602001916104f1565b820191906000526020600020905b8154815290600101906020018083116104d457829003601f168201915b5050505050908060020180546105069061239b565b80601f01602080910402602001604051908101604052809291908181526020018280546105329061239b565b801561057f5780601f106105545761010080835404028352916020019161057f565b820191906000526020600020905b81548152906001019060200180831161056257829003601f168201915b5050505050908060030180546105949061239b565b80601f01602080910402602001604051908101604052809291908181526020018280546105c09061239b565b801561060d5780601f106105e25761010080835404028352916020019161060d565b820191906000526020600020905b8154815290600101906020018083116105f057829003601f168201915b5050505050908060040180546106229061239b565b80601f016020809104026020016040519081016040528092919081815260200182805461064e9061239b565b801561069b5780601f106106705761010080835404028352916020019161069b565b820191906000526020600020905b81548152906001019060200180831161067e57829003601f168201915b5050505050908060050180546106b09061239b565b80601f01602080910402602001604051908101604052809291908181526020018280546106dc9061239b565b80156107295780601f106106fe57610100808354040283529160200191610729565b820191906000526020600020905b81548152906001019060200180831161070c57829003601f168201915b5050505050905086565b60606005805480602002602001604051908101604052809291908181526020016000905b82821015610bb257838290600052602060002090600702016040518061012001604052908160008201805461078b9061239b565b80601f01602080910402602001604051908101604052809291908181526020018280546107b79061239b565b80156108045780601f106107d957610100808354040283529160200191610804565b820191906000526020600020905b8154815290600101906020018083116107e757829003601f168201915b505050505081526020016001820160009054906101000a900473ffffffffffffffffffffffffffffffffffffffff1673ffffffffffffffffffffffffffffffffffffffff1673ffffffffffffffffffffffffffffffffffffffff1681526020016002820180546108739061239b565b80601f016020809104026020016040519081016040528092919081815260200182805461089f9061239b565b80156108ec5780601f106108c1576101008083540402835291602001916108ec565b820191906000526020600020905b8154815290600101906020018083116108cf57829003601f168201915b505050505081526020016003820180546109059061239b565b80601f01602080910402602001604051908101604052809291908181526020018280546109319061239b565b801561097e5780601f106109535761010080835404028352916020019161097e565b820191906000526020600020905b81548152906001019060200180831161096157829003601f168201915b505050505081526020016004820180546109979061239b565b80601f01602080910402602001604051908101604052809291908181526020018280546109c39061239b565b8015610a105780601f106109e557610100808354040283529160200191610a10565b820191906000526020600020905b8154815290600101906020018083116109f357829003601f168201915b5050505050815260200160058201805480602002602001604051908101604052809291908181526020016000905b82821015610aea578382906000526020600020018054610a5d9061239b565b80601f0160208091040260200160405190810160405280929190818152602001828054610a899061239b565b8015610ad65780601f10610aab57610100808354040283529160200191610ad6565b820191906000526020600020905b815481529060010190602001808311610ab957829003601f168201915b505050505081526020019060010190610a3e565b5050505081526020016006820160009054906101000a900460ff166003811115610b1757610b16612476565b5b6003811115610b2957610b28612476565b5b81526020016006820160019054906101000a900460ff166002811115610b5257610b51612476565b5b6002811115610b6457610b63612476565b5b81526020016006820160029054906101000a900460ff166002811115610b8d57610b8c612476565b5b6002811115610b9f57610b9e612476565b5b8152505081526020019060010190610757565b50505050905090565b6006602052806000526040600020600091509050806000018054610bde9061239b565b80601f0160208091040260200160405190810160405280929190818152602001828054610c0a9061239b565b8015610c575780601f10610c2c57610100808354040283529160200191610c57565b820191906000526020600020905b815481529060010190602001808311610c3a57829003601f168201915b505050505090806001018054610c6c9061239b565b80601f0160208091040260200160405190810160405280929190818152602001828054610c989061239b565b8015610ce55780601f10610cba57610100808354040283529160200191610ce5565b820191906000526020600020905b815481529060010190602001808311610cc857829003601f168201915b5050505050908060020160009054906101000a900473ffffffffffffffffffffffffffffffffffffffff16905083565b60006040518061012001604052808a81526020018973ffffffffffffffffffffffffffffffffffffffff16815260200188815260200187815260200186815260200185815260200160006003811115610d7157610d70612476565b5b8152602001846002811115610d8957610d88612476565b5b8152602001836002811115610da157610da0612476565b5b815250905060058190806001815401808255809150506001900390600052602060002090600702016000909190919091506000820151816000019080519060200190610dee929190611794565b5060208201518160010160006101000a81548173ffffffffffffffffffffffffffffffffffffffff021916908373ffffffffffffffffffffffffffffffffffffffff1602179055506040820151816002019080519060200190610e52929190611794565b506060820151816003019080519060200190610e6f929190611794565b506080820151816004019080519060200190610e8c929190611794565b5060a0820151816005019080519060200190610ea992919061181a565b5060c08201518160060160006101000a81548160ff02191690836003811115610ed557610ed4612476565b5b021790555060e08201518160060160016101000a81548160ff02191690836002811115610f0557610f04612476565b5b02179055506101008201518160060160026101000a81548160ff02191690836002811115610f3657610f35612476565b5b02179055505050600489908060018154018082558091505060019003906000526020600020016000909190919091509080519060200190610f78929190611794565b5060004290507f7f6e86bd639a1e66fa504d0d84d89554b326ecef43566e763144efb5f4a0d4bf8a600083604051610fb2939291906120ef565b60405180910390a150505050505050505050565b6060806000805b6005805490508110156114cf5760016003811115610fee57610fed612476565b5b60058281548110611002576110016124d4565b5b906000526020600020906007020160060160009054906101000a900460ff16600381111561103357611032612476565b5b14156114bc576005818154811061104d5761104c6124d4565b5b9060005260206000209060070201604051806101200160405290816000820180546110779061239b565b80601f01602080910402602001604051908101604052809291908181526020018280546110a39061239b565b80156110f05780601f106110c5576101008083540402835291602001916110f0565b820191906000526020600020905b8154815290600101906020018083116110d357829003601f168201915b505050505081526020016001820160009054906101000a900473ffffffffffffffffffffffffffffffffffffffff1673ffffffffffffffffffffffffffffffffffffffff1673ffffffffffffffffffffffffffffffffffffffff16815260200160028201805461115f9061239b565b80601f016020809104026020016040519081016040528092919081815260200182805461118b9061239b565b80156111d85780601f106111ad576101008083540402835291602001916111d8565b820191906000526020600020905b8154815290600101906020018083116111bb57829003601f168201915b505050505081526020016003820180546111f19061239b565b80601f016020809104026020016040519081016040528092919081815260200182805461121d9061239b565b801561126a5780601f1061123f5761010080835404028352916020019161126a565b820191906000526020600020905b81548152906001019060200180831161124d57829003601f168201915b505050505081526020016004820180546112839061239b565b80601f01602080910402602001604051908101604052809291908181526020018280546112af9061239b565b80156112fc5780601f106112d1576101008083540402835291602001916112fc565b820191906000526020600020905b8154815290600101906020018083116112df57829003601f168201915b5050505050815260200160058201805480602002602001604051908101604052809291908181526020016000905b828210156113d65783829060005260206000200180546113499061239b565b80601f01602080910402602001604051908101604052809291908181526020018280546113759061239b565b80156113c25780601f10611397576101008083540402835291602001916113c2565b820191906000526020600020905b8154815290600101906020018083116113a557829003601f168201915b50505050508152602001906001019061132a565b5050505081526020016006820160009054906101000a900460ff16600381111561140357611402612476565b5b600381111561141557611414612476565b5b81526020016006820160019054906101000a900460ff16600281111561143e5761143d612476565b5b60028111156114505761144f612476565b5b81526020016006820160029054906101000a900460ff16600281111561147957611478612476565b5b600281111561148b5761148a612476565b5b815250508383815181106114a2576114a16124d4565b5b602002602001018190525081806114b8906123fe565b9250505b80806114c7906123fe565b915050610fcd565b50819250505090565b60026020528060005260406000206000915090508060000180546114fb9061239b565b80601f01602080910402602001604051908101604052809291908181526020018280546115279061239b565b80156115745780601f1061154957610100808354040283529160200191611574565b820191906000526020600020905b81548152906001019060200180831161155757829003601f168201915b5050505050908060010160009054906101000a900473ffffffffffffffffffffffffffffffffffffffff16908060020180546115af9061239b565b80601f01602080910402602001604051908101604052809291908181526020018280546115db9061239b565b80156116285780601f106115fd57610100808354040283529160200191611628565b820191906000526020600020905b81548152906001019060200180831161160b57829003601f168201915b50505050509080600301805461163d9061239b565b80601f01602080910402602001604051908101604052809291908181526020018280546116699061239b565b80156116b65780601f1061168b576101008083540402835291602001916116b6565b820191906000526020600020905b81548152906001019060200180831161169957829003601f168201915b5050505050908060040180546116cb9061239b565b80601f01602080910402602001604051908101604052809291908181526020018280546116f79061239b565b80156117445780601f1061171957610100808354040283529160200191611744565b820191906000526020600020905b81548152906001019060200180831161172757829003601f168201915b5050505050908060060160009054906101000a900460ff16908060060160019054906101000a900460ff16908060060160029054906101000a900460ff16905088565b6000600580549050905090565b8280546117a09061239b565b90600052602060002090601f0160209004810192826117c25760008555611809565b82601f106117db57805160ff1916838001178555611809565b82800160010185558215611809579182015b828111156118085782518255916020019190600101906117ed565b5b509050611816919061187a565b5090565b828054828255906000526020600020908101928215611869579160200282015b82811115611868578251829080519060200190611858929190611794565b509160200191906001019061183a565b5b5090506118769190611897565b5090565b5b8082111561189357600081600090555060010161187b565b5090565b5b808211156118b757600081816118ae91906118bb565b50600101611898565b5090565b5080546118c79061239b565b6000825580601f106118d957506118f8565b601f0160209004906000526020600020908101906118f7919061187a565b5b50565b600061190e611909846121b2565b61218d565b9050808382526020820190508285602086028201111561193157611930612537565b5b60005b8581101561197f57813567ffffffffffffffff81111561195757611956612532565b5b8086016119648982611a4d565b85526020850194506020840193505050600181019050611934565b5050509392505050565b600061199c611997846121de565b61218d565b9050828152602081018484840111156119b8576119b761253c565b5b6119c3848285612359565b509392505050565b6000813590506119da81612598565b92915050565b600082601f8301126119f5576119f4612532565b5b8135611a058482602086016118fb565b91505092915050565b600081359050611a1d816125af565b92915050565b600081359050611a32816125bf565b92915050565b600081359050611a47816125cf565b92915050565b600082601f830112611a6257611a61612532565b5b8135611a72848260208601611989565b91505092915050565b600081359050611a8a816125df565b92915050565b600080600080600080600080610100898b031215611ab157611ab0612546565b5b600089013567ffffffffffffffff811115611acf57611ace612541565b5b611adb8b828c01611a4d565b9850506020611aec8b828c016119cb565b975050604089013567ffffffffffffffff811115611b0d57611b0c612541565b5b611b198b828c01611a4d565b965050606089013567ffffffffffffffff811115611b3a57611b39612541565b5b611b468b828c01611a4d565b955050608089013567ffffffffffffffff811115611b6757611b66612541565b5b611b738b828c01611a4d565b94505060a089013567ffffffffffffffff811115611b9457611b93612541565b5b611ba08b828c016119e0565b93505060c0611bb18b828c01611a0e565b92505060e0611bc28b828c01611a38565b9150509295985092959890939650565b60008060408385031215611be957611be8612546565b5b600083013567ffffffffffffffff811115611c0757611c06612541565b5b611c1385828601611a4d565b9250506020611c2485828601611a23565b9150509250929050565b600060208284031215611c4457611c43612546565b5b6000611c5284828501611a7b565b91505092915050565b6000611c678383611de5565b905092915050565b6000611c7b8383611e57565b905092915050565b611c8c816122ae565b82525050565b611c9b816122ae565b82525050565b6000611cac8261222f565b611cb6818561226a565b935083602082028501611cc88561220f565b8060005b85811015611d045784840389528151611ce58582611c5b565b9450611cf083612250565b925060208a01995050600181019050611ccc565b50829750879550505050505092915050565b6000611d218261223a565b611d2b818561227b565b935083602082028501611d3d8561221f565b8060005b85811015611d795784840389528151611d5a8582611c6f565b9450611d658361225d565b925060208a01995050600181019050611d41565b50829750879550505050505092915050565b611d9481612323565b82525050565b611da381612323565b82525050565b611db281612335565b82525050565b611dc181612335565b82525050565b611dd081612347565b82525050565b611ddf81612347565b82525050565b6000611df082612245565b611dfa818561228c565b9350611e0a818560208601612368565b611e138161254b565b840191505092915050565b6000611e2982612245565b611e33818561229d565b9350611e43818560208601612368565b611e4c8161254b565b840191505092915050565b6000610120830160008301518482036000860152611e758282611de5565b9150506020830151611e8a6020860182611c83565b5060408301518482036040860152611ea28282611de5565b91505060608301518482036060860152611ebc8282611de5565b91505060808301518482036080860152611ed68282611de5565b91505060a083015184820360a0860152611ef08282611ca1565b91505060c0830151611f0560c0860182611da9565b5060e0830151611f1860e0860182611d8b565b50610100830151611f2d610100860182611dc7565b508091505092915050565b611f4181612319565b82525050565b600060c082019050611f5c6000830189611c92565b8181036020830152611f6e8188611e1e565b90508181036040830152611f828187611e1e565b90508181036060830152611f968186611e1e565b90508181036080830152611faa8185611e1e565b905081810360a0830152611fbe8184611e1e565b9050979650505050505050565b600060a082019050611fe06000830188611c92565b8181036020830152611ff28187611e1e565b905081810360408301526120068186611e1e565b90506120156060830185611f38565b81810360808301526120278184611e1e565b90509695505050505050565b6000602082019050818103600083015261204d8184611d16565b905092915050565b6000610100820190508181036000830152612070818b611e1e565b905061207f602083018a611c92565b81810360408301526120918189611e1e565b905081810360608301526120a58188611e1e565b905081810360808301526120b98187611e1e565b90506120c860a0830186611db8565b6120d560c0830185611d9a565b6120e260e0830184611dd6565b9998505050505050505050565b600060608201905081810360008301526121098186611e1e565b90506121186020830185611db8565b6121256040830184611f38565b949350505050565b600060608201905081810360008301526121478186611e1e565b9050818103602083015261215b8185611e1e565b905061216a6040830184611c92565b949350505050565b60006020820190506121876000830184611f38565b92915050565b60006121976121a8565b90506121a382826123cd565b919050565b6000604051905090565b600067ffffffffffffffff8211156121cd576121cc612503565b5b602082029050602081019050919050565b600067ffffffffffffffff8211156121f9576121f8612503565b5b6122028261254b565b9050602081019050919050565b6000819050602082019050919050565b6000819050602082019050919050565b600081519050919050565b600081519050919050565b600081519050919050565b6000602082019050919050565b6000602082019050919050565b600082825260208201905092915050565b600082825260208201905092915050565b600082825260208201905092915050565b600082825260208201905092915050565b60006122b9826122f9565b9050919050565b60008190506122ce8261255c565b919050565b60008190506122e182612570565b919050565b60008190506122f482612584565b919050565b600073ffffffffffffffffffffffffffffffffffffffff82169050919050565b6000819050919050565b600061232e826122c0565b9050919050565b6000612340826122d3565b9050919050565b6000612352826122e6565b9050919050565b82818337600083830152505050565b60005b8381101561238657808201518184015260208101905061236b565b83811115612395576000848401525b50505050565b600060028204905060018216806123b357607f821691505b602082108114156123c7576123c66124a5565b5b50919050565b6123d68261254b565b810181811067ffffffffffffffff821117156123f5576123f4612503565b5b80604052505050565b600061240982612319565b91507fffffffffffffffffffffffffffffffffffffffffffffffffffffffffffffffff82141561243c5761243b612447565b5b600182019050919050565b7f4e487b7100000000000000000000000000000000000000000000000000000000600052601160045260246000fd5b7f4e487b7100000000000000000000000000000000000000000000000000000000600052602160045260246000fd5b7f4e487b7100000000000000000000000000000000000000000000000000000000600052602260045260246000fd5b7f4e487b7100000000000000000000000000000000000000000000000000000000600052603260045260246000fd5b7f4e487b7100000000000000000000000000000000000000000000000000000000600052604160045260246000fd5b600080fd5b600080fd5b600080fd5b600080fd5b600080fd5b6000601f19601f8301169050919050565b6003811061256d5761256c612476565b5b50565b6004811061258157612580612476565b5b50565b6003811061259557612594612476565b5b50565b6125a1816122ae565b81146125ac57600080fd5b50565b600381106125bc57600080fd5b50565b600481106125cc57600080fd5b50565b600381106125dc57600080fd5b50565b6125e881612319565b81146125f357600080fd5b5056fea264697066735822122077b0501791c563f9d09a185d7411bcd1de25b9381ca75a467c4989992738672064736f6c63430008070033",
			"opcodes": "PUSH1 0x80 PUSH1 0x40 MSTORE CALLVALUE DUP1 ISZERO PUSH2 0x10 JUMPI PUSH1 0x0 DUP1 REVERT JUMPDEST POP PUSH2 0x262C DUP1 PUSH2 0x20 PUSH1 0x0 CODECOPY PUSH1 0x0 RETURN INVALID PUSH1 0x80 PUSH1 0x40 MSTORE CALLVALUE DUP1 ISZERO PUSH2 0x10 JUMPI PUSH1 0x0 DUP1 REVERT JUMPDEST POP PUSH1 0x4 CALLDATASIZE LT PUSH2 0x93 JUMPI PUSH1 0x0 CALLDATALOAD PUSH1 0xE0 SHR DUP1 PUSH4 0x834EE2E4 GT PUSH2 0x66 JUMPI DUP1 PUSH4 0x834EE2E4 EQ PUSH2 0x13B JUMPI DUP1 PUSH4 0x8E7C3FF8 EQ PUSH2 0x16D JUMPI DUP1 PUSH4 0x9BF4BDF6 EQ PUSH2 0x189 JUMPI DUP1 PUSH4 0xB7EB51CC EQ PUSH2 0x1A7 JUMPI DUP1 PUSH4 0xE02B79F9 EQ PUSH2 0x1DE JUMPI PUSH2 0x93 JUMP JUMPDEST DUP1 PUSH4 0x3A115738 EQ PUSH2 0x98 JUMPI DUP1 PUSH4 0x615B816B EQ PUSH2 0xB4 JUMPI DUP1 PUSH4 0x6CC91D59 EQ PUSH2 0xE8 JUMPI DUP1 PUSH4 0x80275860 EQ PUSH2 0x11D JUMPI JUMPDEST PUSH1 0x0 DUP1 REVERT JUMPDEST PUSH2 0xB2 PUSH1 0x4 DUP1 CALLDATASIZE SUB DUP2 ADD SWAP1 PUSH2 0xAD SWAP2 SWAP1 PUSH2 0x1BD2 JUMP JUMPDEST PUSH2 0x1FC JUMP JUMPDEST STOP JUMPDEST PUSH2 0xCE PUSH1 0x4 DUP1 CALLDATASIZE SUB DUP2 ADD SWAP1 PUSH2 0xC9 SWAP2 SWAP1 PUSH2 0x1C2E JUMP JUMPDEST PUSH2 0x241 JUMP JUMPDEST PUSH1 0x40 MLOAD PUSH2 0xDF SWAP6 SWAP5 SWAP4 SWAP3 SWAP2 SWAP1 PUSH2 0x1FCB JUMP JUMPDEST PUSH1 0x40 MLOAD DUP1 SWAP2 SUB SWAP1 RETURN JUMPDEST PUSH2 0x102 PUSH1 0x4 DUP1 CALLDATASIZE SUB DUP2 ADD SWAP1 PUSH2 0xFD SWAP2 SWAP1 PUSH2 0x1C2E JUMP JUMPDEST PUSH2 0x42F JUMP JUMPDEST PUSH1 0x40 MLOAD PUSH2 0x114 SWAP7 SWAP6 SWAP5 SWAP4 SWAP3 SWAP2 SWAP1 PUSH2 0x1F47 JUMP JUMPDEST PUSH1 0x40 MLOAD DUP1 SWAP2 SUB SWAP1 RETURN JUMPDEST PUSH2 0x125 PUSH2 0x733 JUMP JUMPDEST PUSH1 0x40 MLOAD PUSH2 0x132 SWAP2 SWAP1 PUSH2 0x2033 JUMP JUMPDEST PUSH1 0x40 MLOAD DUP1 SWAP2 SUB SWAP1 RETURN JUMPDEST PUSH2 0x155 PUSH1 0x4 DUP1 CALLDATASIZE SUB DUP2 ADD SWAP1 PUSH2 0x150 SWAP2 SWAP1 PUSH2 0x1C2E JUMP JUMPDEST PUSH2 0xBBB JUMP JUMPDEST PUSH1 0x40 MLOAD PUSH2 0x164 SWAP4 SWAP3 SWAP2 SWAP1 PUSH2 0x212D JUMP JUMPDEST PUSH1 0x40 MLOAD DUP1 SWAP2 SUB SWAP1 RETURN JUMPDEST PUSH2 0x187 PUSH1 0x4 DUP1 CALLDATASIZE SUB DUP2 ADD SWAP1 PUSH2 0x182 SWAP2 SWAP1 PUSH2 0x1A90 JUMP JUMPDEST PUSH2 0xD15 JUMP JUMPDEST STOP JUMPDEST PUSH2 0x191 PUSH2 0xFC6 JUMP JUMPDEST PUSH1 0x40 MLOAD PUSH2 0x19E SWAP2 SWAP1 PUSH2 0x2033 JUMP JUMPDEST PUSH1 0x40 MLOAD DUP1 SWAP2 SUB SWAP1 RETURN JUMPDEST PUSH2 0x1C1 PUSH1 0x4 DUP1 CALLDATASIZE SUB DUP2 ADD SWAP1 PUSH2 0x1BC SWAP2 SWAP1 PUSH2 0x1C2E JUMP JUMPDEST PUSH2 0x14D8 JUMP JUMPDEST PUSH1 0x40 MLOAD PUSH2 0x1D5 SWAP9 SWAP8 SWAP7 SWAP6 SWAP5 SWAP4 SWAP3 SWAP2 SWAP1 PUSH2 0x2055 JUMP JUMPDEST PUSH1 0x40 MLOAD DUP1 SWAP2 SUB SWAP1 RETURN JUMPDEST PUSH2 0x1E6 PUSH2 0x1787 JUMP JUMPDEST PUSH1 0x40 MLOAD PUSH2 0x1F3 SWAP2 SWAP1 PUSH2 0x2172 JUMP JUMPDEST PUSH1 0x40 MLOAD DUP1 SWAP2 SUB SWAP1 RETURN JUMPDEST PUSH1 0x0 TIMESTAMP SWAP1 POP PUSH32 0x7F6E86BD639A1E66FA504D0D84D89554B326ECEF43566E763144EFB5F4A0D4BF DUP4 DUP4 DUP4 PUSH1 0x40 MLOAD PUSH2 0x234 SWAP4 SWAP3 SWAP2 SWAP1 PUSH2 0x20EF JUMP JUMPDEST PUSH1 0x40 MLOAD DUP1 SWAP2 SUB SWAP1 LOG1 POP POP POP JUMP JUMPDEST PUSH1 0x1 PUSH1 0x20 MSTORE DUP1 PUSH1 0x0 MSTORE PUSH1 0x40 PUSH1 0x0 KECCAK256 PUSH1 0x0 SWAP2 POP SWAP1 POP DUP1 PUSH1 0x0 ADD PUSH1 0x0 SWAP1 SLOAD SWAP1 PUSH2 0x100 EXP SWAP1 DIV PUSH20 0xFFFFFFFFFFFFFFFFFFFFFFFFFFFFFFFFFFFFFFFF AND SWAP1 DUP1 PUSH1 0x1 ADD DUP1 SLOAD PUSH2 0x28A SWAP1 PUSH2 0x239B JUMP JUMPDEST DUP1 PUSH1 0x1F ADD PUSH1 0x20 DUP1 SWAP2 DIV MUL PUSH1 0x20 ADD PUSH1 0x40 MLOAD SWAP1 DUP2 ADD PUSH1 0x40 MSTORE DUP1 SWAP3 SWAP2 SWAP1 DUP2 DUP2 MSTORE PUSH1 0x20 ADD DUP3 DUP1 SLOAD PUSH2 0x2B6 SWAP1 PUSH2 0x239B JUMP JUMPDEST DUP1 ISZERO PUSH2 0x303 JUMPI DUP1 PUSH1 0x1F LT PUSH2 0x2D8 JUMPI PUSH2 0x100 DUP1 DUP4 SLOAD DIV MUL DUP4 MSTORE SWAP2 PUSH1 0x20 ADD SWAP2 PUSH2 0x303 JUMP JUMPDEST DUP3 ADD SWAP2 SWAP1 PUSH1 0x0 MSTORE PUSH1 0x20 PUSH1 0x0 KECCAK256 SWAP1 JUMPDEST DUP2 SLOAD DUP2 MSTORE SWAP1 PUSH1 0x1 ADD SWAP1 PUSH1 0x20 ADD DUP1 DUP4 GT PUSH2 0x2E6 JUMPI DUP3 SWAP1 SUB PUSH1 0x1F AND DUP3 ADD SWAP2 JUMPDEST POP POP POP POP POP SWAP1 DUP1 PUSH1 0x2 ADD DUP1 SLOAD PUSH2 0x318 SWAP1 PUSH2 0x239B JUMP JUMPDEST DUP1 PUSH1 0x1F ADD PUSH1 0x20 DUP1 SWAP2 DIV MUL PUSH1 0x20 ADD PUSH1 0x40 MLOAD SWAP1 DUP2 ADD PUSH1 0x40 MSTORE DUP1 SWAP3 SWAP2 SWAP1 DUP2 DUP2 MSTORE PUSH1 0x20 ADD DUP3 DUP1 SLOAD PUSH2 0x344 SWAP1 PUSH2 0x239B JUMP JUMPDEST DUP1 ISZERO PUSH2 0x391 JUMPI DUP1 PUSH1 0x1F LT PUSH2 0x366 JUMPI PUSH2 0x100 DUP1 DUP4 SLOAD DIV MUL DUP4 MSTORE SWAP2 PUSH1 0x20 ADD SWAP2 PUSH2 0x391 JUMP JUMPDEST DUP3 ADD SWAP2 SWAP1 PUSH1 0x0 MSTORE PUSH1 0x20 PUSH1 0x0 KECCAK256 SWAP1 JUMPDEST DUP2 SLOAD DUP2 MSTORE SWAP1 PUSH1 0x1 ADD SWAP1 PUSH1 0x20 ADD DUP1 DUP4 GT PUSH2 0x374 JUMPI DUP3 SWAP1 SUB PUSH1 0x1F AND DUP3 ADD SWAP2 JUMPDEST POP POP POP POP POP SWAP1 DUP1 PUSH1 0x3 ADD SLOAD SWAP1 DUP1 PUSH1 0x4 ADD DUP1 SLOAD PUSH2 0x3AC SWAP1 PUSH2 0x239B JUMP JUMPDEST DUP1 PUSH1 0x1F ADD PUSH1 0x20 DUP1 SWAP2 DIV MUL PUSH1 0x20 ADD PUSH1 0x40 MLOAD SWAP1 DUP2 ADD PUSH1 0x40 MSTORE DUP1 SWAP3 SWAP2 SWAP1 DUP2 DUP2 MSTORE PUSH1 0x20 ADD DUP3 DUP1 SLOAD PUSH2 0x3D8 SWAP1 PUSH2 0x239B JUMP JUMPDEST DUP1 ISZERO PUSH2 0x425 JUMPI DUP1 PUSH1 0x1F LT PUSH2 0x3FA JUMPI PUSH2 0x100 DUP1 DUP4 SLOAD DIV MUL DUP4 MSTORE SWAP2 PUSH1 0x20 ADD SWAP2 PUSH2 0x425 JUMP JUMPDEST DUP3 ADD SWAP2 SWAP1 PUSH1 0x0 MSTORE PUSH1 0x20 PUSH1 0x0 KECCAK256 SWAP1 JUMPDEST DUP2 SLOAD DUP2 MSTORE SWAP1 PUSH1 0x1 ADD SWAP1 PUSH1 0x20 ADD DUP1 DUP4 GT PUSH2 0x408 JUMPI DUP3 SWAP1 SUB PUSH1 0x1F AND DUP3 ADD SWAP2 JUMPDEST POP POP POP POP POP SWAP1 POP DUP6 JUMP JUMPDEST PUSH1 0x0 PUSH1 0x20 MSTORE DUP1 PUSH1 0x0 MSTORE PUSH1 0x40 PUSH1 0x0 KECCAK256 PUSH1 0x0 SWAP2 POP SWAP1 POP DUP1 PUSH1 0x0 ADD PUSH1 0x0 SWAP1 SLOAD SWAP1 PUSH2 0x100 EXP SWAP1 DIV PUSH20 0xFFFFFFFFFFFFFFFFFFFFFFFFFFFFFFFFFFFFFFFF AND SWAP1 DUP1 PUSH1 0x1 ADD DUP1 SLOAD PUSH2 0x478 SWAP1 PUSH2 0x239B JUMP JUMPDEST DUP1 PUSH1 0x1F ADD PUSH1 0x20 DUP1 SWAP2 DIV MUL PUSH1 0x20 ADD PUSH1 0x40 MLOAD SWAP1 DUP2 ADD PUSH1 0x40 MSTORE DUP1 SWAP3 SWAP2 SWAP1 DUP2 DUP2 MSTORE PUSH1 0x20 ADD DUP3 DUP1 SLOAD PUSH2 0x4A4 SWAP1 PUSH2 0x239B JUMP JUMPDEST DUP1 ISZERO PUSH2 0x4F1 JUMPI DUP1 PUSH1 0x1F LT PUSH2 0x4C6 JUMPI PUSH2 0x100 DUP1 DUP4 SLOAD DIV MUL DUP4 MSTORE SWAP2 PUSH1 0x20 ADD SWAP2 PUSH2 0x4F1 JUMP JUMPDEST DUP3 ADD SWAP2 SWAP1 PUSH1 0x0 MSTORE PUSH1 0x20 PUSH1 0x0 KECCAK256 SWAP1 JUMPDEST DUP2 SLOAD DUP2 MSTORE SWAP1 PUSH1 0x1 ADD SWAP1 PUSH1 0x20 ADD DUP1 DUP4 GT PUSH2 0x4D4 JUMPI DUP3 SWAP1 SUB PUSH1 0x1F AND DUP3 ADD SWAP2 JUMPDEST POP POP POP POP POP SWAP1 DUP1 PUSH1 0x2 ADD DUP1 SLOAD PUSH2 0x506 SWAP1 PUSH2 0x239B JUMP JUMPDEST DUP1 PUSH1 0x1F ADD PUSH1 0x20 DUP1 SWAP2 DIV MUL PUSH1 0x20 ADD PUSH1 0x40 MLOAD SWAP1 DUP2 ADD PUSH1 0x40 MSTORE DUP1 SWAP3 SWAP2 SWAP1 DUP2 DUP2 MSTORE PUSH1 0x20 ADD DUP3 DUP1 SLOAD PUSH2 0x532 SWAP1 PUSH2 0x239B JUMP JUMPDEST DUP1 ISZERO PUSH2 0x57F JUMPI DUP1 PUSH1 0x1F LT PUSH2 0x554 JUMPI PUSH2 0x100 DUP1 DUP4 SLOAD DIV MUL DUP4 MSTORE SWAP2 PUSH1 0x20 ADD SWAP2 PUSH2 0x57F JUMP JUMPDEST DUP3 ADD SWAP2 SWAP1 PUSH1 0x0 MSTORE PUSH1 0x20 PUSH1 0x0 KECCAK256 SWAP1 JUMPDEST DUP2 SLOAD DUP2 MSTORE SWAP1 PUSH1 0x1 ADD SWAP1 PUSH1 0x20 ADD DUP1 DUP4 GT PUSH2 0x562 JUMPI DUP3 SWAP1 SUB PUSH1 0x1F AND DUP3 ADD SWAP2 JUMPDEST POP POP POP POP POP SWAP1 DUP1 PUSH1 0x3 ADD DUP1 SLOAD PUSH2 0x594 SWAP1 PUSH2 0x239B JUMP JUMPDEST DUP1 PUSH1 0x1F ADD PUSH1 0x20 DUP1 SWAP2 DIV MUL PUSH1 0x20 ADD PUSH1 0x40 MLOAD SWAP1 DUP2 ADD PUSH1 0x40 MSTORE DUP1 SWAP3 SWAP2 SWAP1 DUP2 DUP2 MSTORE PUSH1 0x20 ADD DUP3 DUP1 SLOAD PUSH2 0x5C0 SWAP1 PUSH2 0x239B JUMP JUMPDEST DUP1 ISZERO PUSH2 0x60D JUMPI DUP1 PUSH1 0x1F LT PUSH2 0x5E2 JUMPI PUSH2 0x100 DUP1 DUP4 SLOAD DIV MUL DUP4 MSTORE SWAP2 PUSH1 0x20 ADD SWAP2 PUSH2 0x60D JUMP JUMPDEST DUP3 ADD SWAP2 SWAP1 PUSH1 0x0 MSTORE PUSH1 0x20 PUSH1 0x0 KECCAK256 SWAP1 JUMPDEST DUP2 SLOAD DUP2 MSTORE SWAP1 PUSH1 0x1 ADD SWAP1 PUSH1 0x20 ADD DUP1 DUP4 GT PUSH2 0x5F0 JUMPI DUP3 SWAP1 SUB PUSH1 0x1F AND DUP3 ADD SWAP2 JUMPDEST POP POP POP POP POP SWAP1 DUP1 PUSH1 0x4 ADD DUP1 SLOAD PUSH2 0x622 SWAP1 PUSH2 0x239B JUMP JUMPDEST DUP1 PUSH1 0x1F ADD PUSH1 0x20 DUP1 SWAP2 DIV MUL PUSH1 0x20 ADD PUSH1 0x40 MLOAD SWAP1 DUP2 ADD PUSH1 0x40 MSTORE DUP1 SWAP3 SWAP2 SWAP1 DUP2 DUP2 MSTORE PUSH1 0x20 ADD DUP3 DUP1 SLOAD PUSH2 0x64E SWAP1 PUSH2 0x239B JUMP JUMPDEST DUP1 ISZERO PUSH2 0x69B JUMPI DUP1 PUSH1 0x1F LT PUSH2 0x670 JUMPI PUSH2 0x100 DUP1 DUP4 SLOAD DIV MUL DUP4 MSTORE SWAP2 PUSH1 0x20 ADD SWAP2 PUSH2 0x69B JUMP JUMPDEST DUP3 ADD SWAP2 SWAP1 PUSH1 0x0 MSTORE PUSH1 0x20 PUSH1 0x0 KECCAK256 SWAP1 JUMPDEST DUP2 SLOAD DUP2 MSTORE SWAP1 PUSH1 0x1 ADD SWAP1 PUSH1 0x20 ADD DUP1 DUP4 GT PUSH2 0x67E JUMPI DUP3 SWAP1 SUB PUSH1 0x1F AND DUP3 ADD SWAP2 JUMPDEST POP POP POP POP POP SWAP1 DUP1 PUSH1 0x5 ADD DUP1 SLOAD PUSH2 0x6B0 SWAP1 PUSH2 0x239B JUMP JUMPDEST DUP1 PUSH1 0x1F ADD PUSH1 0x20 DUP1 SWAP2 DIV MUL PUSH1 0x20 ADD PUSH1 0x40 MLOAD SWAP1 DUP2 ADD PUSH1 0x40 MSTORE DUP1 SWAP3 SWAP2 SWAP1 DUP2 DUP2 MSTORE PUSH1 0x20 ADD DUP3 DUP1 SLOAD PUSH2 0x6DC SWAP1 PUSH2 0x239B JUMP JUMPDEST DUP1 ISZERO PUSH2 0x729 JUMPI DUP1 PUSH1 0x1F LT PUSH2 0x6FE JUMPI PUSH2 0x100 DUP1 DUP4 SLOAD DIV MUL DUP4 MSTORE SWAP2 PUSH1 0x20 ADD SWAP2 PUSH2 0x729 JUMP JUMPDEST DUP3 ADD SWAP2 SWAP1 PUSH1 0x0 MSTORE PUSH1 0x20 PUSH1 0x0 KECCAK256 SWAP1 JUMPDEST DUP2 SLOAD DUP2 MSTORE SWAP1 PUSH1 0x1 ADD SWAP1 PUSH1 0x20 ADD DUP1 DUP4 GT PUSH2 0x70C JUMPI DUP3 SWAP1 SUB PUSH1 0x1F AND DUP3 ADD SWAP2 JUMPDEST POP POP POP POP POP SWAP1 POP DUP7 JUMP JUMPDEST PUSH1 0x60 PUSH1 0x5 DUP1 SLOAD DUP1 PUSH1 0x20 MUL PUSH1 0x20 ADD PUSH1 0x40 MLOAD SWAP1 DUP2 ADD PUSH1 0x40 MSTORE DUP1 SWAP3 SWAP2 SWAP1 DUP2 DUP2 MSTORE PUSH1 0x20 ADD PUSH1 0x0 SWAP1 JUMPDEST DUP3 DUP3 LT ISZERO PUSH2 0xBB2 JUMPI DUP4 DUP3 SWAP1 PUSH1 0x0 MSTORE PUSH1 0x20 PUSH1 0x0 KECCAK256 SWAP1 PUSH1 0x7 MUL ADD PUSH1 0x40 MLOAD DUP1 PUSH2 0x120 ADD PUSH1 0x40 MSTORE SWAP1 DUP2 PUSH1 0x0 DUP3 ADD DUP1 SLOAD PUSH2 0x78B SWAP1 PUSH2 0x239B JUMP JUMPDEST DUP1 PUSH1 0x1F ADD PUSH1 0x20 DUP1 SWAP2 DIV MUL PUSH1 0x20 ADD PUSH1 0x40 MLOAD SWAP1 DUP2 ADD PUSH1 0x40 MSTORE DUP1 SWAP3 SWAP2 SWAP1 DUP2 DUP2 MSTORE PUSH1 0x20 ADD DUP3 DUP1 SLOAD PUSH2 0x7B7 SWAP1 PUSH2 0x239B JUMP JUMPDEST DUP1 ISZERO PUSH2 0x804 JUMPI DUP1 PUSH1 0x1F LT PUSH2 0x7D9 JUMPI PUSH2 0x100 DUP1 DUP4 SLOAD DIV MUL DUP4 MSTORE SWAP2 PUSH1 0x20 ADD SWAP2 PUSH2 0x804 JUMP JUMPDEST DUP3 ADD SWAP2 SWAP1 PUSH1 0x0 MSTORE PUSH1 0x20 PUSH1 0x0 KECCAK256 SWAP1 JUMPDEST DUP2 SLOAD DUP2 MSTORE SWAP1 PUSH1 0x1 ADD SWAP1 PUSH1 0x20 ADD DUP1 DUP4 GT PUSH2 0x7E7 JUMPI DUP3 SWAP1 SUB PUSH1 0x1F AND DUP3 ADD SWAP2 JUMPDEST POP POP POP POP POP DUP2 MSTORE PUSH1 0x20 ADD PUSH1 0x1 DUP3 ADD PUSH1 0x0 SWAP1 SLOAD SWAP1 PUSH2 0x100 EXP SWAP1 DIV PUSH20 0xFFFFFFFFFFFFFFFFFFFFFFFFFFFFFFFFFFFFFFFF AND PUSH20 0xFFFFFFFFFFFFFFFFFFFFFFFFFFFFFFFFFFFFFFFF AND PUSH20 0xFFFFFFFFFFFFFFFFFFFFFFFFFFFFFFFFFFFFFFFF AND DUP2 MSTORE PUSH1 0x20 ADD PUSH1 0x2 DUP3 ADD DUP1 SLOAD PUSH2 0x873 SWAP1 PUSH2 0x239B JUMP JUMPDEST DUP1 PUSH1 0x1F ADD PUSH1 0x20 DUP1 SWAP2 DIV MUL PUSH1 0x20 ADD PUSH1 0x40 MLOAD SWAP1 DUP2 ADD PUSH1 0x40 MSTORE DUP1 SWAP3 SWAP2 SWAP1 DUP2 DUP2 MSTORE PUSH1 0x20 ADD DUP3 DUP1 SLOAD PUSH2 0x89F SWAP1 PUSH2 0x239B JUMP JUMPDEST DUP1 ISZERO PUSH2 0x8EC JUMPI DUP1 PUSH1 0x1F LT PUSH2 0x8C1 JUMPI PUSH2 0x100 DUP1 DUP4 SLOAD DIV MUL DUP4 MSTORE SWAP2 PUSH1 0x20 ADD SWAP2 PUSH2 0x8EC JUMP JUMPDEST DUP3 ADD SWAP2 SWAP1 PUSH1 0x0 MSTORE PUSH1 0x20 PUSH1 0x0 KECCAK256 SWAP1 JUMPDEST DUP2 SLOAD DUP2 MSTORE SWAP1 PUSH1 0x1 ADD SWAP1 PUSH1 0x20 ADD DUP1 DUP4 GT PUSH2 0x8CF JUMPI DUP3 SWAP1 SUB PUSH1 0x1F AND DUP3 ADD SWAP2 JUMPDEST POP POP POP POP POP DUP2 MSTORE PUSH1 0x20 ADD PUSH1 0x3 DUP3 ADD DUP1 SLOAD PUSH2 0x905 SWAP1 PUSH2 0x239B JUMP JUMPDEST DUP1 PUSH1 0x1F ADD PUSH1 0x20 DUP1 SWAP2 DIV MUL PUSH1 0x20 ADD PUSH1 0x40 MLOAD SWAP1 DUP2 ADD PUSH1 0x40 MSTORE DUP1 SWAP3 SWAP2 SWAP1 DUP2 DUP2 MSTORE PUSH1 0x20 ADD DUP3 DUP1 SLOAD PUSH2 0x931 SWAP1 PUSH2 0x239B JUMP JUMPDEST DUP1 ISZERO PUSH2 0x97E JUMPI DUP1 PUSH1 0x1F LT PUSH2 0x953 JUMPI PUSH2 0x100 DUP1 DUP4 SLOAD DIV MUL DUP4 MSTORE SWAP2 PUSH1 0x20 ADD SWAP2 PUSH2 0x97E JUMP JUMPDEST DUP3 ADD SWAP2 SWAP1 PUSH1 0x0 MSTORE PUSH1 0x20 PUSH1 0x0 KECCAK256 SWAP1 JUMPDEST DUP2 SLOAD DUP2 MSTORE SWAP1 PUSH1 0x1 ADD SWAP1 PUSH1 0x20 ADD DUP1 DUP4 GT PUSH2 0x961 JUMPI DUP3 SWAP1 SUB PUSH1 0x1F AND DUP3 ADD SWAP2 JUMPDEST POP POP POP POP POP DUP2 MSTORE PUSH1 0x20 ADD PUSH1 0x4 DUP3 ADD DUP1 SLOAD PUSH2 0x997 SWAP1 PUSH2 0x239B JUMP JUMPDEST DUP1 PUSH1 0x1F ADD PUSH1 0x20 DUP1 SWAP2 DIV MUL PUSH1 0x20 ADD PUSH1 0x40 MLOAD SWAP1 DUP2 ADD PUSH1 0x40 MSTORE DUP1 SWAP3 SWAP2 SWAP1 DUP2 DUP2 MSTORE PUSH1 0x20 ADD DUP3 DUP1 SLOAD PUSH2 0x9C3 SWAP1 PUSH2 0x239B JUMP JUMPDEST DUP1 ISZERO PUSH2 0xA10 JUMPI DUP1 PUSH1 0x1F LT PUSH2 0x9E5 JUMPI PUSH2 0x100 DUP1 DUP4 SLOAD DIV MUL DUP4 MSTORE SWAP2 PUSH1 0x20 ADD SWAP2 PUSH2 0xA10 JUMP JUMPDEST DUP3 ADD SWAP2 SWAP1 PUSH1 0x0 MSTORE PUSH1 0x20 PUSH1 0x0 KECCAK256 SWAP1 JUMPDEST DUP2 SLOAD DUP2 MSTORE SWAP1 PUSH1 0x1 ADD SWAP1 PUSH1 0x20 ADD DUP1 DUP4 GT PUSH2 0x9F3 JUMPI DUP3 SWAP1 SUB PUSH1 0x1F AND DUP3 ADD SWAP2 JUMPDEST POP POP POP POP POP DUP2 MSTORE PUSH1 0x20 ADD PUSH1 0x5 DUP3 ADD DUP1 SLOAD DUP1 PUSH1 0x20 MUL PUSH1 0x20 ADD PUSH1 0x40 MLOAD SWAP1 DUP2 ADD PUSH1 0x40 MSTORE DUP1 SWAP3 SWAP2 SWAP1 DUP2 DUP2 MSTORE PUSH1 0x20 ADD PUSH1 0x0 SWAP1 JUMPDEST DUP3 DUP3 LT ISZERO PUSH2 0xAEA JUMPI DUP4 DUP3 SWAP1 PUSH1 0x0 MSTORE PUSH1 0x20 PUSH1 0x0 KECCAK256 ADD DUP1 SLOAD PUSH2 0xA5D SWAP1 PUSH2 0x239B JUMP JUMPDEST DUP1 PUSH1 0x1F ADD PUSH1 0x20 DUP1 SWAP2 DIV MUL PUSH1 0x20 ADD PUSH1 0x40 MLOAD SWAP1 DUP2 ADD PUSH1 0x40 MSTORE DUP1 SWAP3 SWAP2 SWAP1 DUP2 DUP2 MSTORE PUSH1 0x20 ADD DUP3 DUP1 SLOAD PUSH2 0xA89 SWAP1 PUSH2 0x239B JUMP JUMPDEST DUP1 ISZERO PUSH2 0xAD6 JUMPI DUP1 PUSH1 0x1F LT PUSH2 0xAAB JUMPI PUSH2 0x100 DUP1 DUP4 SLOAD DIV MUL DUP4 MSTORE SWAP2 PUSH1 0x20 ADD SWAP2 PUSH2 0xAD6 JUMP JUMPDEST DUP3 ADD SWAP2 SWAP1 PUSH1 0x0 MSTORE PUSH1 0x20 PUSH1 0x0 KECCAK256 SWAP1 JUMPDEST DUP2 SLOAD DUP2 MSTORE SWAP1 PUSH1 0x1 ADD SWAP1 PUSH1 0x20 ADD DUP1 DUP4 GT PUSH2 0xAB9 JUMPI DUP3 SWAP1 SUB PUSH1 0x1F AND DUP3 ADD SWAP2 JUMPDEST POP POP POP POP POP DUP2 MSTORE PUSH1 0x20 ADD SWAP1 PUSH1 0x1 ADD SWAP1 PUSH2 0xA3E JUMP JUMPDEST POP POP POP POP DUP2 MSTORE PUSH1 0x20 ADD PUSH1 0x6 DUP3 ADD PUSH1 0x0 SWAP1 SLOAD SWAP1 PUSH2 0x100 EXP SWAP1 DIV PUSH1 0xFF AND PUSH1 0x3 DUP2 GT ISZERO PUSH2 0xB17 JUMPI PUSH2 0xB16 PUSH2 0x2476 JUMP JUMPDEST JUMPDEST PUSH1 0x3 DUP2 GT ISZERO PUSH2 0xB29 JUMPI PUSH2 0xB28 PUSH2 0x2476 JUMP JUMPDEST JUMPDEST DUP2 MSTORE PUSH1 0x20 ADD PUSH1 0x6 DUP3 ADD PUSH1 0x1 SWAP1 SLOAD SWAP1 PUSH2 0x100 EXP SWAP1 DIV PUSH1 0xFF AND PUSH1 0x2 DUP2 GT ISZERO PUSH2 0xB52 JUMPI PUSH2 0xB51 PUSH2 0x2476 JUMP JUMPDEST JUMPDEST PUSH1 0x2 DUP2 GT ISZERO PUSH2 0xB64 JUMPI PUSH2 0xB63 PUSH2 0x2476 JUMP JUMPDEST JUMPDEST DUP2 MSTORE PUSH1 0x20 ADD PUSH1 0x6 DUP3 ADD PUSH1 0x2 SWAP1 SLOAD SWAP1 PUSH2 0x100 EXP SWAP1 DIV PUSH1 0xFF AND PUSH1 0x2 DUP2 GT ISZERO PUSH2 0xB8D JUMPI PUSH2 0xB8C PUSH2 0x2476 JUMP JUMPDEST JUMPDEST PUSH1 0x2 DUP2 GT ISZERO PUSH2 0xB9F JUMPI PUSH2 0xB9E PUSH2 0x2476 JUMP JUMPDEST JUMPDEST DUP2 MSTORE POP POP DUP2 MSTORE PUSH1 0x20 ADD SWAP1 PUSH1 0x1 ADD SWAP1 PUSH2 0x757 JUMP JUMPDEST POP POP POP POP SWAP1 POP SWAP1 JUMP JUMPDEST PUSH1 0x6 PUSH1 0x20 MSTORE DUP1 PUSH1 0x0 MSTORE PUSH1 0x40 PUSH1 0x0 KECCAK256 PUSH1 0x0 SWAP2 POP SWAP1 POP DUP1 PUSH1 0x0 ADD DUP1 SLOAD PUSH2 0xBDE SWAP1 PUSH2 0x239B JUMP JUMPDEST DUP1 PUSH1 0x1F ADD PUSH1 0x20 DUP1 SWAP2 DIV MUL PUSH1 0x20 ADD PUSH1 0x40 MLOAD SWAP1 DUP2 ADD PUSH1 0x40 MSTORE DUP1 SWAP3 SWAP2 SWAP1 DUP2 DUP2 MSTORE PUSH1 0x20 ADD DUP3 DUP1 SLOAD PUSH2 0xC0A SWAP1 PUSH2 0x239B JUMP JUMPDEST DUP1 ISZERO PUSH2 0xC57 JUMPI DUP1 PUSH1 0x1F LT PUSH2 0xC2C JUMPI PUSH2 0x100 DUP1 DUP4 SLOAD DIV MUL DUP4 MSTORE SWAP2 PUSH1 0x20 ADD SWAP2 PUSH2 0xC57 JUMP JUMPDEST DUP3 ADD SWAP2 SWAP1 PUSH1 0x0 MSTORE PUSH1 0x20 PUSH1 0x0 KECCAK256 SWAP1 JUMPDEST DUP2 SLOAD DUP2 MSTORE SWAP1 PUSH1 0x1 ADD SWAP1 PUSH1 0x20 ADD DUP1 DUP4 GT PUSH2 0xC3A JUMPI DUP3 SWAP1 SUB PUSH1 0x1F AND DUP3 ADD SWAP2 JUMPDEST POP POP POP POP POP SWAP1 DUP1 PUSH1 0x1 ADD DUP1 SLOAD PUSH2 0xC6C SWAP1 PUSH2 0x239B JUMP JUMPDEST DUP1 PUSH1 0x1F ADD PUSH1 0x20 DUP1 SWAP2 DIV MUL PUSH1 0x20 ADD PUSH1 0x40 MLOAD SWAP1 DUP2 ADD PUSH1 0x40 MSTORE DUP1 SWAP3 SWAP2 SWAP1 DUP2 DUP2 MSTORE PUSH1 0x20 ADD DUP3 DUP1 SLOAD PUSH2 0xC98 SWAP1 PUSH2 0x239B JUMP JUMPDEST DUP1 ISZERO PUSH2 0xCE5 JUMPI DUP1 PUSH1 0x1F LT PUSH2 0xCBA JUMPI PUSH2 0x100 DUP1 DUP4 SLOAD DIV MUL DUP4 MSTORE SWAP2 PUSH1 0x20 ADD SWAP2 PUSH2 0xCE5 JUMP JUMPDEST DUP3 ADD SWAP2 SWAP1 PUSH1 0x0 MSTORE PUSH1 0x20 PUSH1 0x0 KECCAK256 SWAP1 JUMPDEST DUP2 SLOAD DUP2 MSTORE SWAP1 PUSH1 0x1 ADD SWAP1 PUSH1 0x20 ADD DUP1 DUP4 GT PUSH2 0xCC8 JUMPI DUP3 SWAP1 SUB PUSH1 0x1F AND DUP3 ADD SWAP2 JUMPDEST POP POP POP POP POP SWAP1 DUP1 PUSH1 0x2 ADD PUSH1 0x0 SWAP1 SLOAD SWAP1 PUSH2 0x100 EXP SWAP1 DIV PUSH20 0xFFFFFFFFFFFFFFFFFFFFFFFFFFFFFFFFFFFFFFFF AND SWAP1 POP DUP4 JUMP JUMPDEST PUSH1 0x0 PUSH1 0x40 MLOAD DUP1 PUSH2 0x120 ADD PUSH1 0x40 MSTORE DUP1 DUP11 DUP2 MSTORE PUSH1 0x20 ADD DUP10 PUSH20 0xFFFFFFFFFFFFFFFFFFFFFFFFFFFFFFFFFFFFFFFF AND DUP2 MSTORE PUSH1 0x20 ADD DUP9 DUP2 MSTORE PUSH1 0x20 ADD DUP8 DUP2 MSTORE PUSH1 0x20 ADD DUP7 DUP2 MSTORE PUSH1 0x20 ADD DUP6 DUP2 MSTORE PUSH1 0x20 ADD PUSH1 0x0 PUSH1 0x3 DUP2 GT ISZERO PUSH2 0xD71 JUMPI PUSH2 0xD70 PUSH2 0x2476 JUMP JUMPDEST JUMPDEST DUP2 MSTORE PUSH1 0x20 ADD DUP5 PUSH1 0x2 DUP2 GT ISZERO PUSH2 0xD89 JUMPI PUSH2 0xD88 PUSH2 0x2476 JUMP JUMPDEST JUMPDEST DUP2 MSTORE PUSH1 0x20 ADD DUP4 PUSH1 0x2 DUP2 GT ISZERO PUSH2 0xDA1 JUMPI PUSH2 0xDA0 PUSH2 0x2476 JUMP JUMPDEST JUMPDEST DUP2 MSTORE POP SWAP1 POP PUSH1 0x5 DUP2 SWAP1 DUP1 PUSH1 0x1 DUP2 SLOAD ADD DUP1 DUP3 SSTORE DUP1 SWAP2 POP POP PUSH1 0x1 SWAP1 SUB SWAP1 PUSH1 0x0 MSTORE PUSH1 0x20 PUSH1 0x0 KECCAK256 SWAP1 PUSH1 0x7 MUL ADD PUSH1 0x0 SWAP1 SWAP2 SWAP1 SWAP2 SWAP1 SWAP2 POP PUSH1 0x0 DUP3 ADD MLOAD DUP2 PUSH1 0x0 ADD SWAP1 DUP1 MLOAD SWAP1 PUSH1 0x20 ADD SWAP1 PUSH2 0xDEE SWAP3 SWAP2 SWAP1 PUSH2 0x1794 JUMP JUMPDEST POP PUSH1 0x20 DUP3 ADD MLOAD DUP2 PUSH1 0x1 ADD PUSH1 0x0 PUSH2 0x100 EXP DUP2 SLOAD DUP2 PUSH20 0xFFFFFFFFFFFFFFFFFFFFFFFFFFFFFFFFFFFFFFFF MUL NOT AND SWAP1 DUP4 PUSH20 0xFFFFFFFFFFFFFFFFFFFFFFFFFFFFFFFFFFFFFFFF AND MUL OR SWAP1 SSTORE POP PUSH1 0x40 DUP3 ADD MLOAD DUP2 PUSH1 0x2 ADD SWAP1 DUP1 MLOAD SWAP1 PUSH1 0x20 ADD SWAP1 PUSH2 0xE52 SWAP3 SWAP2 SWAP1 PUSH2 0x1794 JUMP JUMPDEST POP PUSH1 0x60 DUP3 ADD MLOAD DUP2 PUSH1 0x3 ADD SWAP1 DUP1 MLOAD SWAP1 PUSH1 0x20 ADD SWAP1 PUSH2 0xE6F SWAP3 SWAP2 SWAP1 PUSH2 0x1794 JUMP JUMPDEST POP PUSH1 0x80 DUP3 ADD MLOAD DUP2 PUSH1 0x4 ADD SWAP1 DUP1 MLOAD SWAP1 PUSH1 0x20 ADD SWAP1 PUSH2 0xE8C SWAP3 SWAP2 SWAP1 PUSH2 0x1794 JUMP JUMPDEST POP PUSH1 0xA0 DUP3 ADD MLOAD DUP2 PUSH1 0x5 ADD SWAP1 DUP1 MLOAD SWAP1 PUSH1 0x20 ADD SWAP1 PUSH2 0xEA9 SWAP3 SWAP2 SWAP1 PUSH2 0x181A JUMP JUMPDEST POP PUSH1 0xC0 DUP3 ADD MLOAD DUP2 PUSH1 0x6 ADD PUSH1 0x0 PUSH2 0x100 EXP DUP2 SLOAD DUP2 PUSH1 0xFF MUL NOT AND SWAP1 DUP4 PUSH1 0x3 DUP2 GT ISZERO PUSH2 0xED5 JUMPI PUSH2 0xED4 PUSH2 0x2476 JUMP JUMPDEST JUMPDEST MUL OR SWAP1 SSTORE POP PUSH1 0xE0 DUP3 ADD MLOAD DUP2 PUSH1 0x6 ADD PUSH1 0x1 PUSH2 0x100 EXP DUP2 SLOAD DUP2 PUSH1 0xFF MUL NOT AND SWAP1 DUP4 PUSH1 0x2 DUP2 GT ISZERO PUSH2 0xF05 JUMPI PUSH2 0xF04 PUSH2 0x2476 JUMP JUMPDEST JUMPDEST MUL OR SWAP1 SSTORE POP PUSH2 0x100 DUP3 ADD MLOAD DUP2 PUSH1 0x6 ADD PUSH1 0x2 PUSH2 0x100 EXP DUP2 SLOAD DUP2 PUSH1 0xFF MUL NOT AND SWAP1 DUP4 PUSH1 0x2 DUP2 GT ISZERO PUSH2 0xF36 JUMPI PUSH2 0xF35 PUSH2 0x2476 JUMP JUMPDEST JUMPDEST MUL OR SWAP1 SSTORE POP POP POP PUSH1 0x4 DUP10 SWAP1 DUP1 PUSH1 0x1 DUP2 SLOAD ADD DUP1 DUP3 SSTORE DUP1 SWAP2 POP POP PUSH1 0x1 SWAP1 SUB SWAP1 PUSH1 0x0 MSTORE PUSH1 0x20 PUSH1 0x0 KECCAK256 ADD PUSH1 0x0 SWAP1 SWAP2 SWAP1 SWAP2 SWAP1 SWAP2 POP SWAP1 DUP1 MLOAD SWAP1 PUSH1 0x20 ADD SWAP1 PUSH2 0xF78 SWAP3 SWAP2 SWAP1 PUSH2 0x1794 JUMP JUMPDEST POP PUSH1 0x0 TIMESTAMP SWAP1 POP PUSH32 0x7F6E86BD639A1E66FA504D0D84D89554B326ECEF43566E763144EFB5F4A0D4BF DUP11 PUSH1 0x0 DUP4 PUSH1 0x40 MLOAD PUSH2 0xFB2 SWAP4 SWAP3 SWAP2 SWAP1 PUSH2 0x20EF JUMP JUMPDEST PUSH1 0x40 MLOAD DUP1 SWAP2 SUB SWAP1 LOG1 POP POP POP POP POP POP POP POP POP POP JUMP JUMPDEST PUSH1 0x60 DUP1 PUSH1 0x0 DUP1 JUMPDEST PUSH1 0x5 DUP1 SLOAD SWAP1 POP DUP2 LT ISZERO PUSH2 0x14CF JUMPI PUSH1 0x1 PUSH1 0x3 DUP2 GT ISZERO PUSH2 0xFEE JUMPI PUSH2 0xFED PUSH2 0x2476 JUMP JUMPDEST JUMPDEST PUSH1 0x5 DUP3 DUP2 SLOAD DUP2 LT PUSH2 0x1002 JUMPI PUSH2 0x1001 PUSH2 0x24D4 JUMP JUMPDEST JUMPDEST SWAP1 PUSH1 0x0 MSTORE PUSH1 0x20 PUSH1 0x0 KECCAK256 SWAP1 PUSH1 0x7 MUL ADD PUSH1 0x6 ADD PUSH1 0x0 SWAP1 SLOAD SWAP1 PUSH2 0x100 EXP SWAP1 DIV PUSH1 0xFF AND PUSH1 0x3 DUP2 GT ISZERO PUSH2 0x1033 JUMPI PUSH2 0x1032 PUSH2 0x2476 JUMP JUMPDEST JUMPDEST EQ ISZERO PUSH2 0x14BC JUMPI PUSH1 0x5 DUP2 DUP2 SLOAD DUP2 LT PUSH2 0x104D JUMPI PUSH2 0x104C PUSH2 0x24D4 JUMP JUMPDEST JUMPDEST SWAP1 PUSH1 0x0 MSTORE PUSH1 0x20 PUSH1 0x0 KECCAK256 SWAP1 PUSH1 0x7 MUL ADD PUSH1 0x40 MLOAD DUP1 PUSH2 0x120 ADD PUSH1 0x40 MSTORE SWAP1 DUP2 PUSH1 0x0 DUP3 ADD DUP1 SLOAD PUSH2 0x1077 SWAP1 PUSH2 0x239B JUMP JUMPDEST DUP1 PUSH1 0x1F ADD PUSH1 0x20 DUP1 SWAP2 DIV MUL PUSH1 0x20 ADD PUSH1 0x40 MLOAD SWAP1 DUP2 ADD PUSH1 0x40 MSTORE DUP1 SWAP3 SWAP2 SWAP1 DUP2 DUP2 MSTORE PUSH1 0x20 ADD DUP3 DUP1 SLOAD PUSH2 0x10A3 SWAP1 PUSH2 0x239B JUMP JUMPDEST DUP1 ISZERO PUSH2 0x10F0 JUMPI DUP1 PUSH1 0x1F LT PUSH2 0x10C5 JUMPI PUSH2 0x100 DUP1 DUP4 SLOAD DIV MUL DUP4 MSTORE SWAP2 PUSH1 0x20 ADD SWAP2 PUSH2 0x10F0 JUMP JUMPDEST DUP3 ADD SWAP2 SWAP1 PUSH1 0x0 MSTORE PUSH1 0x20 PUSH1 0x0 KECCAK256 SWAP1 JUMPDEST DUP2 SLOAD DUP2 MSTORE SWAP1 PUSH1 0x1 ADD SWAP1 PUSH1 0x20 ADD DUP1 DUP4 GT PUSH2 0x10D3 JUMPI DUP3 SWAP1 SUB PUSH1 0x1F AND DUP3 ADD SWAP2 JUMPDEST POP POP POP POP POP DUP2 MSTORE PUSH1 0x20 ADD PUSH1 0x1 DUP3 ADD PUSH1 0x0 SWAP1 SLOAD SWAP1 PUSH2 0x100 EXP SWAP1 DIV PUSH20 0xFFFFFFFFFFFFFFFFFFFFFFFFFFFFFFFFFFFFFFFF AND PUSH20 0xFFFFFFFFFFFFFFFFFFFFFFFFFFFFFFFFFFFFFFFF AND PUSH20 0xFFFFFFFFFFFFFFFFFFFFFFFFFFFFFFFFFFFFFFFF AND DUP2 MSTORE PUSH1 0x20 ADD PUSH1 0x2 DUP3 ADD DUP1 SLOAD PUSH2 0x115F SWAP1 PUSH2 0x239B JUMP JUMPDEST DUP1 PUSH1 0x1F ADD PUSH1 0x20 DUP1 SWAP2 DIV MUL PUSH1 0x20 ADD PUSH1 0x40 MLOAD SWAP1 DUP2 ADD PUSH1 0x40 MSTORE DUP1 SWAP3 SWAP2 SWAP1 DUP2 DUP2 MSTORE PUSH1 0x20 ADD DUP3 DUP1 SLOAD PUSH2 0x118B SWAP1 PUSH2 0x239B JUMP JUMPDEST DUP1 ISZERO PUSH2 0x11D8 JUMPI DUP1 PUSH1 0x1F LT PUSH2 0x11AD JUMPI PUSH2 0x100 DUP1 DUP4 SLOAD DIV MUL DUP4 MSTORE SWAP2 PUSH1 0x20 ADD SWAP2 PUSH2 0x11D8 JUMP JUMPDEST DUP3 ADD SWAP2 SWAP1 PUSH1 0x0 MSTORE PUSH1 0x20 PUSH1 0x0 KECCAK256 SWAP1 JUMPDEST DUP2 SLOAD DUP2 MSTORE SWAP1 PUSH1 0x1 ADD SWAP1 PUSH1 0x20 ADD DUP1 DUP4 GT PUSH2 0x11BB JUMPI DUP3 SWAP1 SUB PUSH1 0x1F AND DUP3 ADD SWAP2 JUMPDEST POP POP POP POP POP DUP2 MSTORE PUSH1 0x20 ADD PUSH1 0x3 DUP3 ADD DUP1 SLOAD PUSH2 0x11F1 SWAP1 PUSH2 0x239B JUMP JUMPDEST DUP1 PUSH1 0x1F ADD PUSH1 0x20 DUP1 SWAP2 DIV MUL PUSH1 0x20 ADD PUSH1 0x40 MLOAD SWAP1 DUP2 ADD PUSH1 0x40 MSTORE DUP1 SWAP3 SWAP2 SWAP1 DUP2 DUP2 MSTORE PUSH1 0x20 ADD DUP3 DUP1 SLOAD PUSH2 0x121D SWAP1 PUSH2 0x239B JUMP JUMPDEST DUP1 ISZERO PUSH2 0x126A JUMPI DUP1 PUSH1 0x1F LT PUSH2 0x123F JUMPI PUSH2 0x100 DUP1 DUP4 SLOAD DIV MUL DUP4 MSTORE SWAP2 PUSH1 0x20 ADD SWAP2 PUSH2 0x126A JUMP JUMPDEST DUP3 ADD SWAP2 SWAP1 PUSH1 0x0 MSTORE PUSH1 0x20 PUSH1 0x0 KECCAK256 SWAP1 JUMPDEST DUP2 SLOAD DUP2 MSTORE SWAP1 PUSH1 0x1 ADD SWAP1 PUSH1 0x20 ADD DUP1 DUP4 GT PUSH2 0x124D JUMPI DUP3 SWAP1 SUB PUSH1 0x1F AND DUP3 ADD SWAP2 JUMPDEST POP POP POP POP POP DUP2 MSTORE PUSH1 0x20 ADD PUSH1 0x4 DUP3 ADD DUP1 SLOAD PUSH2 0x1283 SWAP1 PUSH2 0x239B JUMP JUMPDEST DUP1 PUSH1 0x1F ADD PUSH1 0x20 DUP1 SWAP2 DIV MUL PUSH1 0x20 ADD PUSH1 0x40 MLOAD SWAP1 DUP2 ADD PUSH1 0x40 MSTORE DUP1 SWAP3 SWAP2 SWAP1 DUP2 DUP2 MSTORE PUSH1 0x20 ADD DUP3 DUP1 SLOAD PUSH2 0x12AF SWAP1 PUSH2 0x239B JUMP JUMPDEST DUP1 ISZERO PUSH2 0x12FC JUMPI DUP1 PUSH1 0x1F LT PUSH2 0x12D1 JUMPI PUSH2 0x100 DUP1 DUP4 SLOAD DIV MUL DUP4 MSTORE SWAP2 PUSH1 0x20 ADD SWAP2 PUSH2 0x12FC JUMP JUMPDEST DUP3 ADD SWAP2 SWAP1 PUSH1 0x0 MSTORE PUSH1 0x20 PUSH1 0x0 KECCAK256 SWAP1 JUMPDEST DUP2 SLOAD DUP2 MSTORE SWAP1 PUSH1 0x1 ADD SWAP1 PUSH1 0x20 ADD DUP1 DUP4 GT PUSH2 0x12DF JUMPI DUP3 SWAP1 SUB PUSH1 0x1F AND DUP3 ADD SWAP2 JUMPDEST POP POP POP POP POP DUP2 MSTORE PUSH1 0x20 ADD PUSH1 0x5 DUP3 ADD DUP1 SLOAD DUP1 PUSH1 0x20 MUL PUSH1 0x20 ADD PUSH1 0x40 MLOAD SWAP1 DUP2 ADD PUSH1 0x40 MSTORE DUP1 SWAP3 SWAP2 SWAP1 DUP2 DUP2 MSTORE PUSH1 0x20 ADD PUSH1 0x0 SWAP1 JUMPDEST DUP3 DUP3 LT ISZERO PUSH2 0x13D6 JUMPI DUP4 DUP3 SWAP1 PUSH1 0x0 MSTORE PUSH1 0x20 PUSH1 0x0 KECCAK256 ADD DUP1 SLOAD PUSH2 0x1349 SWAP1 PUSH2 0x239B JUMP JUMPDEST DUP1 PUSH1 0x1F ADD PUSH1 0x20 DUP1 SWAP2 DIV MUL PUSH1 0x20 ADD PUSH1 0x40 MLOAD SWAP1 DUP2 ADD PUSH1 0x40 MSTORE DUP1 SWAP3 SWAP2 SWAP1 DUP2 DUP2 MSTORE PUSH1 0x20 ADD DUP3 DUP1 SLOAD PUSH2 0x1375 SWAP1 PUSH2 0x239B JUMP JUMPDEST DUP1 ISZERO PUSH2 0x13C2 JUMPI DUP1 PUSH1 0x1F LT PUSH2 0x1397 JUMPI PUSH2 0x100 DUP1 DUP4 SLOAD DIV MUL DUP4 MSTORE SWAP2 PUSH1 0x20 ADD SWAP2 PUSH2 0x13C2 JUMP JUMPDEST DUP3 ADD SWAP2 SWAP1 PUSH1 0x0 MSTORE PUSH1 0x20 PUSH1 0x0 KECCAK256 SWAP1 JUMPDEST DUP2 SLOAD DUP2 MSTORE SWAP1 PUSH1 0x1 ADD SWAP1 PUSH1 0x20 ADD DUP1 DUP4 GT PUSH2 0x13A5 JUMPI DUP3 SWAP1 SUB PUSH1 0x1F AND DUP3 ADD SWAP2 JUMPDEST POP POP POP POP POP DUP2 MSTORE PUSH1 0x20 ADD SWAP1 PUSH1 0x1 ADD SWAP1 PUSH2 0x132A JUMP JUMPDEST POP POP POP POP DUP2 MSTORE PUSH1 0x20 ADD PUSH1 0x6 DUP3 ADD PUSH1 0x0 SWAP1 SLOAD SWAP1 PUSH2 0x100 EXP SWAP1 DIV PUSH1 0xFF AND PUSH1 0x3 DUP2 GT ISZERO PUSH2 0x1403 JUMPI PUSH2 0x1402 PUSH2 0x2476 JUMP JUMPDEST JUMPDEST PUSH1 0x3 DUP2 GT ISZERO PUSH2 0x1415 JUMPI PUSH2 0x1414 PUSH2 0x2476 JUMP JUMPDEST JUMPDEST DUP2 MSTORE PUSH1 0x20 ADD PUSH1 0x6 DUP3 ADD PUSH1 0x1 SWAP1 SLOAD SWAP1 PUSH2 0x100 EXP SWAP1 DIV PUSH1 0xFF AND PUSH1 0x2 DUP2 GT ISZERO PUSH2 0x143E JUMPI PUSH2 0x143D PUSH2 0x2476 JUMP JUMPDEST JUMPDEST PUSH1 0x2 DUP2 GT ISZERO PUSH2 0x1450 JUMPI PUSH2 0x144F PUSH2 0x2476 JUMP JUMPDEST JUMPDEST DUP2 MSTORE PUSH1 0x20 ADD PUSH1 0x6 DUP3 ADD PUSH1 0x2 SWAP1 SLOAD SWAP1 PUSH2 0x100 EXP SWAP1 DIV PUSH1 0xFF AND PUSH1 0x2 DUP2 GT ISZERO PUSH2 0x1479 JUMPI PUSH2 0x1478 PUSH2 0x2476 JUMP JUMPDEST JUMPDEST PUSH1 0x2 DUP2 GT ISZERO PUSH2 0x148B JUMPI PUSH2 0x148A PUSH2 0x2476 JUMP JUMPDEST JUMPDEST DUP2 MSTORE POP POP DUP4 DUP4 DUP2 MLOAD DUP2 LT PUSH2 0x14A2 JUMPI PUSH2 0x14A1 PUSH2 0x24D4 JUMP JUMPDEST JUMPDEST PUSH1 0x20 MUL PUSH1 0x20 ADD ADD DUP2 SWAP1 MSTORE POP DUP2 DUP1 PUSH2 0x14B8 SWAP1 PUSH2 0x23FE JUMP JUMPDEST SWAP3 POP POP JUMPDEST DUP1 DUP1 PUSH2 0x14C7 SWAP1 PUSH2 0x23FE JUMP JUMPDEST SWAP2 POP POP PUSH2 0xFCD JUMP JUMPDEST POP DUP2 SWAP3 POP POP POP SWAP1 JUMP JUMPDEST PUSH1 0x2 PUSH1 0x20 MSTORE DUP1 PUSH1 0x0 MSTORE PUSH1 0x40 PUSH1 0x0 KECCAK256 PUSH1 0x0 SWAP2 POP SWAP1 POP DUP1 PUSH1 0x0 ADD DUP1 SLOAD PUSH2 0x14FB SWAP1 PUSH2 0x239B JUMP JUMPDEST DUP1 PUSH1 0x1F ADD PUSH1 0x20 DUP1 SWAP2 DIV MUL PUSH1 0x20 ADD PUSH1 0x40 MLOAD SWAP1 DUP2 ADD PUSH1 0x40 MSTORE DUP1 SWAP3 SWAP2 SWAP1 DUP2 DUP2 MSTORE PUSH1 0x20 ADD DUP3 DUP1 SLOAD PUSH2 0x1527 SWAP1 PUSH2 0x239B JUMP JUMPDEST DUP1 ISZERO PUSH2 0x1574 JUMPI DUP1 PUSH1 0x1F LT PUSH2 0x1549 JUMPI PUSH2 0x100 DUP1 DUP4 SLOAD DIV MUL DUP4 MSTORE SWAP2 PUSH1 0x20 ADD SWAP2 PUSH2 0x1574 JUMP JUMPDEST DUP3 ADD SWAP2 SWAP1 PUSH1 0x0 MSTORE PUSH1 0x20 PUSH1 0x0 KECCAK256 SWAP1 JUMPDEST DUP2 SLOAD DUP2 MSTORE SWAP1 PUSH1 0x1 ADD SWAP1 PUSH1 0x20 ADD DUP1 DUP4 GT PUSH2 0x1557 JUMPI DUP3 SWAP1 SUB PUSH1 0x1F AND DUP3 ADD SWAP2 JUMPDEST POP POP POP POP POP SWAP1 DUP1 PUSH1 0x1 ADD PUSH1 0x0 SWAP1 SLOAD SWAP1 PUSH2 0x100 EXP SWAP1 DIV PUSH20 0xFFFFFFFFFFFFFFFFFFFFFFFFFFFFFFFFFFFFFFFF AND SWAP1 DUP1 PUSH1 0x2 ADD DUP1 SLOAD PUSH2 0x15AF SWAP1 PUSH2 0x239B JUMP JUMPDEST DUP1 PUSH1 0x1F ADD PUSH1 0x20 DUP1 SWAP2 DIV MUL PUSH1 0x20 ADD PUSH1 0x40 MLOAD SWAP1 DUP2 ADD PUSH1 0x40 MSTORE DUP1 SWAP3 SWAP2 SWAP1 DUP2 DUP2 MSTORE PUSH1 0x20 ADD DUP3 DUP1 SLOAD PUSH2 0x15DB SWAP1 PUSH2 0x239B JUMP JUMPDEST DUP1 ISZERO PUSH2 0x1628 JUMPI DUP1 PUSH1 0x1F LT PUSH2 0x15FD JUMPI PUSH2 0x100 DUP1 DUP4 SLOAD DIV MUL DUP4 MSTORE SWAP2 PUSH1 0x20 ADD SWAP2 PUSH2 0x1628 JUMP JUMPDEST DUP3 ADD SWAP2 SWAP1 PUSH1 0x0 MSTORE PUSH1 0x20 PUSH1 0x0 KECCAK256 SWAP1 JUMPDEST DUP2 SLOAD DUP2 MSTORE SWAP1 PUSH1 0x1 ADD SWAP1 PUSH1 0x20 ADD DUP1 DUP4 GT PUSH2 0x160B JUMPI DUP3 SWAP1 SUB PUSH1 0x1F AND DUP3 ADD SWAP2 JUMPDEST POP POP POP POP POP SWAP1 DUP1 PUSH1 0x3 ADD DUP1 SLOAD PUSH2 0x163D SWAP1 PUSH2 0x239B JUMP JUMPDEST DUP1 PUSH1 0x1F ADD PUSH1 0x20 DUP1 SWAP2 DIV MUL PUSH1 0x20 ADD PUSH1 0x40 MLOAD SWAP1 DUP2 ADD PUSH1 0x40 MSTORE DUP1 SWAP3 SWAP2 SWAP1 DUP2 DUP2 MSTORE PUSH1 0x20 ADD DUP3 DUP1 SLOAD PUSH2 0x1669 SWAP1 PUSH2 0x239B JUMP JUMPDEST DUP1 ISZERO PUSH2 0x16B6 JUMPI DUP1 PUSH1 0x1F LT PUSH2 0x168B JUMPI PUSH2 0x100 DUP1 DUP4 SLOAD DIV MUL DUP4 MSTORE SWAP2 PUSH1 0x20 ADD SWAP2 PUSH2 0x16B6 JUMP JUMPDEST DUP3 ADD SWAP2 SWAP1 PUSH1 0x0 MSTORE PUSH1 0x20 PUSH1 0x0 KECCAK256 SWAP1 JUMPDEST DUP2 SLOAD DUP2 MSTORE SWAP1 PUSH1 0x1 ADD SWAP1 PUSH1 0x20 ADD DUP1 DUP4 GT PUSH2 0x1699 JUMPI DUP3 SWAP1 SUB PUSH1 0x1F AND DUP3 ADD SWAP2 JUMPDEST POP POP POP POP POP SWAP1 DUP1 PUSH1 0x4 ADD DUP1 SLOAD PUSH2 0x16CB SWAP1 PUSH2 0x239B JUMP JUMPDEST DUP1 PUSH1 0x1F ADD PUSH1 0x20 DUP1 SWAP2 DIV MUL PUSH1 0x20 ADD PUSH1 0x40 MLOAD SWAP1 DUP2 ADD PUSH1 0x40 MSTORE DUP1 SWAP3 SWAP2 SWAP1 DUP2 DUP2 MSTORE PUSH1 0x20 ADD DUP3 DUP1 SLOAD PUSH2 0x16F7 SWAP1 PUSH2 0x239B JUMP JUMPDEST DUP1 ISZERO PUSH2 0x1744 JUMPI DUP1 PUSH1 0x1F LT PUSH2 0x1719 JUMPI PUSH2 0x100 DUP1 DUP4 SLOAD DIV MUL DUP4 MSTORE SWAP2 PUSH1 0x20 ADD SWAP2 PUSH2 0x1744 JUMP JUMPDEST DUP3 ADD SWAP2 SWAP1 PUSH1 0x0 MSTORE PUSH1 0x20 PUSH1 0x0 KECCAK256 SWAP1 JUMPDEST DUP2 SLOAD DUP2 MSTORE SWAP1 PUSH1 0x1 ADD SWAP1 PUSH1 0x20 ADD DUP1 DUP4 GT PUSH2 0x1727 JUMPI DUP3 SWAP1 SUB PUSH1 0x1F AND DUP3 ADD SWAP2 JUMPDEST POP POP POP POP POP SWAP1 DUP1 PUSH1 0x6 ADD PUSH1 0x0 SWAP1 SLOAD SWAP1 PUSH2 0x100 EXP SWAP1 DIV PUSH1 0xFF AND SWAP1 DUP1 PUSH1 0x6 ADD PUSH1 0x1 SWAP1 SLOAD SWAP1 PUSH2 0x100 EXP SWAP1 DIV PUSH1 0xFF AND SWAP1 DUP1 PUSH1 0x6 ADD PUSH1 0x2 SWAP1 SLOAD SWAP1 PUSH2 0x100 EXP SWAP1 DIV PUSH1 0xFF AND SWAP1 POP DUP9 JUMP JUMPDEST PUSH1 0x0 PUSH1 0x5 DUP1 SLOAD SWAP1 POP SWAP1 POP SWAP1 JUMP JUMPDEST DUP3 DUP1 SLOAD PUSH2 0x17A0 SWAP1 PUSH2 0x239B JUMP JUMPDEST SWAP1 PUSH1 0x0 MSTORE PUSH1 0x20 PUSH1 0x0 KECCAK256 SWAP1 PUSH1 0x1F ADD PUSH1 0x20 SWAP1 DIV DUP2 ADD SWAP3 DUP3 PUSH2 0x17C2 JUMPI PUSH1 0x0 DUP6 SSTORE PUSH2 0x1809 JUMP JUMPDEST DUP3 PUSH1 0x1F LT PUSH2 0x17DB JUMPI DUP1 MLOAD PUSH1 0xFF NOT AND DUP4 DUP1 ADD OR DUP6 SSTORE PUSH2 0x1809 JUMP JUMPDEST DUP3 DUP1 ADD PUSH1 0x1 ADD DUP6 SSTORE DUP3 ISZERO PUSH2 0x1809 JUMPI SWAP2 DUP3 ADD JUMPDEST DUP3 DUP2 GT ISZERO PUSH2 0x1808 JUMPI DUP3 MLOAD DUP3 SSTORE SWAP2 PUSH1 0x20 ADD SWAP2 SWAP1 PUSH1 0x1 ADD SWAP1 PUSH2 0x17ED JUMP JUMPDEST JUMPDEST POP SWAP1 POP PUSH2 0x1816 SWAP2 SWAP1 PUSH2 0x187A JUMP JUMPDEST POP SWAP1 JUMP JUMPDEST DUP3 DUP1 SLOAD DUP3 DUP3 SSTORE SWAP1 PUSH1 0x0 MSTORE PUSH1 0x20 PUSH1 0x0 KECCAK256 SWAP1 DUP2 ADD SWAP3 DUP3 ISZERO PUSH2 0x1869 JUMPI SWAP2 PUSH1 0x20 MUL DUP3 ADD JUMPDEST DUP3 DUP2 GT ISZERO PUSH2 0x1868 JUMPI DUP3 MLOAD DUP3 SWAP1 DUP1 MLOAD SWAP1 PUSH1 0x20 ADD SWAP1 PUSH2 0x1858 SWAP3 SWAP2 SWAP1 PUSH2 0x1794 JUMP JUMPDEST POP SWAP2 PUSH1 0x20 ADD SWAP2 SWAP1 PUSH1 0x1 ADD SWAP1 PUSH2 0x183A JUMP JUMPDEST JUMPDEST POP SWAP1 POP PUSH2 0x1876 SWAP2 SWAP1 PUSH2 0x1897 JUMP JUMPDEST POP SWAP1 JUMP JUMPDEST JUMPDEST DUP1 DUP3 GT ISZERO PUSH2 0x1893 JUMPI PUSH1 0x0 DUP2 PUSH1 0x0 SWAP1 SSTORE POP PUSH1 0x1 ADD PUSH2 0x187B JUMP JUMPDEST POP SWAP1 JUMP JUMPDEST JUMPDEST DUP1 DUP3 GT ISZERO PUSH2 0x18B7 JUMPI PUSH1 0x0 DUP2 DUP2 PUSH2 0x18AE SWAP2 SWAP1 PUSH2 0x18BB JUMP JUMPDEST POP PUSH1 0x1 ADD PUSH2 0x1898 JUMP JUMPDEST POP SWAP1 JUMP JUMPDEST POP DUP1 SLOAD PUSH2 0x18C7 SWAP1 PUSH2 0x239B JUMP JUMPDEST PUSH1 0x0 DUP3 SSTORE DUP1 PUSH1 0x1F LT PUSH2 0x18D9 JUMPI POP PUSH2 0x18F8 JUMP JUMPDEST PUSH1 0x1F ADD PUSH1 0x20 SWAP1 DIV SWAP1 PUSH1 0x0 MSTORE PUSH1 0x20 PUSH1 0x0 KECCAK256 SWAP1 DUP2 ADD SWAP1 PUSH2 0x18F7 SWAP2 SWAP1 PUSH2 0x187A JUMP JUMPDEST JUMPDEST POP JUMP JUMPDEST PUSH1 0x0 PUSH2 0x190E PUSH2 0x1909 DUP5 PUSH2 0x21B2 JUMP JUMPDEST PUSH2 0x218D JUMP JUMPDEST SWAP1 POP DUP1 DUP4 DUP3 MSTORE PUSH1 0x20 DUP3 ADD SWAP1 POP DUP3 DUP6 PUSH1 0x20 DUP7 MUL DUP3 ADD GT ISZERO PUSH2 0x1931 JUMPI PUSH2 0x1930 PUSH2 0x2537 JUMP JUMPDEST JUMPDEST PUSH1 0x0 JUMPDEST DUP6 DUP2 LT ISZERO PUSH2 0x197F JUMPI DUP2 CALLDATALOAD PUSH8 0xFFFFFFFFFFFFFFFF DUP2 GT ISZERO PUSH2 0x1957 JUMPI PUSH2 0x1956 PUSH2 0x2532 JUMP JUMPDEST JUMPDEST DUP1 DUP7 ADD PUSH2 0x1964 DUP10 DUP3 PUSH2 0x1A4D JUMP JUMPDEST DUP6 MSTORE PUSH1 0x20 DUP6 ADD SWAP5 POP PUSH1 0x20 DUP5 ADD SWAP4 POP POP POP PUSH1 0x1 DUP2 ADD SWAP1 POP PUSH2 0x1934 JUMP JUMPDEST POP POP POP SWAP4 SWAP3 POP POP POP JUMP JUMPDEST PUSH1 0x0 PUSH2 0x199C PUSH2 0x1997 DUP5 PUSH2 0x21DE JUMP JUMPDEST PUSH2 0x218D JUMP JUMPDEST SWAP1 POP DUP3 DUP2 MSTORE PUSH1 0x20 DUP2 ADD DUP5 DUP5 DUP5 ADD GT ISZERO PUSH2 0x19B8 JUMPI PUSH2 0x19B7 PUSH2 0x253C JUMP JUMPDEST JUMPDEST PUSH2 0x19C3 DUP5 DUP3 DUP6 PUSH2 0x2359 JUMP JUMPDEST POP SWAP4 SWAP3 POP POP POP JUMP JUMPDEST PUSH1 0x0 DUP2 CALLDATALOAD SWAP1 POP PUSH2 0x19DA DUP2 PUSH2 0x2598 JUMP JUMPDEST SWAP3 SWAP2 POP POP JUMP JUMPDEST PUSH1 0x0 DUP3 PUSH1 0x1F DUP4 ADD SLT PUSH2 0x19F5 JUMPI PUSH2 0x19F4 PUSH2 0x2532 JUMP JUMPDEST JUMPDEST DUP2 CALLDATALOAD PUSH2 0x1A05 DUP5 DUP3 PUSH1 0x20 DUP7 ADD PUSH2 0x18FB JUMP JUMPDEST SWAP2 POP POP SWAP3 SWAP2 POP POP JUMP JUMPDEST PUSH1 0x0 DUP2 CALLDATALOAD SWAP1 POP PUSH2 0x1A1D DUP2 PUSH2 0x25AF JUMP JUMPDEST SWAP3 SWAP2 POP POP JUMP JUMPDEST PUSH1 0x0 DUP2 CALLDATALOAD SWAP1 POP PUSH2 0x1A32 DUP2 PUSH2 0x25BF JUMP JUMPDEST SWAP3 SWAP2 POP POP JUMP JUMPDEST PUSH1 0x0 DUP2 CALLDATALOAD SWAP1 POP PUSH2 0x1A47 DUP2 PUSH2 0x25CF JUMP JUMPDEST SWAP3 SWAP2 POP POP JUMP JUMPDEST PUSH1 0x0 DUP3 PUSH1 0x1F DUP4 ADD SLT PUSH2 0x1A62 JUMPI PUSH2 0x1A61 PUSH2 0x2532 JUMP JUMPDEST JUMPDEST DUP2 CALLDATALOAD PUSH2 0x1A72 DUP5 DUP3 PUSH1 0x20 DUP7 ADD PUSH2 0x1989 JUMP JUMPDEST SWAP2 POP POP SWAP3 SWAP2 POP POP JUMP JUMPDEST PUSH1 0x0 DUP2 CALLDATALOAD SWAP1 POP PUSH2 0x1A8A DUP2 PUSH2 0x25DF JUMP JUMPDEST SWAP3 SWAP2 POP POP JUMP JUMPDEST PUSH1 0x0 DUP1 PUSH1 0x0 DUP1 PUSH1 0x0 DUP1 PUSH1 0x0 DUP1 PUSH2 0x100 DUP10 DUP12 SUB SLT ISZERO PUSH2 0x1AB1 JUMPI PUSH2 0x1AB0 PUSH2 0x2546 JUMP JUMPDEST JUMPDEST PUSH1 0x0 DUP10 ADD CALLDATALOAD PUSH8 0xFFFFFFFFFFFFFFFF DUP2 GT ISZERO PUSH2 0x1ACF JUMPI PUSH2 0x1ACE PUSH2 0x2541 JUMP JUMPDEST JUMPDEST PUSH2 0x1ADB DUP12 DUP3 DUP13 ADD PUSH2 0x1A4D JUMP JUMPDEST SWAP9 POP POP PUSH1 0x20 PUSH2 0x1AEC DUP12 DUP3 DUP13 ADD PUSH2 0x19CB JUMP JUMPDEST SWAP8 POP POP PUSH1 0x40 DUP10 ADD CALLDATALOAD PUSH8 0xFFFFFFFFFFFFFFFF DUP2 GT ISZERO PUSH2 0x1B0D JUMPI PUSH2 0x1B0C PUSH2 0x2541 JUMP JUMPDEST JUMPDEST PUSH2 0x1B19 DUP12 DUP3 DUP13 ADD PUSH2 0x1A4D JUMP JUMPDEST SWAP7 POP POP PUSH1 0x60 DUP10 ADD CALLDATALOAD PUSH8 0xFFFFFFFFFFFFFFFF DUP2 GT ISZERO PUSH2 0x1B3A JUMPI PUSH2 0x1B39 PUSH2 0x2541 JUMP JUMPDEST JUMPDEST PUSH2 0x1B46 DUP12 DUP3 DUP13 ADD PUSH2 0x1A4D JUMP JUMPDEST SWAP6 POP POP PUSH1 0x80 DUP10 ADD CALLDATALOAD PUSH8 0xFFFFFFFFFFFFFFFF DUP2 GT ISZERO PUSH2 0x1B67 JUMPI PUSH2 0x1B66 PUSH2 0x2541 JUMP JUMPDEST JUMPDEST PUSH2 0x1B73 DUP12 DUP3 DUP13 ADD PUSH2 0x1A4D JUMP JUMPDEST SWAP5 POP POP PUSH1 0xA0 DUP10 ADD CALLDATALOAD PUSH8 0xFFFFFFFFFFFFFFFF DUP2 GT ISZERO PUSH2 0x1B94 JUMPI PUSH2 0x1B93 PUSH2 0x2541 JUMP JUMPDEST JUMPDEST PUSH2 0x1BA0 DUP12 DUP3 DUP13 ADD PUSH2 0x19E0 JUMP JUMPDEST SWAP4 POP POP PUSH1 0xC0 PUSH2 0x1BB1 DUP12 DUP3 DUP13 ADD PUSH2 0x1A0E JUMP JUMPDEST SWAP3 POP POP PUSH1 0xE0 PUSH2 0x1BC2 DUP12 DUP3 DUP13 ADD PUSH2 0x1A38 JUMP JUMPDEST SWAP2 POP POP SWAP3 SWAP6 SWAP9 POP SWAP3 SWAP6 SWAP9 SWAP1 SWAP4 SWAP7 POP JUMP JUMPDEST PUSH1 0x0 DUP1 PUSH1 0x40 DUP4 DUP6 SUB SLT ISZERO PUSH2 0x1BE9 JUMPI PUSH2 0x1BE8 PUSH2 0x2546 JUMP JUMPDEST JUMPDEST PUSH1 0x0 DUP4 ADD CALLDATALOAD PUSH8 0xFFFFFFFFFFFFFFFF DUP2 GT ISZERO PUSH2 0x1C07 JUMPI PUSH2 0x1C06 PUSH2 0x2541 JUMP JUMPDEST JUMPDEST PUSH2 0x1C13 DUP6 DUP3 DUP7 ADD PUSH2 0x1A4D JUMP JUMPDEST SWAP3 POP POP PUSH1 0x20 PUSH2 0x1C24 DUP6 DUP3 DUP7 ADD PUSH2 0x1A23 JUMP JUMPDEST SWAP2 POP POP SWAP3 POP SWAP3 SWAP1 POP JUMP JUMPDEST PUSH1 0x0 PUSH1 0x20 DUP3 DUP5 SUB SLT ISZERO PUSH2 0x1C44 JUMPI PUSH2 0x1C43 PUSH2 0x2546 JUMP JUMPDEST JUMPDEST PUSH1 0x0 PUSH2 0x1C52 DUP5 DUP3 DUP6 ADD PUSH2 0x1A7B JUMP JUMPDEST SWAP2 POP POP SWAP3 SWAP2 POP POP JUMP JUMPDEST PUSH1 0x0 PUSH2 0x1C67 DUP4 DUP4 PUSH2 0x1DE5 JUMP JUMPDEST SWAP1 POP SWAP3 SWAP2 POP POP JUMP JUMPDEST PUSH1 0x0 PUSH2 0x1C7B DUP4 DUP4 PUSH2 0x1E57 JUMP JUMPDEST SWAP1 POP SWAP3 SWAP2 POP POP JUMP JUMPDEST PUSH2 0x1C8C DUP2 PUSH2 0x22AE JUMP JUMPDEST DUP3 MSTORE POP POP JUMP JUMPDEST PUSH2 0x1C9B DUP2 PUSH2 0x22AE JUMP JUMPDEST DUP3 MSTORE POP POP JUMP JUMPDEST PUSH1 0x0 PUSH2 0x1CAC DUP3 PUSH2 0x222F JUMP JUMPDEST PUSH2 0x1CB6 DUP2 DUP6 PUSH2 0x226A JUMP JUMPDEST SWAP4 POP DUP4 PUSH1 0x20 DUP3 MUL DUP6 ADD PUSH2 0x1CC8 DUP6 PUSH2 0x220F JUMP JUMPDEST DUP1 PUSH1 0x0 JUMPDEST DUP6 DUP2 LT ISZERO PUSH2 0x1D04 JUMPI DUP5 DUP5 SUB DUP10 MSTORE DUP2 MLOAD PUSH2 0x1CE5 DUP6 DUP3 PUSH2 0x1C5B JUMP JUMPDEST SWAP5 POP PUSH2 0x1CF0 DUP4 PUSH2 0x2250 JUMP JUMPDEST SWAP3 POP PUSH1 0x20 DUP11 ADD SWAP10 POP POP PUSH1 0x1 DUP2 ADD SWAP1 POP PUSH2 0x1CCC JUMP JUMPDEST POP DUP3 SWAP8 POP DUP8 SWAP6 POP POP POP POP POP POP SWAP3 SWAP2 POP POP JUMP JUMPDEST PUSH1 0x0 PUSH2 0x1D21 DUP3 PUSH2 0x223A JUMP JUMPDEST PUSH2 0x1D2B DUP2 DUP6 PUSH2 0x227B JUMP JUMPDEST SWAP4 POP DUP4 PUSH1 0x20 DUP3 MUL DUP6 ADD PUSH2 0x1D3D DUP6 PUSH2 0x221F JUMP JUMPDEST DUP1 PUSH1 0x0 JUMPDEST DUP6 DUP2 LT ISZERO PUSH2 0x1D79 JUMPI DUP5 DUP5 SUB DUP10 MSTORE DUP2 MLOAD PUSH2 0x1D5A DUP6 DUP3 PUSH2 0x1C6F JUMP JUMPDEST SWAP5 POP PUSH2 0x1D65 DUP4 PUSH2 0x225D JUMP JUMPDEST SWAP3 POP PUSH1 0x20 DUP11 ADD SWAP10 POP POP PUSH1 0x1 DUP2 ADD SWAP1 POP PUSH2 0x1D41 JUMP JUMPDEST POP DUP3 SWAP8 POP DUP8 SWAP6 POP POP POP POP POP POP SWAP3 SWAP2 POP POP JUMP JUMPDEST PUSH2 0x1D94 DUP2 PUSH2 0x2323 JUMP JUMPDEST DUP3 MSTORE POP POP JUMP JUMPDEST PUSH2 0x1DA3 DUP2 PUSH2 0x2323 JUMP JUMPDEST DUP3 MSTORE POP POP JUMP JUMPDEST PUSH2 0x1DB2 DUP2 PUSH2 0x2335 JUMP JUMPDEST DUP3 MSTORE POP POP JUMP JUMPDEST PUSH2 0x1DC1 DUP2 PUSH2 0x2335 JUMP JUMPDEST DUP3 MSTORE POP POP JUMP JUMPDEST PUSH2 0x1DD0 DUP2 PUSH2 0x2347 JUMP JUMPDEST DUP3 MSTORE POP POP JUMP JUMPDEST PUSH2 0x1DDF DUP2 PUSH2 0x2347 JUMP JUMPDEST DUP3 MSTORE POP POP JUMP JUMPDEST PUSH1 0x0 PUSH2 0x1DF0 DUP3 PUSH2 0x2245 JUMP JUMPDEST PUSH2 0x1DFA DUP2 DUP6 PUSH2 0x228C JUMP JUMPDEST SWAP4 POP PUSH2 0x1E0A DUP2 DUP6 PUSH1 0x20 DUP7 ADD PUSH2 0x2368 JUMP JUMPDEST PUSH2 0x1E13 DUP2 PUSH2 0x254B JUMP JUMPDEST DUP5 ADD SWAP2 POP POP SWAP3 SWAP2 POP POP JUMP JUMPDEST PUSH1 0x0 PUSH2 0x1E29 DUP3 PUSH2 0x2245 JUMP JUMPDEST PUSH2 0x1E33 DUP2 DUP6 PUSH2 0x229D JUMP JUMPDEST SWAP4 POP PUSH2 0x1E43 DUP2 DUP6 PUSH1 0x20 DUP7 ADD PUSH2 0x2368 JUMP JUMPDEST PUSH2 0x1E4C DUP2 PUSH2 0x254B JUMP JUMPDEST DUP5 ADD SWAP2 POP POP SWAP3 SWAP2 POP POP JUMP JUMPDEST PUSH1 0x0 PUSH2 0x120 DUP4 ADD PUSH1 0x0 DUP4 ADD MLOAD DUP5 DUP3 SUB PUSH1 0x0 DUP7 ADD MSTORE PUSH2 0x1E75 DUP3 DUP3 PUSH2 0x1DE5 JUMP JUMPDEST SWAP2 POP POP PUSH1 0x20 DUP4 ADD MLOAD PUSH2 0x1E8A PUSH1 0x20 DUP7 ADD DUP3 PUSH2 0x1C83 JUMP JUMPDEST POP PUSH1 0x40 DUP4 ADD MLOAD DUP5 DUP3 SUB PUSH1 0x40 DUP7 ADD MSTORE PUSH2 0x1EA2 DUP3 DUP3 PUSH2 0x1DE5 JUMP JUMPDEST SWAP2 POP POP PUSH1 0x60 DUP4 ADD MLOAD DUP5 DUP3 SUB PUSH1 0x60 DUP7 ADD MSTORE PUSH2 0x1EBC DUP3 DUP3 PUSH2 0x1DE5 JUMP JUMPDEST SWAP2 POP POP PUSH1 0x80 DUP4 ADD MLOAD DUP5 DUP3 SUB PUSH1 0x80 DUP7 ADD MSTORE PUSH2 0x1ED6 DUP3 DUP3 PUSH2 0x1DE5 JUMP JUMPDEST SWAP2 POP POP PUSH1 0xA0 DUP4 ADD MLOAD DUP5 DUP3 SUB PUSH1 0xA0 DUP7 ADD MSTORE PUSH2 0x1EF0 DUP3 DUP3 PUSH2 0x1CA1 JUMP JUMPDEST SWAP2 POP POP PUSH1 0xC0 DUP4 ADD MLOAD PUSH2 0x1F05 PUSH1 0xC0 DUP7 ADD DUP3 PUSH2 0x1DA9 JUMP JUMPDEST POP PUSH1 0xE0 DUP4 ADD MLOAD PUSH2 0x1F18 PUSH1 0xE0 DUP7 ADD DUP3 PUSH2 0x1D8B JUMP JUMPDEST POP PUSH2 0x100 DUP4 ADD MLOAD PUSH2 0x1F2D PUSH2 0x100 DUP7 ADD DUP3 PUSH2 0x1DC7 JUMP JUMPDEST POP DUP1 SWAP2 POP POP SWAP3 SWAP2 POP POP JUMP JUMPDEST PUSH2 0x1F41 DUP2 PUSH2 0x2319 JUMP JUMPDEST DUP3 MSTORE POP POP JUMP JUMPDEST PUSH1 0x0 PUSH1 0xC0 DUP3 ADD SWAP1 POP PUSH2 0x1F5C PUSH1 0x0 DUP4 ADD DUP10 PUSH2 0x1C92 JUMP JUMPDEST DUP2 DUP2 SUB PUSH1 0x20 DUP4 ADD MSTORE PUSH2 0x1F6E DUP2 DUP9 PUSH2 0x1E1E JUMP JUMPDEST SWAP1 POP DUP2 DUP2 SUB PUSH1 0x40 DUP4 ADD MSTORE PUSH2 0x1F82 DUP2 DUP8 PUSH2 0x1E1E JUMP JUMPDEST SWAP1 POP DUP2 DUP2 SUB PUSH1 0x60 DUP4 ADD MSTORE PUSH2 0x1F96 DUP2 DUP7 PUSH2 0x1E1E JUMP JUMPDEST SWAP1 POP DUP2 DUP2 SUB PUSH1 0x80 DUP4 ADD MSTORE PUSH2 0x1FAA DUP2 DUP6 PUSH2 0x1E1E JUMP JUMPDEST SWAP1 POP DUP2 DUP2 SUB PUSH1 0xA0 DUP4 ADD MSTORE PUSH2 0x1FBE DUP2 DUP5 PUSH2 0x1E1E JUMP JUMPDEST SWAP1 POP SWAP8 SWAP7 POP POP POP POP POP POP POP JUMP JUMPDEST PUSH1 0x0 PUSH1 0xA0 DUP3 ADD SWAP1 POP PUSH2 0x1FE0 PUSH1 0x0 DUP4 ADD DUP9 PUSH2 0x1C92 JUMP JUMPDEST DUP2 DUP2 SUB PUSH1 0x20 DUP4 ADD MSTORE PUSH2 0x1FF2 DUP2 DUP8 PUSH2 0x1E1E JUMP JUMPDEST SWAP1 POP DUP2 DUP2 SUB PUSH1 0x40 DUP4 ADD MSTORE PUSH2 0x2006 DUP2 DUP7 PUSH2 0x1E1E JUMP JUMPDEST SWAP1 POP PUSH2 0x2015 PUSH1 0x60 DUP4 ADD DUP6 PUSH2 0x1F38 JUMP JUMPDEST DUP2 DUP2 SUB PUSH1 0x80 DUP4 ADD MSTORE PUSH2 0x2027 DUP2 DUP5 PUSH2 0x1E1E JUMP JUMPDEST SWAP1 POP SWAP7 SWAP6 POP POP POP POP POP POP JUMP JUMPDEST PUSH1 0x0 PUSH1 0x20 DUP3 ADD SWAP1 POP DUP2 DUP2 SUB PUSH1 0x0 DUP4 ADD MSTORE PUSH2 0x204D DUP2 DUP5 PUSH2 0x1D16 JUMP JUMPDEST SWAP1 POP SWAP3 SWAP2 POP POP JUMP JUMPDEST PUSH1 0x0 PUSH2 0x100 DUP3 ADD SWAP1 POP DUP2 DUP2 SUB PUSH1 0x0 DUP4 ADD MSTORE PUSH2 0x2070 DUP2 DUP12 PUSH2 0x1E1E JUMP JUMPDEST SWAP1 POP PUSH2 0x207F PUSH1 0x20 DUP4 ADD DUP11 PUSH2 0x1C92 JUMP JUMPDEST DUP2 DUP2 SUB PUSH1 0x40 DUP4 ADD MSTORE PUSH2 0x2091 DUP2 DUP10 PUSH2 0x1E1E JUMP JUMPDEST SWAP1 POP DUP2 DUP2 SUB PUSH1 0x60 DUP4 ADD MSTORE PUSH2 0x20A5 DUP2 DUP9 PUSH2 0x1E1E JUMP JUMPDEST SWAP1 POP DUP2 DUP2 SUB PUSH1 0x80 DUP4 ADD MSTORE PUSH2 0x20B9 DUP2 DUP8 PUSH2 0x1E1E JUMP JUMPDEST SWAP1 POP PUSH2 0x20C8 PUSH1 0xA0 DUP4 ADD DUP7 PUSH2 0x1DB8 JUMP JUMPDEST PUSH2 0x20D5 PUSH1 0xC0 DUP4 ADD DUP6 PUSH2 0x1D9A JUMP JUMPDEST PUSH2 0x20E2 PUSH1 0xE0 DUP4 ADD DUP5 PUSH2 0x1DD6 JUMP JUMPDEST SWAP10 SWAP9 POP POP POP POP POP POP POP POP POP JUMP JUMPDEST PUSH1 0x0 PUSH1 0x60 DUP3 ADD SWAP1 POP DUP2 DUP2 SUB PUSH1 0x0 DUP4 ADD MSTORE PUSH2 0x2109 DUP2 DUP7 PUSH2 0x1E1E JUMP JUMPDEST SWAP1 POP PUSH2 0x2118 PUSH1 0x20 DUP4 ADD DUP6 PUSH2 0x1DB8 JUMP JUMPDEST PUSH2 0x2125 PUSH1 0x40 DUP4 ADD DUP5 PUSH2 0x1F38 JUMP JUMPDEST SWAP5 SWAP4 POP POP POP POP JUMP JUMPDEST PUSH1 0x0 PUSH1 0x60 DUP3 ADD SWAP1 POP DUP2 DUP2 SUB PUSH1 0x0 DUP4 ADD MSTORE PUSH2 0x2147 DUP2 DUP7 PUSH2 0x1E1E JUMP JUMPDEST SWAP1 POP DUP2 DUP2 SUB PUSH1 0x20 DUP4 ADD MSTORE PUSH2 0x215B DUP2 DUP6 PUSH2 0x1E1E JUMP JUMPDEST SWAP1 POP PUSH2 0x216A PUSH1 0x40 DUP4 ADD DUP5 PUSH2 0x1C92 JUMP JUMPDEST SWAP5 SWAP4 POP POP POP POP JUMP JUMPDEST PUSH1 0x0 PUSH1 0x20 DUP3 ADD SWAP1 POP PUSH2 0x2187 PUSH1 0x0 DUP4 ADD DUP5 PUSH2 0x1F38 JUMP JUMPDEST SWAP3 SWAP2 POP POP JUMP JUMPDEST PUSH1 0x0 PUSH2 0x2197 PUSH2 0x21A8 JUMP JUMPDEST SWAP1 POP PUSH2 0x21A3 DUP3 DUP3 PUSH2 0x23CD JUMP JUMPDEST SWAP2 SWAP1 POP JUMP JUMPDEST PUSH1 0x0 PUSH1 0x40 MLOAD SWAP1 POP SWAP1 JUMP JUMPDEST PUSH1 0x0 PUSH8 0xFFFFFFFFFFFFFFFF DUP3 GT ISZERO PUSH2 0x21CD JUMPI PUSH2 0x21CC PUSH2 0x2503 JUMP JUMPDEST JUMPDEST PUSH1 0x20 DUP3 MUL SWAP1 POP PUSH1 0x20 DUP2 ADD SWAP1 POP SWAP2 SWAP1 POP JUMP JUMPDEST PUSH1 0x0 PUSH8 0xFFFFFFFFFFFFFFFF DUP3 GT ISZERO PUSH2 0x21F9 JUMPI PUSH2 0x21F8 PUSH2 0x2503 JUMP JUMPDEST JUMPDEST PUSH2 0x2202 DUP3 PUSH2 0x254B JUMP JUMPDEST SWAP1 POP PUSH1 0x20 DUP2 ADD SWAP1 POP SWAP2 SWAP1 POP JUMP JUMPDEST PUSH1 0x0 DUP2 SWAP1 POP PUSH1 0x20 DUP3 ADD SWAP1 POP SWAP2 SWAP1 POP JUMP JUMPDEST PUSH1 0x0 DUP2 SWAP1 POP PUSH1 0x20 DUP3 ADD SWAP1 POP SWAP2 SWAP1 POP JUMP JUMPDEST PUSH1 0x0 DUP2 MLOAD SWAP1 POP SWAP2 SWAP1 POP JUMP JUMPDEST PUSH1 0x0 DUP2 MLOAD SWAP1 POP SWAP2 SWAP1 POP JUMP JUMPDEST PUSH1 0x0 DUP2 MLOAD SWAP1 POP SWAP2 SWAP1 POP JUMP JUMPDEST PUSH1 0x0 PUSH1 0x20 DUP3 ADD SWAP1 POP SWAP2 SWAP1 POP JUMP JUMPDEST PUSH1 0x0 PUSH1 0x20 DUP3 ADD SWAP1 POP SWAP2 SWAP1 POP JUMP JUMPDEST PUSH1 0x0 DUP3 DUP3 MSTORE PUSH1 0x20 DUP3 ADD SWAP1 POP SWAP3 SWAP2 POP POP JUMP JUMPDEST PUSH1 0x0 DUP3 DUP3 MSTORE PUSH1 0x20 DUP3 ADD SWAP1 POP SWAP3 SWAP2 POP POP JUMP JUMPDEST PUSH1 0x0 DUP3 DUP3 MSTORE PUSH1 0x20 DUP3 ADD SWAP1 POP SWAP3 SWAP2 POP POP JUMP JUMPDEST PUSH1 0x0 DUP3 DUP3 MSTORE PUSH1 0x20 DUP3 ADD SWAP1 POP SWAP3 SWAP2 POP POP JUMP JUMPDEST PUSH1 0x0 PUSH2 0x22B9 DUP3 PUSH2 0x22F9 JUMP JUMPDEST SWAP1 POP SWAP2 SWAP1 POP JUMP JUMPDEST PUSH1 0x0 DUP2 SWAP1 POP PUSH2 0x22CE DUP3 PUSH2 0x255C JUMP JUMPDEST SWAP2 SWAP1 POP JUMP JUMPDEST PUSH1 0x0 DUP2 SWAP1 POP PUSH2 0x22E1 DUP3 PUSH2 0x2570 JUMP JUMPDEST SWAP2 SWAP1 POP JUMP JUMPDEST PUSH1 0x0 DUP2 SWAP1 POP PUSH2 0x22F4 DUP3 PUSH2 0x2584 JUMP JUMPDEST SWAP2 SWAP1 POP JUMP JUMPDEST PUSH1 0x0 PUSH20 0xFFFFFFFFFFFFFFFFFFFFFFFFFFFFFFFFFFFFFFFF DUP3 AND SWAP1 POP SWAP2 SWAP1 POP JUMP JUMPDEST PUSH1 0x0 DUP2 SWAP1 POP SWAP2 SWAP1 POP JUMP JUMPDEST PUSH1 0x0 PUSH2 0x232E DUP3 PUSH2 0x22C0 JUMP JUMPDEST SWAP1 POP SWAP2 SWAP1 POP JUMP JUMPDEST PUSH1 0x0 PUSH2 0x2340 DUP3 PUSH2 0x22D3 JUMP JUMPDEST SWAP1 POP SWAP2 SWAP1 POP JUMP JUMPDEST PUSH1 0x0 PUSH2 0x2352 DUP3 PUSH2 0x22E6 JUMP JUMPDEST SWAP1 POP SWAP2 SWAP1 POP JUMP JUMPDEST DUP3 DUP2 DUP4 CALLDATACOPY PUSH1 0x0 DUP4 DUP4 ADD MSTORE POP POP POP JUMP JUMPDEST PUSH1 0x0 JUMPDEST DUP4 DUP2 LT ISZERO PUSH2 0x2386 JUMPI DUP1 DUP3 ADD MLOAD DUP2 DUP5 ADD MSTORE PUSH1 0x20 DUP2 ADD SWAP1 POP PUSH2 0x236B JUMP JUMPDEST DUP4 DUP2 GT ISZERO PUSH2 0x2395 JUMPI PUSH1 0x0 DUP5 DUP5 ADD MSTORE JUMPDEST POP POP POP POP JUMP JUMPDEST PUSH1 0x0 PUSH1 0x2 DUP3 DIV SWAP1 POP PUSH1 0x1 DUP3 AND DUP1 PUSH2 0x23B3 JUMPI PUSH1 0x7F DUP3 AND SWAP2 POP JUMPDEST PUSH1 0x20 DUP3 LT DUP2 EQ ISZERO PUSH2 0x23C7 JUMPI PUSH2 0x23C6 PUSH2 0x24A5 JUMP JUMPDEST JUMPDEST POP SWAP2 SWAP1 POP JUMP JUMPDEST PUSH2 0x23D6 DUP3 PUSH2 0x254B JUMP JUMPDEST DUP2 ADD DUP2 DUP2 LT PUSH8 0xFFFFFFFFFFFFFFFF DUP3 GT OR ISZERO PUSH2 0x23F5 JUMPI PUSH2 0x23F4 PUSH2 0x2503 JUMP JUMPDEST JUMPDEST DUP1 PUSH1 0x40 MSTORE POP POP POP JUMP JUMPDEST PUSH1 0x0 PUSH2 0x2409 DUP3 PUSH2 0x2319 JUMP JUMPDEST SWAP2 POP PUSH32 0xFFFFFFFFFFFFFFFFFFFFFFFFFFFFFFFFFFFFFFFFFFFFFFFFFFFFFFFFFFFFFFFF DUP3 EQ ISZERO PUSH2 0x243C JUMPI PUSH2 0x243B PUSH2 0x2447 JUMP JUMPDEST JUMPDEST PUSH1 0x1 DUP3 ADD SWAP1 POP SWAP2 SWAP1 POP JUMP JUMPDEST PUSH32 0x4E487B7100000000000000000000000000000000000000000000000000000000 PUSH1 0x0 MSTORE PUSH1 0x11 PUSH1 0x4 MSTORE PUSH1 0x24 PUSH1 0x0 REVERT JUMPDEST PUSH32 0x4E487B7100000000000000000000000000000000000000000000000000000000 PUSH1 0x0 MSTORE PUSH1 0x21 PUSH1 0x4 MSTORE PUSH1 0x24 PUSH1 0x0 REVERT JUMPDEST PUSH32 0x4E487B7100000000000000000000000000000000000000000000000000000000 PUSH1 0x0 MSTORE PUSH1 0x22 PUSH1 0x4 MSTORE PUSH1 0x24 PUSH1 0x0 REVERT JUMPDEST PUSH32 0x4E487B7100000000000000000000000000000000000000000000000000000000 PUSH1 0x0 MSTORE PUSH1 0x32 PUSH1 0x4 MSTORE PUSH1 0x24 PUSH1 0x0 REVERT JUMPDEST PUSH32 0x4E487B7100000000000000000000000000000000000000000000000000000000 PUSH1 0x0 MSTORE PUSH1 0x41 PUSH1 0x4 MSTORE PUSH1 0x24 PUSH1 0x0 REVERT JUMPDEST PUSH1 0x0 DUP1 REVERT JUMPDEST PUSH1 0x0 DUP1 REVERT JUMPDEST PUSH1 0x0 DUP1 REVERT JUMPDEST PUSH1 0x0 DUP1 REVERT JUMPDEST PUSH1 0x0 DUP1 REVERT JUMPDEST PUSH1 0x0 PUSH1 0x1F NOT PUSH1 0x1F DUP4 ADD AND SWAP1 POP SWAP2 SWAP1 POP JUMP JUMPDEST PUSH1 0x3 DUP2 LT PUSH2 0x256D JUMPI PUSH2 0x256C PUSH2 0x2476 JUMP JUMPDEST JUMPDEST POP JUMP JUMPDEST PUSH1 0x4 DUP2 LT PUSH2 0x2581 JUMPI PUSH2 0x2580 PUSH2 0x2476 JUMP JUMPDEST JUMPDEST POP JUMP JUMPDEST PUSH1 0x3 DUP2 LT PUSH2 0x2595 JUMPI PUSH2 0x2594 PUSH2 0x2476 JUMP JUMPDEST JUMPDEST POP JUMP JUMPDEST PUSH2 0x25A1 DUP2 PUSH2 0x22AE JUMP JUMPDEST DUP2 EQ PUSH2 0x25AC JUMPI PUSH1 0x0 DUP1 REVERT JUMPDEST POP JUMP JUMPDEST PUSH1 0x3 DUP2 LT PUSH2 0x25BC JUMPI PUSH1 0x0 DUP1 REVERT JUMPDEST POP JUMP JUMPDEST PUSH1 0x4 DUP2 LT PUSH2 0x25CC JUMPI PUSH1 0x0 DUP1 REVERT JUMPDEST POP JUMP JUMPDEST PUSH1 0x3 DUP2 LT PUSH2 0x25DC JUMPI PUSH1 0x0 DUP1 REVERT JUMPDEST POP JUMP JUMPDEST PUSH2 0x25E8 DUP2 PUSH2 0x2319 JUMP JUMPDEST DUP2 EQ PUSH2 0x25F3 JUMPI PUSH1 0x0 DUP1 REVERT JUMPDEST POP JUMP INVALID LOG2 PUSH5 0x6970667358 0x22 SLT KECCAK256 PUSH24 0xB0501791C563F9D09A185D7411BCD1DE25B9381CA75A467C 0x49 DUP10 SWAP10 0x27 CODESIZE PUSH8 0x2064736F6C634300 ADDMOD SMOD STOP CALLER "
		},
		"gasEstimates": {
			"creation": {
				"codeDepositCost": "1954400",
				"executionCost": "2069",
				"totalCost": "1956469"
			},
			"external": {
				"availableJobs(uint256)": "infinite",
				"changePositionType(string,uint8)": "infinite",
				"createPosition(string,address,string,string,string,string[],uint8,uint8)": "infinite",
				"getAvailablePositions()": "infinite",
				"getNumberOfPositions()": "2533",
				"getPositions()": "infinite",
				"jobCandidates(uint256)": "infinite",
				"jobRecruiters(uint256)": "infinite",
				"jobSeekers(uint256)": "infinite"
			}
		},
		"methodIdentifiers": {
			"availableJobs(uint256)": "b7eb51cc",
			"changePositionType(string,uint8)": "3a115738",
			"createPosition(string,address,string,string,string,string[],uint8,uint8)": "8e7c3ff8",
			"getAvailablePositions()": "9bf4bdf6",
			"getNumberOfPositions()": "e02b79f9",
			"getPositions()": "80275860",
			"jobCandidates(uint256)": "834ee2e4",
			"jobRecruiters(uint256)": "6cc91d59",
			"jobSeekers(uint256)": "615b816b"
		}
	},
	"abi": [
		{
			"anonymous": false,
			"inputs": [
				{
					"indexed": false,
					"internalType": "string",
					"name": "positionId",
					"type": "string"
				},
				{
					"indexed": false,
					"internalType": "enum jobPortal.PositionStatus",
					"name": "positionStatus",
					"type": "uint8"
				},
				{
					"indexed": false,
					"internalType": "uint256",
					"name": "timeOfEvent",
					"type": "uint256"
				}
			],
			"name": "PositionEvent",
			"type": "event"
		},
		{
			"inputs": [
				{
					"internalType": "uint256",
					"name": "",
					"type": "uint256"
				}
			],
			"name": "availableJobs",
			"outputs": [
				{
					"internalType": "string",
					"name": "id",
					"type": "string"
				},
				{
					"internalType": "address",
					"name": "recuiterWalletAddress",
					"type": "address"
				},
				{
					"internalType": "string",
					"name": "title",
					"type": "string"
				},
				{
					"internalType": "string",
					"name": "description",
					"type": "string"
				},
				{
					"internalType": "string",
					"name": "requirements",
					"type": "string"
				},
				{
					"internalType": "enum jobPortal.PositionStatus",
					"name": "status",
					"type": "uint8"
				},
				{
					"internalType": "enum jobPortal.PositionSite",
					"name": "site",
					"type": "uint8"
				},
				{
					"internalType": "enum jobPortal.PositionType",
					"name": "_type",
					"type": "uint8"
				}
			],
			"stateMutability": "view",
			"type": "function"
		},
		{
			"inputs": [
				{
					"internalType": "string",
					"name": "positionId",
					"type": "string"
				},
				{
					"internalType": "enum jobPortal.PositionStatus",
					"name": "newStatus",
					"type": "uint8"
				}
			],
			"name": "changePositionType",
			"outputs": [],
			"stateMutability": "nonpayable",
			"type": "function"
		},
		{
			"inputs": [
				{
					"internalType": "string",
					"name": "id",
					"type": "string"
				},
				{
					"internalType": "address",
					"name": "recuiterWalletAddress",
					"type": "address"
				},
				{
					"internalType": "string",
					"name": "title",
					"type": "string"
				},
				{
					"internalType": "string",
					"name": "description",
					"type": "string"
				},
				{
					"internalType": "string",
					"name": "requirements",
					"type": "string"
				},
				{
					"internalType": "string[]",
					"name": "skills",
					"type": "string[]"
				},
				{
					"internalType": "enum jobPortal.PositionSite",
					"name": "positionSite",
					"type": "uint8"
				},
				{
					"internalType": "enum jobPortal.PositionType",
					"name": "positionType",
					"type": "uint8"
				}
			],
			"name": "createPosition",
			"outputs": [],
			"stateMutability": "nonpayable",
			"type": "function"
		},
		{
			"inputs": [],
			"name": "getAvailablePositions",
			"outputs": [
				{
					"components": [
						{
							"internalType": "string",
							"name": "id",
							"type": "string"
						},
						{
							"internalType": "address",
							"name": "recuiterWalletAddress",
							"type": "address"
						},
						{
							"internalType": "string",
							"name": "title",
							"type": "string"
						},
						{
							"internalType": "string",
							"name": "description",
							"type": "string"
						},
						{
							"internalType": "string",
							"name": "requirements",
							"type": "string"
						},
						{
							"internalType": "string[]",
							"name": "skills",
							"type": "string[]"
						},
						{
							"internalType": "enum jobPortal.PositionStatus",
							"name": "status",
							"type": "uint8"
						},
						{
							"internalType": "enum jobPortal.PositionSite",
							"name": "site",
							"type": "uint8"
						},
						{
							"internalType": "enum jobPortal.PositionType",
							"name": "_type",
							"type": "uint8"
						}
					],
					"internalType": "struct jobPortal.Position[]",
					"name": "",
					"type": "tuple[]"
				}
			],
			"stateMutability": "view",
			"type": "function"
		},
		{
			"inputs": [],
			"name": "getNumberOfPositions",
			"outputs": [
				{
					"internalType": "uint256",
					"name": "",
					"type": "uint256"
				}
			],
			"stateMutability": "view",
			"type": "function"
		},
		{
			"inputs": [],
			"name": "getPositions",
			"outputs": [
				{
					"components": [
						{
							"internalType": "string",
							"name": "id",
							"type": "string"
						},
						{
							"internalType": "address",
							"name": "recuiterWalletAddress",
							"type": "address"
						},
						{
							"internalType": "string",
							"name": "title",
							"type": "string"
						},
						{
							"internalType": "string",
							"name": "description",
							"type": "string"
						},
						{
							"internalType": "string",
							"name": "requirements",
							"type": "string"
						},
						{
							"internalType": "string[]",
							"name": "skills",
							"type": "string[]"
						},
						{
							"internalType": "enum jobPortal.PositionStatus",
							"name": "status",
							"type": "uint8"
						},
						{
							"internalType": "enum jobPortal.PositionSite",
							"name": "site",
							"type": "uint8"
						},
						{
							"internalType": "enum jobPortal.PositionType",
							"name": "_type",
							"type": "uint8"
						}
					],
					"internalType": "struct jobPortal.Position[]",
					"name": "",
					"type": "tuple[]"
				}
			],
			"stateMutability": "view",
			"type": "function"
		},
		{
			"inputs": [
				{
					"internalType": "uint256",
					"name": "",
					"type": "uint256"
				}
			],
			"name": "jobCandidates",
			"outputs": [
				{
					"internalType": "string",
					"name": "positionID",
					"type": "string"
				},
				{
					"internalType": "string",
					"name": "appliedDate",
					"type": "string"
				},
				{
					"internalType": "address",
					"name": "jobSeekerWalletAddress",
					"type": "address"
				}
			],
			"stateMutability": "view",
			"type": "function"
		},
		{
			"inputs": [
				{
					"internalType": "uint256",
					"name": "",
					"type": "uint256"
				}
			],
			"name": "jobRecruiters",
			"outputs": [
				{
					"internalType": "address",
					"name": "walletAddress",
					"type": "address"
				},
				{
					"internalType": "string",
					"name": "companyName",
					"type": "string"
				},
				{
					"internalType": "string",
					"name": "companyLocation",
					"type": "string"
				},
				{
					"internalType": "string",
					"name": "recruiterName",
					"type": "string"
				},
				{
					"internalType": "string",
					"name": "website",
					"type": "string"
				},
				{
					"internalType": "string",
					"name": "recruiterID",
					"type": "string"
				}
			],
			"stateMutability": "view",
			"type": "function"
		},
		{
			"inputs": [
				{
					"internalType": "uint256",
					"name": "",
					"type": "uint256"
				}
			],
			"name": "jobSeekers",
			"outputs": [
				{
					"internalType": "address",
					"name": "walletAddress",
					"type": "address"
				},
				{
					"internalType": "string",
					"name": "personalLocation",
					"type": "string"
				},
				{
					"internalType": "string",
					"name": "name",
					"type": "string"
				},
				{
					"internalType": "uint256",
					"name": "phoneNumber",
					"type": "uint256"
				},
				{
					"internalType": "string",
					"name": "email",
					"type": "string"
				}
			],
			"stateMutability": "view",
			"type": "function"
		}
	]
}